{
  "_format": "hh-sol-artifact-1",
  "contractName": "SupplyChainNFT",
  "sourceName": "multichain/SupplyChainNFT.sol",
  "abi": [
    {
      "inputs": [
        {
          "internalType": "address",
          "name": "initialAdmin",
          "type": "address"
        }
      ],
      "stateMutability": "nonpayable",
      "type": "constructor"
    },
    {
      "inputs": [],
      "name": "AccessControlBadConfirmation",
      "type": "error"
    },
    {
      "inputs": [
        {
          "internalType": "address",
          "name": "account",
          "type": "address"
        },
        {
          "internalType": "bytes32",
          "name": "neededRole",
          "type": "bytes32"
        }
      ],
      "name": "AccessControlUnauthorizedAccount",
      "type": "error"
    },
    {
      "inputs": [
        {
          "internalType": "address",
          "name": "sender",
          "type": "address"
        },
        {
          "internalType": "uint256",
          "name": "tokenId",
          "type": "uint256"
        },
        {
          "internalType": "address",
          "name": "owner",
          "type": "address"
        }
      ],
      "name": "ERC721IncorrectOwner",
      "type": "error"
    },
    {
      "inputs": [
        {
          "internalType": "address",
          "name": "operator",
          "type": "address"
        },
        {
          "internalType": "uint256",
          "name": "tokenId",
          "type": "uint256"
        }
      ],
      "name": "ERC721InsufficientApproval",
      "type": "error"
    },
    {
      "inputs": [
        {
          "internalType": "address",
          "name": "approver",
          "type": "address"
        }
      ],
      "name": "ERC721InvalidApprover",
      "type": "error"
    },
    {
      "inputs": [
        {
          "internalType": "address",
          "name": "operator",
          "type": "address"
        }
      ],
      "name": "ERC721InvalidOperator",
      "type": "error"
    },
    {
      "inputs": [
        {
          "internalType": "address",
          "name": "owner",
          "type": "address"
        }
      ],
      "name": "ERC721InvalidOwner",
      "type": "error"
    },
    {
      "inputs": [
        {
          "internalType": "address",
          "name": "receiver",
          "type": "address"
        }
      ],
      "name": "ERC721InvalidReceiver",
      "type": "error"
    },
    {
      "inputs": [
        {
          "internalType": "address",
          "name": "sender",
          "type": "address"
        }
      ],
      "name": "ERC721InvalidSender",
      "type": "error"
    },
    {
      "inputs": [
        {
          "internalType": "uint256",
          "name": "tokenId",
          "type": "uint256"
        }
      ],
      "name": "ERC721NonexistentToken",
      "type": "error"
    },
    {
      "inputs": [
        {
          "internalType": "address",
          "name": "owner",
          "type": "address"
        }
      ],
      "name": "OwnableInvalidOwner",
      "type": "error"
    },
    {
      "inputs": [
        {
          "internalType": "address",
          "name": "account",
          "type": "address"
        }
      ],
      "name": "OwnableUnauthorizedAccount",
      "type": "error"
    },
    {
      "anonymous": false,
      "inputs": [
        {
          "indexed": true,
          "internalType": "address",
          "name": "owner",
          "type": "address"
        },
        {
          "indexed": true,
          "internalType": "address",
          "name": "approved",
          "type": "address"
        },
        {
          "indexed": true,
          "internalType": "uint256",
          "name": "tokenId",
          "type": "uint256"
        }
      ],
      "name": "Approval",
      "type": "event"
    },
    {
      "anonymous": false,
      "inputs": [
        {
          "indexed": true,
          "internalType": "address",
          "name": "owner",
          "type": "address"
        },
        {
          "indexed": true,
          "internalType": "address",
          "name": "operator",
          "type": "address"
        },
        {
          "indexed": false,
          "internalType": "bool",
          "name": "approved",
          "type": "bool"
        }
      ],
      "name": "ApprovalForAll",
      "type": "event"
    },
    {
      "anonymous": false,
      "inputs": [
        {
          "indexed": true,
          "internalType": "uint256",
          "name": "disputeId",
          "type": "uint256"
        },
        {
          "indexed": true,
          "internalType": "address",
          "name": "candidate",
          "type": "address"
        },
        {
          "indexed": true,
          "internalType": "address",
          "name": "proposer",
          "type": "address"
        },
        {
          "indexed": false,
          "internalType": "uint256",
          "name": "timestamp",
          "type": "uint256"
        }
      ],
      "name": "ArbitratorCandidateProposed",
      "type": "event"
    },
    {
      "anonymous": false,
      "inputs": [
        {
          "indexed": true,
          "internalType": "uint256",
          "name": "disputeId",
          "type": "uint256"
        },
        {
          "indexed": true,
          "internalType": "uint256",
          "name": "tokenId",
          "type": "uint256"
        },
        {
          "indexed": true,
          "internalType": "address",
          "name": "selectedArbitrator",
          "type": "address"
        },
        {
          "indexed": false,
          "internalType": "uint256",
          "name": "timestamp",
          "type": "uint256"
        }
      ],
      "name": "ArbitratorSelected",
      "type": "event"
    },
    {
      "anonymous": false,
      "inputs": [
        {
          "indexed": true,
          "internalType": "uint256",
          "name": "disputeId",
          "type": "uint256"
        },
        {
          "indexed": true,
          "internalType": "address",
          "name": "voter",
          "type": "address"
        },
        {
          "indexed": true,
          "internalType": "address",
          "name": "candidate",
          "type": "address"
        },
        {
          "indexed": false,
          "internalType": "uint256",
          "name": "timestamp",
          "type": "uint256"
        }
      ],
      "name": "ArbitratorVoted",
      "type": "event"
    },
    {
      "anonymous": false,
      "inputs": [
        {
          "indexed": true,
          "internalType": "uint256",
          "name": "batchId",
          "type": "uint256"
        },
        {
          "indexed": false,
          "internalType": "uint256",
          "name": "anomalyScore",
          "type": "uint256"
        },
        {
          "indexed": false,
          "internalType": "address",
          "name": "flaggedBy",
          "type": "address"
        },
        {
          "indexed": false,
          "internalType": "uint256",
          "name": "timestamp",
          "type": "uint256"
        }
      ],
      "name": "BatchAnomalyDetected",
      "type": "event"
    },
    {
      "anonymous": false,
      "inputs": [
        {
          "indexed": false,
          "internalType": "uint256",
          "name": "batchId",
          "type": "uint256"
        },
        {
          "indexed": false,
          "internalType": "bool",
          "name": "success",
          "type": "bool"
        }
      ],
      "name": "BatchCommitted",
      "type": "event"
    },
    {
      "anonymous": false,
      "inputs": [
        {
          "indexed": false,
          "internalType": "uint256",
          "name": "_fromTokenId",
          "type": "uint256"
        },
        {
          "indexed": false,
          "internalType": "uint256",
          "name": "_toTokenId",
          "type": "uint256"
        }
      ],
      "name": "BatchMetadataUpdate",
      "type": "event"
    },
    {
      "anonymous": false,
      "inputs": [
        {
          "indexed": false,
          "internalType": "uint256",
          "name": "batchId",
          "type": "uint256"
        },
        {
          "indexed": false,
          "internalType": "address",
          "name": "proposer",
          "type": "address"
        },
        {
          "indexed": false,
          "internalType": "address[]",
          "name": "selectedValidators",
          "type": "address[]"
        },
        {
          "indexed": false,
          "internalType": "bool",
          "name": "isCrossChain",
          "type": "bool"
        }
      ],
      "name": "BatchProposed",
      "type": "event"
    },
    {
      "anonymous": false,
      "inputs": [
        {
          "indexed": false,
          "internalType": "uint256",
          "name": "batchId",
          "type": "uint256"
        },
        {
          "indexed": false,
          "internalType": "address",
          "name": "validator",
          "type": "address"
        },
        {
          "indexed": false,
          "internalType": "bool",
          "name": "approve",
          "type": "bool"
        }
      ],
      "name": "BatchValidated",
      "type": "event"
    },
    {
      "anonymous": false,
      "inputs": [
        {
          "indexed": true,
          "internalType": "uint256",
          "name": "tokenId",
          "type": "uint256"
        },
        {
          "indexed": false,
          "internalType": "string",
          "name": "cid",
          "type": "string"
        },
        {
          "indexed": true,
          "internalType": "address",
          "name": "actor",
          "type": "address"
        },
        {
          "indexed": false,
          "internalType": "uint256",
          "name": "timestamp",
          "type": "uint256"
        }
      ],
      "name": "CIDStored",
      "type": "event"
    },
    {
      "anonymous": false,
      "inputs": [
        {
          "indexed": true,
          "internalType": "uint256",
          "name": "tokenId",
          "type": "uint256"
        },
        {
          "indexed": false,
          "internalType": "string",
          "name": "newCid",
          "type": "string"
        },
        {
          "indexed": true,
          "internalType": "address",
          "name": "actor",
          "type": "address"
        },
        {
          "indexed": false,
          "internalType": "uint256",
          "name": "timestamp",
          "type": "uint256"
        }
      ],
      "name": "CIDToHistoryStored",
      "type": "event"
    },
    {
      "anonymous": false,
      "inputs": [
        {
          "indexed": true,
          "internalType": "uint256",
          "name": "tokenId",
          "type": "uint256"
        },
        {
          "indexed": true,
          "internalType": "address",
          "name": "buyer",
          "type": "address"
        },
        {
          "indexed": false,
          "internalType": "uint256",
          "name": "amount",
          "type": "uint256"
        },
        {
          "indexed": false,
          "internalType": "uint256",
          "name": "timestamp",
          "type": "uint256"
        }
      ],
      "name": "CollateralDepositedForPurchase",
      "type": "event"
    },
    {
      "anonymous": false,
      "inputs": [
        {
          "indexed": true,
          "internalType": "uint256",
          "name": "batchId",
          "type": "uint256"
        },
        {
          "indexed": false,
          "internalType": "uint256",
          "name": "targetChainId",
          "type": "uint256"
        },
        {
          "indexed": false,
          "internalType": "bytes32",
          "name": "crossChainHash",
          "type": "bytes32"
        },
        {
          "indexed": false,
          "internalType": "uint256",
          "name": "timestamp",
          "type": "uint256"
        }
      ],
      "name": "CrossChainBatchSync",
      "type": "event"
    },
    {
      "anonymous": false,
      "inputs": [
        {
          "indexed": true,
          "internalType": "uint256",
          "name": "disputeId",
          "type": "uint256"
        },
        {
          "indexed": false,
          "internalType": "uint256",
          "name": "targetChainId",
          "type": "uint256"
        },
        {
          "indexed": false,
          "internalType": "bytes32",
          "name": "crossChainHash",
          "type": "bytes32"
        },
        {
          "indexed": false,
          "internalType": "uint256",
          "name": "timestamp",
          "type": "uint256"
        }
      ],
      "name": "CrossChainDisputeSync",
      "type": "event"
    },
    {
      "anonymous": false,
      "inputs": [
        {
          "indexed": true,
          "internalType": "uint256",
          "name": "disputeId",
          "type": "uint256"
        },
        {
          "indexed": false,
          "internalType": "string",
          "name": "evidenceCID",
          "type": "string"
        },
        {
          "indexed": false,
          "internalType": "uint256",
          "name": "targetChainId",
          "type": "uint256"
        },
        {
          "indexed": false,
          "internalType": "uint256",
          "name": "timestamp",
          "type": "uint256"
        }
      ],
      "name": "CrossChainEvidenceShared",
      "type": "event"
    },
    {
      "anonymous": false,
      "inputs": [
        {
          "indexed": false,
          "internalType": "uint256",
          "name": "sourceChainId",
          "type": "uint256"
        },
        {
          "indexed": false,
          "internalType": "uint256",
          "name": "targetChainId",
          "type": "uint256"
        },
        {
          "indexed": false,
          "internalType": "bytes32",
          "name": "syncHash",
          "type": "bytes32"
        },
        {
          "indexed": false,
          "internalType": "uint256",
          "name": "timestamp",
          "type": "uint256"
        }
      ],
      "name": "CrossChainFLSync",
      "type": "event"
    },
    {
      "anonymous": false,
      "inputs": [
        {
          "indexed": true,
          "internalType": "uint256",
          "name": "tokenId",
          "type": "uint256"
        },
        {
          "indexed": false,
          "internalType": "uint256",
          "name": "targetChainId",
          "type": "uint256"
        },
        {
          "indexed": false,
          "internalType": "uint256",
          "name": "price",
          "type": "uint256"
        },
        {
          "indexed": false,
          "internalType": "bytes32",
          "name": "syncHash",
          "type": "bytes32"
        },
        {
          "indexed": false,
          "internalType": "uint256",
          "name": "timestamp",
          "type": "uint256"
        }
      ],
      "name": "CrossChainListingSync",
      "type": "event"
    },
    {
      "anonymous": false,
      "inputs": [
        {
          "indexed": true,
          "internalType": "address",
          "name": "node",
          "type": "address"
        },
        {
          "indexed": false,
          "internalType": "uint256",
          "name": "sourceChainId",
          "type": "uint256"
        },
        {
          "indexed": false,
          "internalType": "enum NodeManagement.Role",
          "name": "role",
          "type": "uint8"
        },
        {
          "indexed": false,
          "internalType": "enum NodeManagement.NodeType",
          "name": "nodeType",
          "type": "uint8"
        },
        {
          "indexed": false,
          "internalType": "uint256",
          "name": "timestamp",
          "type": "uint256"
        }
      ],
      "name": "CrossChainNodeRegistration",
      "type": "event"
    },
    {
      "anonymous": false,
      "inputs": [
        {
          "indexed": true,
          "internalType": "uint256",
          "name": "tokenId",
          "type": "uint256"
        },
        {
          "indexed": false,
          "internalType": "uint256[]",
          "name": "chainIds",
          "type": "uint256[]"
        },
        {
          "indexed": false,
          "internalType": "uint256[]",
          "name": "prices",
          "type": "uint256[]"
        },
        {
          "indexed": false,
          "internalType": "uint256",
          "name": "timestamp",
          "type": "uint256"
        }
      ],
      "name": "CrossChainPriceSync",
      "type": "event"
    },
    {
      "anonymous": false,
      "inputs": [
        {
          "indexed": true,
          "internalType": "address",
          "name": "node",
          "type": "address"
        },
        {
          "indexed": false,
          "internalType": "uint256",
          "name": "targetChainId",
          "type": "uint256"
        },
        {
          "indexed": false,
          "internalType": "uint256",
          "name": "reputation",
          "type": "uint256"
        },
        {
          "indexed": false,
          "internalType": "bytes32",
          "name": "syncHash",
          "type": "bytes32"
        },
        {
          "indexed": false,
          "internalType": "uint256",
          "name": "timestamp",
          "type": "uint256"
        }
      ],
      "name": "CrossChainReputationSync",
      "type": "event"
    },
    {
      "anonymous": false,
      "inputs": [
        {
          "indexed": true,
          "internalType": "uint256",
          "name": "tokenId",
          "type": "uint256"
        },
        {
          "indexed": false,
          "internalType": "uint256",
          "name": "sourceChainId",
          "type": "uint256"
        },
        {
          "indexed": false,
          "internalType": "uint256",
          "name": "targetChainId",
          "type": "uint256"
        },
        {
          "indexed": false,
          "internalType": "address",
          "name": "buyer",
          "type": "address"
        },
        {
          "indexed": false,
          "internalType": "address",
          "name": "seller",
          "type": "address"
        },
        {
          "indexed": false,
          "internalType": "uint256",
          "name": "price",
          "type": "uint256"
        },
        {
          "indexed": false,
          "internalType": "uint256",
          "name": "timestamp",
          "type": "uint256"
        }
      ],
      "name": "CrossChainTradeCompleted",
      "type": "event"
    },
    {
      "anonymous": false,
      "inputs": [
        {
          "indexed": true,
          "internalType": "uint256",
          "name": "tokenId",
          "type": "uint256"
        },
        {
          "indexed": false,
          "internalType": "uint256",
          "name": "sourceChainId",
          "type": "uint256"
        },
        {
          "indexed": false,
          "internalType": "bytes32",
          "name": "crossChainHash",
          "type": "bytes32"
        },
        {
          "indexed": false,
          "internalType": "uint256",
          "name": "timestamp",
          "type": "uint256"
        }
      ],
      "name": "CrossChainTransferCompleted",
      "type": "event"
    },
    {
      "anonymous": false,
      "inputs": [
        {
          "indexed": true,
          "internalType": "uint256",
          "name": "tokenId",
          "type": "uint256"
        },
        {
          "indexed": false,
          "internalType": "uint256",
          "name": "targetChainId",
          "type": "uint256"
        },
        {
          "indexed": false,
          "internalType": "address",
          "name": "targetAddress",
          "type": "address"
        },
        {
          "indexed": false,
          "internalType": "bytes32",
          "name": "crossChainHash",
          "type": "bytes32"
        },
        {
          "indexed": false,
          "internalType": "uint256",
          "name": "timestamp",
          "type": "uint256"
        }
      ],
      "name": "CrossChainTransferInitiated",
      "type": "event"
    },
    {
      "anonymous": false,
      "inputs": [
        {
          "indexed": true,
          "internalType": "uint256",
          "name": "tokenId",
          "type": "uint256"
        },
        {
          "indexed": true,
          "internalType": "address",
          "name": "seller",
          "type": "address"
        },
        {
          "indexed": true,
          "internalType": "address",
          "name": "buyer",
          "type": "address"
        },
        {
          "indexed": false,
          "internalType": "uint256",
          "name": "price",
          "type": "uint256"
        },
        {
          "indexed": false,
          "internalType": "string",
          "name": "oldCIDForVerification",
          "type": "string"
        }
      ],
      "name": "DirectSaleAndTransferCompleted",
      "type": "event"
    },
    {
      "anonymous": false,
      "inputs": [
        {
          "indexed": true,
          "internalType": "uint256",
          "name": "disputeId",
          "type": "uint256"
        },
        {
          "indexed": true,
          "internalType": "uint256",
          "name": "tokenId",
          "type": "uint256"
        },
        {
          "indexed": false,
          "internalType": "bool",
          "name": "wasEnforced",
          "type": "bool"
        },
        {
          "indexed": false,
          "internalType": "uint256",
          "name": "timestamp",
          "type": "uint256"
        }
      ],
      "name": "DisputeConcluded",
      "type": "event"
    },
    {
      "anonymous": false,
      "inputs": [
        {
          "indexed": true,
          "internalType": "uint256",
          "name": "disputeId",
          "type": "uint256"
        },
        {
          "indexed": true,
          "internalType": "address",
          "name": "arbitrator",
          "type": "address"
        },
        {
          "indexed": false,
          "internalType": "string",
          "name": "resolutionDetails",
          "type": "string"
        },
        {
          "indexed": false,
          "internalType": "uint8",
          "name": "outcome",
          "type": "uint8"
        },
        {
          "indexed": false,
          "internalType": "uint256",
          "name": "timestamp",
          "type": "uint256"
        }
      ],
      "name": "DisputeDecisionMade",
      "type": "event"
    },
    {
      "anonymous": false,
      "inputs": [
        {
          "indexed": true,
          "internalType": "uint256",
          "name": "disputeId",
          "type": "uint256"
        },
        {
          "indexed": true,
          "internalType": "uint256",
          "name": "tokenId",
          "type": "uint256"
        },
        {
          "indexed": true,
          "internalType": "address",
          "name": "arbitrator",
          "type": "address"
        },
        {
          "indexed": false,
          "internalType": "string",
          "name": "resolutionDetails",
          "type": "string"
        },
        {
          "indexed": false,
          "internalType": "string",
          "name": "resolutionDataString",
          "type": "string"
        },
        {
          "indexed": false,
          "internalType": "uint8",
          "name": "outcome",
          "type": "uint8"
        },
        {
          "indexed": false,
          "internalType": "uint256",
          "name": "timestamp",
          "type": "uint256"
        }
      ],
      "name": "DisputeDecisionRecorded",
      "type": "event"
    },
    {
      "anonymous": false,
      "inputs": [
        {
          "indexed": true,
          "internalType": "uint256",
          "name": "tokenId",
          "type": "uint256"
        },
        {
          "indexed": true,
          "internalType": "address",
          "name": "initiator",
          "type": "address"
        },
        {
          "indexed": false,
          "internalType": "address",
          "name": "currentOwner",
          "type": "address"
        },
        {
          "indexed": false,
          "internalType": "uint256",
          "name": "timestamp",
          "type": "uint256"
        }
      ],
      "name": "DisputeInitiated",
      "type": "event"
    },
    {
      "anonymous": false,
      "inputs": [
        {
          "indexed": true,
          "internalType": "uint256",
          "name": "disputeId",
          "type": "uint256"
        },
        {
          "indexed": true,
          "internalType": "uint256",
          "name": "tokenId",
          "type": "uint256"
        },
        {
          "indexed": true,
          "internalType": "address",
          "name": "plaintiff",
          "type": "address"
        },
        {
          "indexed": false,
          "internalType": "string",
          "name": "reason",
          "type": "string"
        },
        {
          "indexed": false,
          "internalType": "string",
          "name": "evidenceDataString",
          "type": "string"
        },
        {
          "indexed": false,
          "internalType": "uint256",
          "name": "chainId",
          "type": "uint256"
        },
        {
          "indexed": false,
          "internalType": "uint256",
          "name": "timestamp",
          "type": "uint256"
        }
      ],
      "name": "DisputeOpened",
      "type": "event"
    },
    {
      "anonymous": false,
      "inputs": [
        {
          "indexed": true,
          "internalType": "uint256",
          "name": "tokenId",
          "type": "uint256"
        },
        {
          "indexed": false,
          "internalType": "string",
          "name": "encryptedPayload",
          "type": "string"
        },
        {
          "indexed": false,
          "internalType": "uint256",
          "name": "timestamp",
          "type": "uint256"
        }
      ],
      "name": "DynamicQRGenerated",
      "type": "event"
    },
    {
      "anonymous": false,
      "inputs": [
        {
          "indexed": false,
          "internalType": "uint256",
          "name": "chainId",
          "type": "uint256"
        },
        {
          "indexed": false,
          "internalType": "uint256",
          "name": "timestamp",
          "type": "uint256"
        },
        {
          "indexed": false,
          "internalType": "string",
          "name": "modelHash",
          "type": "string"
        }
      ],
      "name": "FLModelUpdated",
      "type": "event"
    },
    {
      "anonymous": false,
      "inputs": [
        {
          "indexed": true,
          "internalType": "uint256",
          "name": "batchId",
          "type": "uint256"
        },
        {
          "indexed": false,
          "internalType": "uint256",
          "name": "anomalyScore",
          "type": "uint256"
        },
        {
          "indexed": false,
          "internalType": "bool",
          "name": "validated",
          "type": "bool"
        },
        {
          "indexed": false,
          "internalType": "uint256",
          "name": "timestamp",
          "type": "uint256"
        }
      ],
      "name": "FLValidationCompleted",
      "type": "event"
    },
    {
      "anonymous": false,
      "inputs": [
        {
          "indexed": true,
          "internalType": "address",
          "name": "depositor",
          "type": "address"
        },
        {
          "indexed": false,
          "internalType": "uint256",
          "name": "amount",
          "type": "uint256"
        }
      ],
      "name": "FundsDeposited",
      "type": "event"
    },
    {
      "anonymous": false,
      "inputs": [
        {
          "indexed": true,
          "internalType": "uint256",
          "name": "tokenId",
          "type": "uint256"
        },
        {
          "indexed": false,
          "internalType": "string",
          "name": "initialCID",
          "type": "string"
        },
        {
          "indexed": true,
          "internalType": "address",
          "name": "actor",
          "type": "address"
        },
        {
          "indexed": false,
          "internalType": "uint256",
          "name": "timestamp",
          "type": "uint256"
        }
      ],
      "name": "InitialCIDStored",
      "type": "event"
    },
    {
      "anonymous": false,
      "inputs": [
        {
          "indexed": false,
          "internalType": "uint256",
          "name": "chainId",
          "type": "uint256"
        },
        {
          "indexed": false,
          "internalType": "uint256",
          "name": "anomalyScore",
          "type": "uint256"
        },
        {
          "indexed": false,
          "internalType": "string",
          "name": "reason",
          "type": "string"
        },
        {
          "indexed": false,
          "internalType": "uint256",
          "name": "timestamp",
          "type": "uint256"
        }
      ],
      "name": "MarketAnomalyDetected",
      "type": "event"
    },
    {
      "anonymous": false,
      "inputs": [
        {
          "indexed": false,
          "internalType": "uint256",
          "name": "_tokenId",
          "type": "uint256"
        }
      ],
      "name": "MetadataUpdate",
      "type": "event"
    },
    {
      "anonymous": false,
      "inputs": [
        {
          "indexed": true,
          "internalType": "uint256",
          "name": "disputeId",
          "type": "uint256"
        },
        {
          "indexed": true,
          "internalType": "uint256",
          "name": "tokenId",
          "type": "uint256"
        },
        {
          "indexed": true,
          "internalType": "address",
          "name": "arbitrator",
          "type": "address"
        },
        {
          "indexed": false,
          "internalType": "address",
          "name": "from",
          "type": "address"
        },
        {
          "indexed": false,
          "internalType": "address",
          "name": "to",
          "type": "address"
        },
        {
          "indexed": false,
          "internalType": "uint256",
          "name": "timestamp",
          "type": "uint256"
        }
      ],
      "name": "NFTReturnEnforced",
      "type": "event"
    },
    {
      "anonymous": false,
      "inputs": [
        {
          "indexed": true,
          "internalType": "address",
          "name": "node",
          "type": "address"
        },
        {
          "indexed": false,
          "internalType": "uint256",
          "name": "newReputation",
          "type": "uint256"
        },
        {
          "indexed": false,
          "internalType": "uint256",
          "name": "penaltyAmount",
          "type": "uint256"
        },
        {
          "indexed": true,
          "internalType": "address",
          "name": "actor",
          "type": "address"
        },
        {
          "indexed": false,
          "internalType": "string",
          "name": "reason",
          "type": "string"
        },
        {
          "indexed": false,
          "internalType": "uint256",
          "name": "timestamp",
          "type": "uint256"
        }
      ],
      "name": "NodePenalized",
      "type": "event"
    },
    {
      "anonymous": false,
      "inputs": [
        {
          "indexed": true,
          "internalType": "address",
          "name": "node",
          "type": "address"
        },
        {
          "indexed": false,
          "internalType": "enum NodeManagement.Role",
          "name": "oldRole",
          "type": "uint8"
        },
        {
          "indexed": false,
          "internalType": "enum NodeManagement.Role",
          "name": "newRole",
          "type": "uint8"
        },
        {
          "indexed": true,
          "internalType": "address",
          "name": "actor",
          "type": "address"
        },
        {
          "indexed": false,
          "internalType": "uint256",
          "name": "timestamp",
          "type": "uint256"
        }
      ],
      "name": "NodeRoleChanged",
      "type": "event"
    },
    {
      "anonymous": false,
      "inputs": [
        {
          "indexed": true,
          "internalType": "address",
          "name": "node",
          "type": "address"
        },
        {
          "indexed": false,
          "internalType": "enum NodeManagement.NodeType",
          "name": "oldType",
          "type": "uint8"
        },
        {
          "indexed": false,
          "internalType": "enum NodeManagement.NodeType",
          "name": "newType",
          "type": "uint8"
        },
        {
          "indexed": true,
          "internalType": "address",
          "name": "actor",
          "type": "address"
        },
        {
          "indexed": false,
          "internalType": "uint256",
          "name": "timestamp",
          "type": "uint256"
        }
      ],
      "name": "NodeTypeChanged",
      "type": "event"
    },
    {
      "anonymous": false,
      "inputs": [
        {
          "indexed": true,
          "internalType": "address",
          "name": "node",
          "type": "address"
        },
        {
          "indexed": false,
          "internalType": "bool",
          "name": "status",
          "type": "bool"
        },
        {
          "indexed": false,
          "internalType": "uint256",
          "name": "chainId",
          "type": "uint256"
        },
        {
          "indexed": false,
          "internalType": "uint256",
          "name": "timestamp",
          "type": "uint256"
        }
      ],
      "name": "NodeVerified",
      "type": "event"
    },
    {
      "anonymous": false,
      "inputs": [
        {
          "indexed": true,
          "internalType": "address",
          "name": "previousOwner",
          "type": "address"
        },
        {
          "indexed": true,
          "internalType": "address",
          "name": "newOwner",
          "type": "address"
        }
      ],
      "name": "OwnershipTransferred",
      "type": "event"
    },
    {
      "anonymous": false,
      "inputs": [
        {
          "indexed": true,
          "internalType": "uint256",
          "name": "tokenId",
          "type": "uint256"
        },
        {
          "indexed": true,
          "internalType": "address",
          "name": "buyer",
          "type": "address"
        },
        {
          "indexed": true,
          "internalType": "address",
          "name": "seller",
          "type": "address"
        },
        {
          "indexed": false,
          "internalType": "uint256",
          "name": "price",
          "type": "uint256"
        },
        {
          "indexed": false,
          "internalType": "uint256",
          "name": "timestamp",
          "type": "uint256"
        }
      ],
      "name": "PaymentAndTransferCompleted",
      "type": "event"
    },
    {
      "anonymous": false,
      "inputs": [
        {
          "indexed": true,
          "internalType": "uint256",
          "name": "tokenId",
          "type": "uint256"
        },
        {
          "indexed": true,
          "internalType": "address",
          "name": "seller",
          "type": "address"
        },
        {
          "indexed": false,
          "internalType": "uint256",
          "name": "amount",
          "type": "uint256"
        },
        {
          "indexed": false,
          "internalType": "uint256",
          "name": "timestamp",
          "type": "uint256"
        }
      ],
      "name": "PaymentReleased",
      "type": "event"
    },
    {
      "anonymous": false,
      "inputs": [
        {
          "indexed": false,
          "internalType": "uint256",
          "name": "tokenId",
          "type": "uint256"
        }
      ],
      "name": "PaymentSuspended",
      "type": "event"
    },
    {
      "anonymous": false,
      "inputs": [
        {
          "indexed": true,
          "internalType": "uint256",
          "name": "tokenId",
          "type": "uint256"
        },
        {
          "indexed": true,
          "internalType": "address",
          "name": "seller",
          "type": "address"
        },
        {
          "indexed": false,
          "internalType": "uint256",
          "name": "timestamp",
          "type": "uint256"
        }
      ],
      "name": "ProductDelisted",
      "type": "event"
    },
    {
      "anonymous": false,
      "inputs": [
        {
          "indexed": true,
          "internalType": "uint256",
          "name": "tokenId",
          "type": "uint256"
        },
        {
          "indexed": true,
          "internalType": "address",
          "name": "seller",
          "type": "address"
        },
        {
          "indexed": false,
          "internalType": "uint256",
          "name": "price",
          "type": "uint256"
        },
        {
          "indexed": false,
          "internalType": "uint256",
          "name": "chainId",
          "type": "uint256"
        },
        {
          "indexed": false,
          "internalType": "uint256",
          "name": "timestamp",
          "type": "uint256"
        }
      ],
      "name": "ProductListedForSale",
      "type": "event"
    },
    {
      "anonymous": false,
      "inputs": [
        {
          "indexed": true,
          "internalType": "uint256",
          "name": "tokenId",
          "type": "uint256"
        },
        {
          "indexed": true,
          "internalType": "address",
          "name": "owner",
          "type": "address"
        },
        {
          "indexed": false,
          "internalType": "string",
          "name": "uniqueProductID",
          "type": "string"
        },
        {
          "indexed": false,
          "internalType": "string",
          "name": "batchNumber",
          "type": "string"
        },
        {
          "indexed": false,
          "internalType": "string",
          "name": "manufacturingDate",
          "type": "string"
        },
        {
          "indexed": false,
          "internalType": "uint256",
          "name": "sourceChainId",
          "type": "uint256"
        },
        {
          "indexed": false,
          "internalType": "uint256",
          "name": "timestamp",
          "type": "uint256"
        }
      ],
      "name": "ProductMinted",
      "type": "event"
    },
    {
      "anonymous": false,
      "inputs": [
        {
          "indexed": true,
          "internalType": "uint256",
          "name": "tokenId",
          "type": "uint256"
        },
        {
          "indexed": true,
          "internalType": "address",
          "name": "seller",
          "type": "address"
        },
        {
          "indexed": false,
          "internalType": "uint256",
          "name": "oldPrice",
          "type": "uint256"
        },
        {
          "indexed": false,
          "internalType": "uint256",
          "name": "newPrice",
          "type": "uint256"
        },
        {
          "indexed": false,
          "internalType": "uint256",
          "name": "timestamp",
          "type": "uint256"
        }
      ],
      "name": "ProductPriceChanged",
      "type": "event"
    },
    {
      "anonymous": false,
      "inputs": [
        {
          "indexed": true,
          "internalType": "uint256",
          "name": "tokenId",
          "type": "uint256"
        },
        {
          "indexed": true,
          "internalType": "address",
          "name": "from",
          "type": "address"
        },
        {
          "indexed": true,
          "internalType": "address",
          "name": "to",
          "type": "address"
        },
        {
          "indexed": false,
          "internalType": "uint256",
          "name": "timestamp",
          "type": "uint256"
        }
      ],
      "name": "ProductTransferred",
      "type": "event"
    },
    {
      "anonymous": false,
      "inputs": [
        {
          "indexed": true,
          "internalType": "uint256",
          "name": "tokenId",
          "type": "uint256"
        },
        {
          "indexed": true,
          "internalType": "address",
          "name": "buyer",
          "type": "address"
        },
        {
          "indexed": true,
          "internalType": "address",
          "name": "seller",
          "type": "address"
        },
        {
          "indexed": false,
          "internalType": "uint256",
          "name": "price",
          "type": "uint256"
        },
        {
          "indexed": false,
          "internalType": "uint256",
          "name": "timestamp",
          "type": "uint256"
        }
      ],
      "name": "PurchaseCompleted",
      "type": "event"
    },
    {
      "anonymous": false,
      "inputs": [
        {
          "indexed": true,
          "internalType": "uint256",
          "name": "tokenId",
          "type": "uint256"
        },
        {
          "indexed": true,
          "internalType": "address",
          "name": "buyer",
          "type": "address"
        },
        {
          "indexed": true,
          "internalType": "address",
          "name": "seller",
          "type": "address"
        },
        {
          "indexed": false,
          "internalType": "uint256",
          "name": "price",
          "type": "uint256"
        },
        {
          "indexed": false,
          "internalType": "uint256",
          "name": "timestamp",
          "type": "uint256"
        }
      ],
      "name": "PurchaseInitiated",
      "type": "event"
    },
    {
      "anonymous": false,
      "inputs": [
        {
          "indexed": true,
          "internalType": "uint256",
          "name": "tokenId",
          "type": "uint256"
        },
        {
          "indexed": false,
          "internalType": "enum NFTCore.PurchaseStatus",
          "name": "oldStatus",
          "type": "uint8"
        },
        {
          "indexed": false,
          "internalType": "enum NFTCore.PurchaseStatus",
          "name": "newStatus",
          "type": "uint8"
        },
        {
          "indexed": true,
          "internalType": "address",
          "name": "actor",
          "type": "address"
        },
        {
          "indexed": false,
          "internalType": "uint256",
          "name": "timestamp",
          "type": "uint256"
        }
      ],
      "name": "PurchaseStatusUpdated",
      "type": "event"
    },
    {
      "anonymous": false,
      "inputs": [
        {
          "indexed": true,
          "internalType": "uint256",
          "name": "tokenId",
          "type": "uint256"
        },
        {
          "indexed": true,
          "internalType": "address",
          "name": "confirmer",
          "type": "address"
        },
        {
          "indexed": false,
          "internalType": "uint256",
          "name": "timestamp",
          "type": "uint256"
        }
      ],
      "name": "ReceiptConfirmed",
      "type": "event"
    },
    {
      "anonymous": false,
      "inputs": [
        {
          "indexed": false,
          "internalType": "uint256",
          "name": "reconciledCount",
          "type": "uint256"
        }
      ],
      "name": "ReconciliationComplete",
      "type": "event"
    },
    {
      "anonymous": false,
      "inputs": [
        {
          "indexed": true,
          "internalType": "uint256",
          "name": "disputeId",
          "type": "uint256"
        },
        {
          "indexed": false,
          "internalType": "address",
          "name": "arbitrator",
          "type": "address"
        },
        {
          "indexed": true,
          "internalType": "address",
          "name": "refundFrom",
          "type": "address"
        },
        {
          "indexed": true,
          "internalType": "address",
          "name": "refundTo",
          "type": "address"
        },
        {
          "indexed": false,
          "internalType": "uint256",
          "name": "amount",
          "type": "uint256"
        },
        {
          "indexed": false,
          "internalType": "uint256",
          "name": "timestamp",
          "type": "uint256"
        }
      ],
      "name": "RefundEnforced",
      "type": "event"
    },
    {
      "anonymous": false,
      "inputs": [
        {
          "indexed": true,
          "internalType": "address",
          "name": "node",
          "type": "address"
        },
        {
          "indexed": false,
          "internalType": "uint256",
          "name": "newReputation",
          "type": "uint256"
        },
        {
          "indexed": false,
          "internalType": "int256",
          "name": "changeAmount",
          "type": "int256"
        },
        {
          "indexed": true,
          "internalType": "address",
          "name": "actor",
          "type": "address"
        },
        {
          "indexed": false,
          "internalType": "string",
          "name": "reason",
          "type": "string"
        },
        {
          "indexed": false,
          "internalType": "uint256",
          "name": "timestamp",
          "type": "uint256"
        }
      ],
      "name": "ReputationUpdated",
      "type": "event"
    },
    {
      "anonymous": false,
      "inputs": [
        {
          "indexed": true,
          "internalType": "bytes32",
          "name": "role",
          "type": "bytes32"
        },
        {
          "indexed": true,
          "internalType": "bytes32",
          "name": "previousAdminRole",
          "type": "bytes32"
        },
        {
          "indexed": true,
          "internalType": "bytes32",
          "name": "newAdminRole",
          "type": "bytes32"
        }
      ],
      "name": "RoleAdminChanged",
      "type": "event"
    },
    {
      "anonymous": false,
      "inputs": [
        {
          "indexed": true,
          "internalType": "bytes32",
          "name": "role",
          "type": "bytes32"
        },
        {
          "indexed": true,
          "internalType": "address",
          "name": "account",
          "type": "address"
        },
        {
          "indexed": true,
          "internalType": "address",
          "name": "sender",
          "type": "address"
        }
      ],
      "name": "RoleGranted",
      "type": "event"
    },
    {
      "anonymous": false,
      "inputs": [
        {
          "indexed": true,
          "internalType": "bytes32",
          "name": "role",
          "type": "bytes32"
        },
        {
          "indexed": true,
          "internalType": "address",
          "name": "account",
          "type": "address"
        },
        {
          "indexed": true,
          "internalType": "address",
          "name": "sender",
          "type": "address"
        }
      ],
      "name": "RoleRevoked",
      "type": "event"
    },
    {
      "anonymous": false,
      "inputs": [
        {
          "indexed": true,
          "internalType": "address",
          "name": "from",
          "type": "address"
        },
        {
          "indexed": true,
          "internalType": "address",
          "name": "to",
          "type": "address"
        },
        {
          "indexed": true,
          "internalType": "uint256",
          "name": "tokenId",
          "type": "uint256"
        }
      ],
      "name": "Transfer",
      "type": "event"
    },
    {
      "anonymous": false,
      "inputs": [
        {
          "indexed": true,
          "internalType": "uint256",
          "name": "tokenId",
          "type": "uint256"
        },
        {
          "indexed": true,
          "internalType": "address",
          "name": "completer",
          "type": "address"
        },
        {
          "indexed": false,
          "internalType": "uint256",
          "name": "timestamp",
          "type": "uint256"
        }
      ],
      "name": "TransportCompleted",
      "type": "event"
    },
    {
      "anonymous": false,
      "inputs": [
        {
          "indexed": true,
          "internalType": "uint256",
          "name": "tokenId",
          "type": "uint256"
        },
        {
          "indexed": true,
          "internalType": "address",
          "name": "owner",
          "type": "address"
        },
        {
          "indexed": false,
          "internalType": "address[]",
          "name": "transporters",
          "type": "address[]"
        },
        {
          "indexed": false,
          "internalType": "string",
          "name": "startLocation",
          "type": "string"
        },
        {
          "indexed": false,
          "internalType": "string",
          "name": "endLocation",
          "type": "string"
        },
        {
          "indexed": false,
          "internalType": "uint256",
          "name": "distance",
          "type": "uint256"
        },
        {
          "indexed": false,
          "internalType": "uint256",
          "name": "timestamp",
          "type": "uint256"
        }
      ],
      "name": "TransportStarted",
      "type": "event"
    },
    {
      "anonymous": false,
      "inputs": [
        {
          "indexed": true,
          "internalType": "uint256",
          "name": "tokenId",
          "type": "uint256"
        },
        {
          "indexed": true,
          "internalType": "address",
          "name": "transporter",
          "type": "address"
        },
        {
          "indexed": false,
          "internalType": "uint256",
          "name": "amount",
          "type": "uint256"
        },
        {
          "indexed": false,
          "internalType": "uint256",
          "name": "timestamp",
          "type": "uint256"
        }
      ],
      "name": "TransporterIncentivePaid",
      "type": "event"
    },
    {
      "stateMutability": "payable",
      "type": "fallback"
    },
    {
      "inputs": [],
      "name": "CROSS_CHAIN_ROLE",
      "outputs": [
        {
          "internalType": "bytes32",
          "name": "",
          "type": "bytes32"
        }
      ],
      "stateMutability": "view",
      "type": "function"
    },
    {
      "inputs": [],
      "name": "DEFAULT_ADMIN_ROLE",
      "outputs": [
        {
          "internalType": "bytes32",
          "name": "",
          "type": "bytes32"
        }
      ],
      "stateMutability": "view",
      "type": "function"
    },
    {
      "inputs": [],
      "name": "MINTER_ROLE",
      "outputs": [
        {
          "internalType": "bytes32",
          "name": "",
          "type": "bytes32"
        }
      ],
      "stateMutability": "view",
      "type": "function"
    },
    {
      "inputs": [],
      "name": "UPDATER_ROLE",
      "outputs": [
        {
          "internalType": "bytes32",
          "name": "",
          "type": "bytes32"
        }
      ],
      "stateMutability": "view",
      "type": "function"
    },
    {
      "inputs": [
        {
          "internalType": "uint256",
          "name": "",
          "type": "uint256"
        }
      ],
      "name": "activeDisputeIdForToken",
      "outputs": [
        {
          "internalType": "uint256",
          "name": "",
          "type": "uint256"
        }
      ],
      "stateMutability": "view",
      "type": "function"
    },
    {
      "inputs": [
        {
          "internalType": "address",
          "name": "node",
          "type": "address"
        },
        {
          "internalType": "uint256",
          "name": "penalty",
          "type": "uint256"
        }
      ],
      "name": "adminPenalizeNode",
      "outputs": [],
      "stateMutability": "nonpayable",
      "type": "function"
    },
    {
      "inputs": [
        {
          "internalType": "address",
          "name": "node",
          "type": "address"
        },
        {
          "internalType": "uint256",
          "name": "score",
          "type": "uint256"
        }
      ],
      "name": "adminUpdateReputation",
      "outputs": [],
      "stateMutability": "nonpayable",
      "type": "function"
    },
    {
      "inputs": [
        {
          "internalType": "uint256",
          "name": "",
          "type": "uint256"
        }
      ],
      "name": "allNodes",
      "outputs": [
        {
          "internalType": "address",
          "name": "",
          "type": "address"
        }
      ],
      "stateMutability": "view",
      "type": "function"
    },
    {
      "inputs": [
        {
          "internalType": "address",
          "name": "to",
          "type": "address"
        },
        {
          "internalType": "uint256",
          "name": "tokenId",
          "type": "uint256"
        }
      ],
      "name": "approve",
      "outputs": [],
      "stateMutability": "nonpayable",
      "type": "function"
    },
    {
      "inputs": [
        {
          "internalType": "address",
          "name": "owner",
          "type": "address"
        }
      ],
      "name": "balanceOf",
      "outputs": [
        {
          "internalType": "uint256",
          "name": "",
          "type": "uint256"
        }
      ],
      "stateMutability": "view",
      "type": "function"
    },
    {
      "inputs": [
        {
          "internalType": "uint256",
          "name": "",
          "type": "uint256"
        }
      ],
      "name": "batchApprovals",
      "outputs": [
        {
          "internalType": "uint256",
          "name": "",
          "type": "uint256"
        }
      ],
      "stateMutability": "view",
      "type": "function"
    },
    {
      "inputs": [
        {
          "internalType": "uint256",
          "name": "",
          "type": "uint256"
        }
      ],
      "name": "batchDenials",
      "outputs": [
        {
          "internalType": "uint256",
          "name": "",
          "type": "uint256"
        }
      ],
      "stateMutability": "view",
      "type": "function"
    },
    {
      "inputs": [
        {
          "internalType": "uint256",
          "name": "",
          "type": "uint256"
        }
      ],
      "name": "batchMetrics",
      "outputs": [
        {
          "internalType": "uint256",
          "name": "batchId",
          "type": "uint256"
        },
        {
          "internalType": "uint256",
          "name": "processingTime",
          "type": "uint256"
        },
        {
          "internalType": "uint256",
          "name": "validatorPerformance",
          "type": "uint256"
        },
        {
          "internalType": "uint256",
          "name": "anomalyScore",
          "type": "uint256"
        },
        {
          "internalType": "bool",
          "name": "flValidated",
          "type": "bool"
        }
      ],
      "stateMutability": "view",
      "type": "function"
    },
    {
      "inputs": [
        {
          "internalType": "uint256",
          "name": "",
          "type": "uint256"
        },
        {
          "internalType": "address",
          "name": "",
          "type": "address"
        }
      ],
      "name": "batchVotes",
      "outputs": [
        {
          "internalType": "uint8",
          "name": "",
          "type": "uint8"
        }
      ],
      "stateMutability": "view",
      "type": "function"
    },
    {
      "inputs": [
        {
          "internalType": "uint256",
          "name": "",
          "type": "uint256"
        }
      ],
      "name": "batches",
      "outputs": [
        {
          "internalType": "uint256",
          "name": "batchId",
          "type": "uint256"
        },
        {
          "internalType": "bool",
          "name": "validated",
          "type": "bool"
        },
        {
          "internalType": "bool",
          "name": "committed",
          "type": "bool"
        },
        {
          "internalType": "address",
          "name": "proposer",
          "type": "address"
        },
        {
          "internalType": "bool",
          "name": "flagged",
          "type": "bool"
        },
        {
          "internalType": "uint256",
          "name": "numSelectedValidators",
          "type": "uint256"
        },
        {
          "internalType": "uint256",
          "name": "chainId",
          "type": "uint256"
        },
        {
          "internalType": "bytes32",
          "name": "crossChainHash",
          "type": "bytes32"
        },
        {
          "internalType": "bool",
          "name": "isCrossChain",
          "type": "bool"
        }
      ],
      "stateMutability": "view",
      "type": "function"
    },
    {
      "inputs": [
        {
          "internalType": "uint256",
          "name": "",
          "type": "uint256"
        }
      ],
      "name": "chainFLMetrics",
      "outputs": [
        {
          "internalType": "uint256",
          "name": "totalTransactions",
          "type": "uint256"
        },
        {
          "internalType": "uint256",
          "name": "flaggedTransactions",
          "type": "uint256"
        },
        {
          "internalType": "uint256",
          "name": "averageAnomalyScore",
          "type": "uint256"
        },
        {
          "internalType": "uint256",
          "name": "lastModelUpdate",
          "type": "uint256"
        }
      ],
      "stateMutability": "view",
      "type": "function"
    },
    {
      "inputs": [
        {
          "internalType": "uint256",
          "name": "",
          "type": "uint256"
        }
      ],
      "name": "chainMarketMetrics",
      "outputs": [
        {
          "internalType": "uint256",
          "name": "totalVolume",
          "type": "uint256"
        },
        {
          "internalType": "uint256",
          "name": "averagePrice",
          "type": "uint256"
        },
        {
          "internalType": "uint256",
          "name": "anomalyScore",
          "type": "uint256"
        },
        {
          "internalType": "uint256",
          "name": "lastUpdated",
          "type": "uint256"
        }
      ],
      "stateMutability": "view",
      "type": "function"
    },
    {
      "inputs": [
        {
          "internalType": "uint256",
          "name": "tokenId",
          "type": "uint256"
        },
        {
          "internalType": "uint256",
          "name": "newPrice",
          "type": "uint256"
        }
      ],
      "name": "changeProductPrice",
      "outputs": [],
      "stateMutability": "nonpayable",
      "type": "function"
    },
    {
      "inputs": [
        {
          "internalType": "uint256",
          "name": "",
          "type": "uint256"
        }
      ],
      "name": "cidMapping",
      "outputs": [
        {
          "internalType": "string",
          "name": "",
          "type": "string"
        }
      ],
      "stateMutability": "view",
      "type": "function"
    },
    {
      "inputs": [
        {
          "internalType": "uint256",
          "name": "batchId",
          "type": "uint256"
        }
      ],
      "name": "commitBatch",
      "outputs": [],
      "stateMutability": "nonpayable",
      "type": "function"
    },
    {
      "inputs": [
        {
          "internalType": "uint256",
          "name": "tokenId",
          "type": "uint256"
        },
        {
          "internalType": "uint256",
          "name": "sourceChainId",
          "type": "uint256"
        },
        {
          "internalType": "bytes32",
          "name": "crossChainHash",
          "type": "bytes32"
        },
        {
          "internalType": "address",
          "name": "newOwner",
          "type": "address"
        }
      ],
      "name": "completeCrossChainTransfer",
      "outputs": [],
      "stateMutability": "nonpayable",
      "type": "function"
    },
    {
      "inputs": [
        {
          "internalType": "uint256",
          "name": "tokenId",
          "type": "uint256"
        }
      ],
      "name": "completeTransport",
      "outputs": [],
      "stateMutability": "nonpayable",
      "type": "function"
    },
    {
      "inputs": [
        {
          "internalType": "uint256",
          "name": "disputeId",
          "type": "uint256"
        }
      ],
      "name": "concludeDispute",
      "outputs": [],
      "stateMutability": "nonpayable",
      "type": "function"
    },
    {
      "inputs": [
        {
          "internalType": "uint256",
          "name": "tokenId",
          "type": "uint256"
        },
        {
          "internalType": "bool",
          "name": "meetsIncentiveCriteria",
          "type": "bool"
        }
      ],
      "name": "confirmDeliveryAndFinalize",
      "outputs": [],
      "stateMutability": "nonpayable",
      "type": "function"
    },
    {
      "inputs": [
        {
          "internalType": "uint256",
          "name": "tokenId",
          "type": "uint256"
        }
      ],
      "name": "confirmReceipt",
      "outputs": [],
      "stateMutability": "nonpayable",
      "type": "function"
    },
    {
      "inputs": [
        {
          "internalType": "bytes32",
          "name": "",
          "type": "bytes32"
        }
      ],
      "name": "crossChainHashes",
      "outputs": [
        {
          "internalType": "bool",
          "name": "",
          "type": "bool"
        }
      ],
      "stateMutability": "view",
      "type": "function"
    },
    {
      "inputs": [
        {
          "internalType": "address",
          "name": "",
          "type": "address"
        },
        {
          "internalType": "uint256",
          "name": "",
          "type": "uint256"
        }
      ],
      "name": "crossChainReputation",
      "outputs": [
        {
          "internalType": "uint256",
          "name": "",
          "type": "uint256"
        }
      ],
      "stateMutability": "view",
      "type": "function"
    },
    {
      "inputs": [
        {
          "internalType": "uint256",
          "name": "tokenId",
          "type": "uint256"
        }
      ],
      "name": "delistProduct",
      "outputs": [],
      "stateMutability": "nonpayable",
      "type": "function"
    },
    {
      "inputs": [],
      "name": "depositDisputeFunds",
      "outputs": [],
      "stateMutability": "payable",
      "type": "function"
    },
    {
      "inputs": [
        {
          "internalType": "uint256",
          "name": "tokenId",
          "type": "uint256"
        }
      ],
      "name": "depositPurchaseCollateral",
      "outputs": [],
      "stateMutability": "payable",
      "type": "function"
    },
    {
      "inputs": [
        {
          "internalType": "uint256",
          "name": "",
          "type": "uint256"
        },
        {
          "internalType": "uint256",
          "name": "",
          "type": "uint256"
        }
      ],
      "name": "disputeChains",
      "outputs": [
        {
          "internalType": "uint256",
          "name": "",
          "type": "uint256"
        }
      ],
      "stateMutability": "view",
      "type": "function"
    },
    {
      "inputs": [
        {
          "internalType": "uint256",
          "name": "",
          "type": "uint256"
        }
      ],
      "name": "disputesData",
      "outputs": [
        {
          "internalType": "uint256",
          "name": "tokenId",
          "type": "uint256"
        },
        {
          "internalType": "address",
          "name": "plaintiff",
          "type": "address"
        },
        {
          "internalType": "address",
          "name": "defendant",
          "type": "address"
        },
        {
          "internalType": "string",
          "name": "reason",
          "type": "string"
        },
        {
          "internalType": "string",
          "name": "evidenceCID",
          "type": "string"
        },
        {
          "internalType": "address",
          "name": "selectedArbitrator",
          "type": "address"
        },
        {
          "internalType": "bool",
          "name": "decisionRecorded",
          "type": "bool"
        },
        {
          "internalType": "string",
          "name": "resolutionDetails",
          "type": "string"
        },
        {
          "internalType": "string",
          "name": "resolutionCID",
          "type": "string"
        },
        {
          "internalType": "uint8",
          "name": "outcome",
          "type": "uint8"
        },
        {
          "internalType": "bool",
          "name": "nftReturnEnforced",
          "type": "bool"
        },
        {
          "internalType": "bool",
          "name": "refundEnforced",
          "type": "bool"
        },
        {
          "internalType": "bool",
          "name": "enforced",
          "type": "bool"
        },
        {
          "internalType": "uint256",
          "name": "openedTimestamp",
          "type": "uint256"
        },
        {
          "internalType": "uint256",
          "name": "decisionTimestamp",
          "type": "uint256"
        },
        {
          "internalType": "uint256",
          "name": "enforcedTimestamp",
          "type": "uint256"
        },
        {
          "internalType": "uint256",
          "name": "chainId",
          "type": "uint256"
        },
        {
          "internalType": "bytes32",
          "name": "crossChainHash",
          "type": "bytes32"
        }
      ],
      "stateMutability": "view",
      "type": "function"
    },
    {
      "inputs": [
        {
          "internalType": "uint256",
          "name": "disputeId",
          "type": "uint256"
        },
        {
          "internalType": "address",
          "name": "returnToAddress",
          "type": "address"
        }
      ],
      "name": "enforceNFTReturn",
      "outputs": [],
      "stateMutability": "nonpayable",
      "type": "function"
    },
    {
      "inputs": [
        {
          "internalType": "uint256",
          "name": "disputeId",
          "type": "uint256"
        },
        {
          "internalType": "address",
          "name": "refundTo",
          "type": "address"
        },
        {
          "internalType": "address",
          "name": "refundFrom",
          "type": "address"
        },
        {
          "internalType": "uint256",
          "name": "refundAmount",
          "type": "uint256"
        }
      ],
      "name": "enforceRefund",
      "outputs": [],
      "stateMutability": "nonpayable",
      "type": "function"
    },
    {
      "inputs": [],
      "name": "flAnomalyThreshold",
      "outputs": [
        {
          "internalType": "uint256",
          "name": "",
          "type": "uint256"
        }
      ],
      "stateMutability": "view",
      "type": "function"
    },
    {
      "inputs": [
        {
          "internalType": "uint256",
          "name": "tokenId",
          "type": "uint256"
        },
        {
          "internalType": "string",
          "name": "encryptedPayload",
          "type": "string"
        }
      ],
      "name": "generateDynamicQR",
      "outputs": [],
      "stateMutability": "nonpayable",
      "type": "function"
    },
    {
      "inputs": [],
      "name": "getAllVerifiedNodes",
      "outputs": [
        {
          "internalType": "address[]",
          "name": "",
          "type": "address[]"
        }
      ],
      "stateMutability": "view",
      "type": "function"
    },
    {
      "inputs": [
        {
          "internalType": "uint256",
          "name": "tokenId",
          "type": "uint256"
        }
      ],
      "name": "getApproved",
      "outputs": [
        {
          "internalType": "address",
          "name": "",
          "type": "address"
        }
      ],
      "stateMutability": "view",
      "type": "function"
    },
    {
      "inputs": [
        {
          "internalType": "uint256",
          "name": "batchId",
          "type": "uint256"
        }
      ],
      "name": "getBatchDetails",
      "outputs": [
        {
          "components": [
            {
              "internalType": "uint256",
              "name": "batchId",
              "type": "uint256"
            },
            {
              "components": [
                {
                  "internalType": "address",
                  "name": "from",
                  "type": "address"
                },
                {
                  "internalType": "address",
                  "name": "to",
                  "type": "address"
                },
                {
                  "internalType": "uint256",
                  "name": "tokenId",
                  "type": "uint256"
                },
                {
                  "internalType": "uint256",
                  "name": "chainId",
                  "type": "uint256"
                }
              ],
              "internalType": "struct BatchProcessing.TransactionData[]",
              "name": "transactions",
              "type": "tuple[]"
            },
            {
              "internalType": "bool",
              "name": "validated",
              "type": "bool"
            },
            {
              "internalType": "bool",
              "name": "committed",
              "type": "bool"
            },
            {
              "internalType": "address",
              "name": "proposer",
              "type": "address"
            },
            {
              "internalType": "bool",
              "name": "flagged",
              "type": "bool"
            },
            {
              "internalType": "address[]",
              "name": "selectedValidators",
              "type": "address[]"
            },
            {
              "internalType": "uint256",
              "name": "numSelectedValidators",
              "type": "uint256"
            },
            {
              "internalType": "uint256",
              "name": "chainId",
              "type": "uint256"
            },
            {
              "internalType": "bytes32",
              "name": "crossChainHash",
              "type": "bytes32"
            },
            {
              "internalType": "bool",
              "name": "isCrossChain",
              "type": "bool"
            }
          ],
          "internalType": "struct BatchProcessing.Batch",
          "name": "",
          "type": "tuple"
        }
      ],
      "stateMutability": "view",
      "type": "function"
    },
    {
      "inputs": [
        {
          "internalType": "uint256",
          "name": "batchId",
          "type": "uint256"
        }
      ],
      "name": "getBatchMetrics",
      "outputs": [
        {
          "components": [
            {
              "internalType": "uint256",
              "name": "batchId",
              "type": "uint256"
            },
            {
              "internalType": "uint256",
              "name": "processingTime",
              "type": "uint256"
            },
            {
              "internalType": "uint256",
              "name": "validatorPerformance",
              "type": "uint256"
            },
            {
              "internalType": "uint256",
              "name": "anomalyScore",
              "type": "uint256"
            },
            {
              "internalType": "bool",
              "name": "flValidated",
              "type": "bool"
            }
          ],
          "internalType": "struct BatchProcessing.BatchMetrics",
          "name": "",
          "type": "tuple"
        }
      ],
      "stateMutability": "view",
      "type": "function"
    },
    {
      "inputs": [
        {
          "internalType": "uint256",
          "name": "tokenId",
          "type": "uint256"
        }
      ],
      "name": "getCrossChainListingStatus",
      "outputs": [
        {
          "internalType": "uint256",
          "name": "chainId",
          "type": "uint256"
        },
        {
          "internalType": "uint256",
          "name": "price",
          "type": "uint256"
        }
      ],
      "stateMutability": "view",
      "type": "function"
    },
    {
      "inputs": [
        {
          "internalType": "uint256",
          "name": "disputeId",
          "type": "uint256"
        }
      ],
      "name": "getDisputeChains",
      "outputs": [
        {
          "internalType": "uint256[]",
          "name": "",
          "type": "uint256[]"
        }
      ],
      "stateMutability": "view",
      "type": "function"
    },
    {
      "inputs": [
        {
          "internalType": "uint256",
          "name": "chainId",
          "type": "uint256"
        }
      ],
      "name": "getFLMetrics",
      "outputs": [
        {
          "components": [
            {
              "internalType": "uint256",
              "name": "totalTransactions",
              "type": "uint256"
            },
            {
              "internalType": "uint256",
              "name": "flaggedTransactions",
              "type": "uint256"
            },
            {
              "internalType": "uint256",
              "name": "averageAnomalyScore",
              "type": "uint256"
            },
            {
              "internalType": "uint256",
              "name": "lastModelUpdate",
              "type": "uint256"
            }
          ],
          "internalType": "struct SupplyChainNFT.FLMetrics",
          "name": "",
          "type": "tuple"
        }
      ],
      "stateMutability": "view",
      "type": "function"
    },
    {
      "inputs": [
        {
          "internalType": "uint256",
          "name": "chainId",
          "type": "uint256"
        }
      ],
      "name": "getMarketMetrics",
      "outputs": [
        {
          "components": [
            {
              "internalType": "uint256",
              "name": "totalVolume",
              "type": "uint256"
            },
            {
              "internalType": "uint256",
              "name": "averagePrice",
              "type": "uint256"
            },
            {
              "internalType": "uint256",
              "name": "anomalyScore",
              "type": "uint256"
            },
            {
              "internalType": "uint256",
              "name": "lastUpdated",
              "type": "uint256"
            }
          ],
          "internalType": "struct Marketplace.MarketMetrics",
          "name": "",
          "type": "tuple"
        }
      ],
      "stateMutability": "view",
      "type": "function"
    },
    {
      "inputs": [
        {
          "internalType": "address",
          "name": "node",
          "type": "address"
        },
        {
          "internalType": "uint256",
          "name": "chainId",
          "type": "uint256"
        }
      ],
      "name": "getNodeReputationOnChain",
      "outputs": [
        {
          "internalType": "uint256",
          "name": "",
          "type": "uint256"
        }
      ],
      "stateMutability": "view",
      "type": "function"
    },
    {
      "inputs": [
        {
          "internalType": "uint256",
          "name": "tokenId",
          "type": "uint256"
        }
      ],
      "name": "getProductData",
      "outputs": [
        {
          "components": [
            {
              "internalType": "string",
              "name": "uniqueProductID",
              "type": "string"
            },
            {
              "internalType": "string",
              "name": "batchNumber",
              "type": "string"
            },
            {
              "internalType": "string",
              "name": "manufacturingDate",
              "type": "string"
            },
            {
              "internalType": "string",
              "name": "expirationDate",
              "type": "string"
            },
            {
              "internalType": "string",
              "name": "productType",
              "type": "string"
            },
            {
              "internalType": "string",
              "name": "manufacturerID",
              "type": "string"
            },
            {
              "internalType": "string",
              "name": "quickAccessURL",
              "type": "string"
            },
            {
              "internalType": "string",
              "name": "nftReference",
              "type": "string"
            },
            {
              "internalType": "uint256",
              "name": "sourceChainId",
              "type": "uint256"
            },
            {
              "internalType": "bytes32",
              "name": "crossChainHash",
              "type": "bytes32"
            }
          ],
          "internalType": "struct NFTCore.ProductData",
          "name": "",
          "type": "tuple"
        }
      ],
      "stateMutability": "view",
      "type": "function"
    },
    {
      "inputs": [
        {
          "internalType": "uint256",
          "name": "tokenId",
          "type": "uint256"
        }
      ],
      "name": "getProductHistory",
      "outputs": [
        {
          "internalType": "string",
          "name": "",
          "type": "string"
        }
      ],
      "stateMutability": "view",
      "type": "function"
    },
    {
      "inputs": [
        {
          "internalType": "bytes32",
          "name": "role",
          "type": "bytes32"
        }
      ],
      "name": "getRoleAdmin",
      "outputs": [
        {
          "internalType": "bytes32",
          "name": "",
          "type": "bytes32"
        }
      ],
      "stateMutability": "view",
      "type": "function"
    },
    {
      "inputs": [
        {
          "internalType": "uint256",
          "name": "batchId",
          "type": "uint256"
        }
      ],
      "name": "getSelectedValidatorsForBatch",
      "outputs": [
        {
          "internalType": "address[]",
          "name": "",
          "type": "address[]"
        }
      ],
      "stateMutability": "view",
      "type": "function"
    },
    {
      "inputs": [
        {
          "internalType": "address",
          "name": "node",
          "type": "address"
        }
      ],
      "name": "getTotalCrossChainReputation",
      "outputs": [
        {
          "internalType": "uint256",
          "name": "",
          "type": "uint256"
        }
      ],
      "stateMutability": "view",
      "type": "function"
    },
    {
      "inputs": [],
      "name": "getTotalPrimaryNodes",
      "outputs": [
        {
          "internalType": "uint256",
          "name": "",
          "type": "uint256"
        }
      ],
      "stateMutability": "view",
      "type": "function"
    },
    {
      "inputs": [
        {
          "internalType": "bytes32",
          "name": "role",
          "type": "bytes32"
        },
        {
          "internalType": "address",
          "name": "account",
          "type": "address"
        }
      ],
      "name": "grantRole",
      "outputs": [],
      "stateMutability": "nonpayable",
      "type": "function"
    },
    {
      "inputs": [
        {
          "internalType": "bytes32",
          "name": "role",
          "type": "bytes32"
        },
        {
          "internalType": "address",
          "name": "account",
          "type": "address"
        }
      ],
      "name": "hasRole",
      "outputs": [
        {
          "internalType": "bool",
          "name": "",
          "type": "bool"
        }
      ],
      "stateMutability": "view",
      "type": "function"
    },
    {
      "inputs": [
        {
          "internalType": "uint256",
          "name": "tokenId",
          "type": "uint256"
        },
        {
          "internalType": "string",
          "name": "CIDHash",
          "type": "string"
        },
        {
          "internalType": "uint256",
          "name": "targetChainId",
          "type": "uint256"
        }
      ],
      "name": "initiateCrossChainPurchase",
      "outputs": [],
      "stateMutability": "payable",
      "type": "function"
    },
    {
      "inputs": [
        {
          "internalType": "uint256",
          "name": "tokenId",
          "type": "uint256"
        },
        {
          "internalType": "uint256",
          "name": "targetChainId",
          "type": "uint256"
        },
        {
          "internalType": "address",
          "name": "targetAddress",
          "type": "address"
        }
      ],
      "name": "initiateCrossChainTransfer",
      "outputs": [],
      "stateMutability": "nonpayable",
      "type": "function"
    },
    {
      "inputs": [
        {
          "internalType": "uint256",
          "name": "tokenId",
          "type": "uint256"
        },
        {
          "internalType": "string",
          "name": "CIDHash",
          "type": "string"
        }
      ],
      "name": "initiatePurchase",
      "outputs": [],
      "stateMutability": "nonpayable",
      "type": "function"
    },
    {
      "inputs": [
        {
          "internalType": "address",
          "name": "owner",
          "type": "address"
        },
        {
          "internalType": "address",
          "name": "operator",
          "type": "address"
        }
      ],
      "name": "isApprovedForAll",
      "outputs": [
        {
          "internalType": "bool",
          "name": "",
          "type": "bool"
        }
      ],
      "stateMutability": "view",
      "type": "function"
    },
    {
      "inputs": [
        {
          "internalType": "uint256",
          "name": "batchId",
          "type": "uint256"
        }
      ],
      "name": "isBatchFLValidated",
      "outputs": [
        {
          "internalType": "bool",
          "name": "",
          "type": "bool"
        }
      ],
      "stateMutability": "view",
      "type": "function"
    },
    {
      "inputs": [
        {
          "internalType": "uint256",
          "name": "disputeId",
          "type": "uint256"
        }
      ],
      "name": "isDisputeCrossChain",
      "outputs": [
        {
          "internalType": "bool",
          "name": "",
          "type": "bool"
        }
      ],
      "stateMutability": "view",
      "type": "function"
    },
    {
      "inputs": [
        {
          "internalType": "uint256",
          "name": "tokenId",
          "type": "uint256"
        },
        {
          "internalType": "uint256",
          "name": "chainId",
          "type": "uint256"
        }
      ],
      "name": "isFromChain",
      "outputs": [
        {
          "internalType": "bool",
          "name": "",
          "type": "bool"
        }
      ],
      "stateMutability": "view",
      "type": "function"
    },
    {
      "inputs": [
        {
          "internalType": "uint256",
          "name": "tokenId",
          "type": "uint256"
        },
        {
          "internalType": "uint256",
          "name": "chainId",
          "type": "uint256"
        }
      ],
      "name": "isListedOnChain",
      "outputs": [
        {
          "internalType": "bool",
          "name": "",
          "type": "bool"
        }
      ],
      "stateMutability": "view",
      "type": "function"
    },
    {
      "inputs": [
        {
          "internalType": "uint256",
          "name": "",
          "type": "uint256"
        },
        {
          "internalType": "address",
          "name": "",
          "type": "address"
        }
      ],
      "name": "isSelectedValidator",
      "outputs": [
        {
          "internalType": "bool",
          "name": "",
          "type": "bool"
        }
      ],
      "stateMutability": "view",
      "type": "function"
    },
    {
      "inputs": [
        {
          "internalType": "address",
          "name": "candidate",
          "type": "address"
        }
      ],
      "name": "isVerified",
      "outputs": [
        {
          "internalType": "bool",
          "name": "",
          "type": "bool"
        }
      ],
      "stateMutability": "view",
      "type": "function"
    },
    {
      "inputs": [
        {
          "internalType": "address",
          "name": "",
          "type": "address"
        }
      ],
      "name": "lastActionTimestamp",
      "outputs": [
        {
          "internalType": "uint256",
          "name": "",
          "type": "uint256"
        }
      ],
      "stateMutability": "view",
      "type": "function"
    },
    {
      "inputs": [
        {
          "internalType": "uint256",
          "name": "",
          "type": "uint256"
        }
      ],
      "name": "listingChainId",
      "outputs": [
        {
          "internalType": "uint256",
          "name": "",
          "type": "uint256"
        }
      ],
      "stateMutability": "view",
      "type": "function"
    },
    {
      "inputs": [
        {
          "internalType": "uint256",
          "name": "",
          "type": "uint256"
        }
      ],
      "name": "listingPrice",
      "outputs": [
        {
          "internalType": "uint256",
          "name": "",
          "type": "uint256"
        }
      ],
      "stateMutability": "view",
      "type": "function"
    },
    {
      "inputs": [
        {
          "internalType": "uint256",
          "name": "disputeId",
          "type": "uint256"
        },
        {
          "internalType": "string",
          "name": "resolutionDetails",
          "type": "string"
        },
        {
          "internalType": "uint8",
          "name": "outcome",
          "type": "uint8"
        }
      ],
      "name": "makeDisputeDecision",
      "outputs": [],
      "stateMutability": "nonpayable",
      "type": "function"
    },
    {
      "inputs": [
        {
          "components": [
            {
              "internalType": "address",
              "name": "recipient",
              "type": "address"
            },
            {
              "internalType": "string",
              "name": "uniqueProductID",
              "type": "string"
            },
            {
              "internalType": "string",
              "name": "batchNumber",
              "type": "string"
            },
            {
              "internalType": "string",
              "name": "manufacturingDate",
              "type": "string"
            },
            {
              "internalType": "string",
              "name": "expirationDate",
              "type": "string"
            },
            {
              "internalType": "string",
              "name": "productType",
              "type": "string"
            },
            {
              "internalType": "string",
              "name": "manufacturerID",
              "type": "string"
            },
            {
              "internalType": "string",
              "name": "quickAccessURL",
              "type": "string"
            },
            {
              "internalType": "string",
              "name": "nftReference",
              "type": "string"
            }
          ],
          "internalType": "struct NFTCore.MintNFTParams",
          "name": "params",
          "type": "tuple"
        }
      ],
      "name": "mintNFT",
      "outputs": [
        {
          "internalType": "uint256",
          "name": "",
          "type": "uint256"
        }
      ],
      "stateMutability": "nonpayable",
      "type": "function"
    },
    {
      "inputs": [],
      "name": "name",
      "outputs": [
        {
          "internalType": "string",
          "name": "",
          "type": "string"
        }
      ],
      "stateMutability": "view",
      "type": "function"
    },
    {
      "inputs": [],
      "name": "nextBatchId",
      "outputs": [
        {
          "internalType": "uint256",
          "name": "",
          "type": "uint256"
        }
      ],
      "stateMutability": "view",
      "type": "function"
    },
    {
      "inputs": [],
      "name": "nextDisputeId",
      "outputs": [
        {
          "internalType": "uint256",
          "name": "",
          "type": "uint256"
        }
      ],
      "stateMutability": "view",
      "type": "function"
    },
    {
      "inputs": [
        {
          "internalType": "address",
          "name": "",
          "type": "address"
        }
      ],
      "name": "nodeRegistrationChain",
      "outputs": [
        {
          "internalType": "uint256",
          "name": "",
          "type": "uint256"
        }
      ],
      "stateMutability": "view",
      "type": "function"
    },
    {
      "inputs": [
        {
          "internalType": "address",
          "name": "",
          "type": "address"
        }
      ],
      "name": "nodeReputation",
      "outputs": [
        {
          "internalType": "uint256",
          "name": "",
          "type": "uint256"
        }
      ],
      "stateMutability": "view",
      "type": "function"
    },
    {
      "inputs": [
        {
          "internalType": "address",
          "name": "",
          "type": "address"
        }
      ],
      "name": "nodeTypes",
      "outputs": [
        {
          "internalType": "enum NodeManagement.NodeType",
          "name": "",
          "type": "uint8"
        }
      ],
      "stateMutability": "view",
      "type": "function"
    },
    {
      "inputs": [],
      "name": "numValidatorsToSelect",
      "outputs": [
        {
          "internalType": "uint256",
          "name": "",
          "type": "uint256"
        }
      ],
      "stateMutability": "view",
      "type": "function"
    },
    {
      "inputs": [
        {
          "internalType": "uint256",
          "name": "tokenId",
          "type": "uint256"
        },
        {
          "internalType": "string",
          "name": "reason",
          "type": "string"
        },
        {
          "internalType": "string",
          "name": "evidenceDataString",
          "type": "string"
        }
      ],
      "name": "openDispute",
      "outputs": [
        {
          "internalType": "uint256",
          "name": "",
          "type": "uint256"
        }
      ],
      "stateMutability": "nonpayable",
      "type": "function"
    },
    {
      "inputs": [],
      "name": "owner",
      "outputs": [
        {
          "internalType": "address",
          "name": "",
          "type": "address"
        }
      ],
      "stateMutability": "view",
      "type": "function"
    },
    {
      "inputs": [
        {
          "internalType": "uint256",
          "name": "tokenId",
          "type": "uint256"
        }
      ],
      "name": "ownerOf",
      "outputs": [
        {
          "internalType": "address",
          "name": "",
          "type": "address"
        }
      ],
      "stateMutability": "view",
      "type": "function"
    },
    {
      "inputs": [
        {
          "internalType": "bytes32",
          "name": "",
          "type": "bytes32"
        }
      ],
      "name": "processedCrossChainActions",
      "outputs": [
        {
          "internalType": "bool",
          "name": "",
          "type": "bool"
        }
      ],
      "stateMutability": "view",
      "type": "function"
    },
    {
      "inputs": [
        {
          "internalType": "bytes32",
          "name": "",
          "type": "bytes32"
        }
      ],
      "name": "processedCrossChainBatches",
      "outputs": [
        {
          "internalType": "bool",
          "name": "",
          "type": "bool"
        }
      ],
      "stateMutability": "view",
      "type": "function"
    },
    {
      "inputs": [
        {
          "internalType": "bytes32",
          "name": "",
          "type": "bytes32"
        }
      ],
      "name": "processedCrossChainDisputes",
      "outputs": [
        {
          "internalType": "bool",
          "name": "",
          "type": "bool"
        }
      ],
      "stateMutability": "view",
      "type": "function"
    },
    {
      "inputs": [
        {
          "internalType": "bytes32",
          "name": "",
          "type": "bytes32"
        }
      ],
      "name": "processedCrossChainTrades",
      "outputs": [
        {
          "internalType": "bool",
          "name": "",
          "type": "bool"
        }
      ],
      "stateMutability": "view",
      "type": "function"
    },
    {
      "inputs": [
        {
          "internalType": "uint256",
          "name": "",
          "type": "uint256"
        }
      ],
      "name": "productDataMapping",
      "outputs": [
        {
          "internalType": "string",
          "name": "uniqueProductID",
          "type": "string"
        },
        {
          "internalType": "string",
          "name": "batchNumber",
          "type": "string"
        },
        {
          "internalType": "string",
          "name": "manufacturingDate",
          "type": "string"
        },
        {
          "internalType": "string",
          "name": "expirationDate",
          "type": "string"
        },
        {
          "internalType": "string",
          "name": "productType",
          "type": "string"
        },
        {
          "internalType": "string",
          "name": "manufacturerID",
          "type": "string"
        },
        {
          "internalType": "string",
          "name": "quickAccessURL",
          "type": "string"
        },
        {
          "internalType": "string",
          "name": "nftReference",
          "type": "string"
        },
        {
          "internalType": "uint256",
          "name": "sourceChainId",
          "type": "uint256"
        },
        {
          "internalType": "bytes32",
          "name": "crossChainHash",
          "type": "bytes32"
        }
      ],
      "stateMutability": "view",
      "type": "function"
    },
    {
      "inputs": [
        {
          "internalType": "uint256",
          "name": "disputeId",
          "type": "uint256"
        },
        {
          "internalType": "address",
          "name": "candidate",
          "type": "address"
        }
      ],
      "name": "proposeArbitratorCandidate",
      "outputs": [],
      "stateMutability": "nonpayable",
      "type": "function"
    },
    {
      "inputs": [
        {
          "components": [
            {
              "internalType": "address",
              "name": "from",
              "type": "address"
            },
            {
              "internalType": "address",
              "name": "to",
              "type": "address"
            },
            {
              "internalType": "uint256",
              "name": "tokenId",
              "type": "uint256"
            },
            {
              "internalType": "uint256",
              "name": "chainId",
              "type": "uint256"
            }
          ],
          "internalType": "struct BatchProcessing.TransactionData[]",
          "name": "txs",
          "type": "tuple[]"
        },
        {
          "internalType": "bool",
          "name": "isCrossChain",
          "type": "bool"
        }
      ],
      "name": "proposeBatch",
      "outputs": [],
      "stateMutability": "nonpayable",
      "type": "function"
    },
    {
      "inputs": [
        {
          "internalType": "uint256",
          "name": "",
          "type": "uint256"
        }
      ],
      "name": "purchaseInfos",
      "outputs": [
        {
          "internalType": "address",
          "name": "buyer",
          "type": "address"
        },
        {
          "internalType": "address",
          "name": "seller",
          "type": "address"
        },
        {
          "internalType": "uint256",
          "name": "price",
          "type": "uint256"
        },
        {
          "internalType": "uint256",
          "name": "collateral",
          "type": "uint256"
        },
        {
          "internalType": "enum NFTCore.PurchaseStatus",
          "name": "status",
          "type": "uint8"
        },
        {
          "internalType": "uint256",
          "name": "chainId",
          "type": "uint256"
        }
      ],
      "stateMutability": "view",
      "type": "function"
    },
    {
      "inputs": [],
      "name": "reconcileLogs",
      "outputs": [],
      "stateMutability": "nonpayable",
      "type": "function"
    },
    {
      "inputs": [
        {
          "internalType": "uint256",
          "name": "disputeId",
          "type": "uint256"
        },
        {
          "internalType": "string",
          "name": "_resolutionDetails",
          "type": "string"
        },
        {
          "internalType": "string",
          "name": "_resolutionDataString",
          "type": "string"
        },
        {
          "internalType": "uint8",
          "name": "_outcome",
          "type": "uint8"
        }
      ],
      "name": "recordDecision",
      "outputs": [],
      "stateMutability": "nonpayable",
      "type": "function"
    },
    {
      "inputs": [
        {
          "internalType": "address",
          "name": "node",
          "type": "address"
        },
        {
          "internalType": "uint256",
          "name": "sourceChainId",
          "type": "uint256"
        },
        {
          "internalType": "enum NodeManagement.Role",
          "name": "role",
          "type": "uint8"
        },
        {
          "internalType": "enum NodeManagement.NodeType",
          "name": "nodeType",
          "type": "uint8"
        },
        {
          "internalType": "bool",
          "name": "verified",
          "type": "bool"
        }
      ],
      "name": "registerNodeFromChain",
      "outputs": [],
      "stateMutability": "nonpayable",
      "type": "function"
    },
    {
      "inputs": [],
      "name": "renounceOwnership",
      "outputs": [],
      "stateMutability": "nonpayable",
      "type": "function"
    },
    {
      "inputs": [
        {
          "internalType": "bytes32",
          "name": "role",
          "type": "bytes32"
        },
        {
          "internalType": "address",
          "name": "callerConfirmation",
          "type": "address"
        }
      ],
      "name": "renounceRole",
      "outputs": [],
      "stateMutability": "nonpayable",
      "type": "function"
    },
    {
      "inputs": [
        {
          "internalType": "bytes32",
          "name": "role",
          "type": "bytes32"
        },
        {
          "internalType": "address",
          "name": "account",
          "type": "address"
        }
      ],
      "name": "revokeRole",
      "outputs": [],
      "stateMutability": "nonpayable",
      "type": "function"
    },
    {
      "inputs": [
        {
          "internalType": "address",
          "name": "",
          "type": "address"
        }
      ],
      "name": "roles",
      "outputs": [
        {
          "internalType": "enum NodeManagement.Role",
          "name": "",
          "type": "uint8"
        }
      ],
      "stateMutability": "view",
      "type": "function"
    },
    {
      "inputs": [
        {
          "internalType": "address",
          "name": "from",
          "type": "address"
        },
        {
          "internalType": "address",
          "name": "to",
          "type": "address"
        },
        {
          "internalType": "uint256",
          "name": "tokenId",
          "type": "uint256"
        }
      ],
      "name": "safeTransferFrom",
      "outputs": [],
      "stateMutability": "nonpayable",
      "type": "function"
    },
    {
      "inputs": [
        {
          "internalType": "address",
          "name": "from",
          "type": "address"
        },
        {
          "internalType": "address",
          "name": "to",
          "type": "address"
        },
        {
          "internalType": "uint256",
          "name": "tokenId",
          "type": "uint256"
        },
        {
          "internalType": "bytes",
          "name": "data",
          "type": "bytes"
        }
      ],
      "name": "safeTransferFrom",
      "outputs": [],
      "stateMutability": "nonpayable",
      "type": "function"
    },
    {
      "inputs": [
        {
          "internalType": "uint256",
          "name": "disputeId",
          "type": "uint256"
        }
      ],
      "name": "selectArbitrator",
      "outputs": [],
      "stateMutability": "nonpayable",
      "type": "function"
    },
    {
      "inputs": [
        {
          "internalType": "uint256",
          "name": "tokenId",
          "type": "uint256"
        },
        {
          "internalType": "uint256",
          "name": "price",
          "type": "uint256"
        },
        {
          "internalType": "address",
          "name": "buyer",
          "type": "address"
        },
        {
          "internalType": "string",
          "name": "currentProductCID",
          "type": "string"
        }
      ],
      "name": "sellAndTransferProduct",
      "outputs": [],
      "stateMutability": "nonpayable",
      "type": "function"
    },
    {
      "inputs": [
        {
          "internalType": "uint256",
          "name": "tokenId",
          "type": "uint256"
        },
        {
          "internalType": "uint256",
          "name": "price",
          "type": "uint256"
        }
      ],
      "name": "sellProduct",
      "outputs": [],
      "stateMutability": "nonpayable",
      "type": "function"
    },
    {
      "inputs": [
        {
          "internalType": "uint256",
          "name": "tokenId",
          "type": "uint256"
        },
        {
          "internalType": "uint256",
          "name": "price",
          "type": "uint256"
        },
        {
          "internalType": "uint256[]",
          "name": "targetChainIds",
          "type": "uint256[]"
        }
      ],
      "name": "sellProductCrossChain",
      "outputs": [],
      "stateMutability": "nonpayable",
      "type": "function"
    },
    {
      "inputs": [
        {
          "internalType": "uint256",
          "name": "tokenId",
          "type": "uint256"
        },
        {
          "internalType": "bool",
          "name": "meetsIncentiveCriteria",
          "type": "bool"
        }
      ],
      "name": "sellerReleaseFunds",
      "outputs": [],
      "stateMutability": "nonpayable",
      "type": "function"
    },
    {
      "inputs": [
        {
          "internalType": "address",
          "name": "operator",
          "type": "address"
        },
        {
          "internalType": "bool",
          "name": "approved",
          "type": "bool"
        }
      ],
      "name": "setApprovalForAll",
      "outputs": [],
      "stateMutability": "nonpayable",
      "type": "function"
    },
    {
      "inputs": [
        {
          "internalType": "address",
          "name": "node",
          "type": "address"
        },
        {
          "internalType": "enum NodeManagement.NodeType",
          "name": "nType",
          "type": "uint8"
        }
      ],
      "name": "setNodeType",
      "outputs": [],
      "stateMutability": "nonpayable",
      "type": "function"
    },
    {
      "inputs": [
        {
          "internalType": "address",
          "name": "_addr",
          "type": "address"
        },
        {
          "internalType": "enum NodeManagement.Role",
          "name": "_role",
          "type": "uint8"
        }
      ],
      "name": "setRole",
      "outputs": [],
      "stateMutability": "nonpayable",
      "type": "function"
    },
    {
      "inputs": [
        {
          "internalType": "address",
          "name": "node",
          "type": "address"
        },
        {
          "internalType": "bool",
          "name": "status",
          "type": "bool"
        }
      ],
      "name": "setVerifiedNode",
      "outputs": [],
      "stateMutability": "nonpayable",
      "type": "function"
    },
    {
      "inputs": [
        {
          "internalType": "uint256",
          "name": "disputeId",
          "type": "uint256"
        },
        {
          "internalType": "uint256",
          "name": "targetChainId",
          "type": "uint256"
        }
      ],
      "name": "shareEvidenceToChain",
      "outputs": [],
      "stateMutability": "nonpayable",
      "type": "function"
    },
    {
      "inputs": [
        {
          "internalType": "uint256",
          "name": "tokenId",
          "type": "uint256"
        },
        {
          "internalType": "address[]",
          "name": "transporters",
          "type": "address[]"
        },
        {
          "internalType": "string",
          "name": "startLocation",
          "type": "string"
        },
        {
          "internalType": "string",
          "name": "endLocation",
          "type": "string"
        },
        {
          "internalType": "uint256",
          "name": "distance",
          "type": "uint256"
        }
      ],
      "name": "startTransport",
      "outputs": [],
      "stateMutability": "nonpayable",
      "type": "function"
    },
    {
      "inputs": [
        {
          "internalType": "uint256",
          "name": "tokenId",
          "type": "uint256"
        },
        {
          "internalType": "string",
          "name": "newCid",
          "type": "string"
        }
      ],
      "name": "storeCIDToHistory",
      "outputs": [],
      "stateMutability": "nonpayable",
      "type": "function"
    },
    {
      "inputs": [
        {
          "internalType": "uint256",
          "name": "tokenId",
          "type": "uint256"
        },
        {
          "internalType": "string",
          "name": "cid",
          "type": "string"
        }
      ],
      "name": "storeInitialCID",
      "outputs": [],
      "stateMutability": "nonpayable",
      "type": "function"
    },
    {
      "inputs": [],
      "name": "superMajorityFraction",
      "outputs": [
        {
          "internalType": "uint256",
          "name": "",
          "type": "uint256"
        }
      ],
      "stateMutability": "view",
      "type": "function"
    },
    {
      "inputs": [
        {
          "internalType": "bytes4",
          "name": "interfaceId",
          "type": "bytes4"
        }
      ],
      "name": "supportsInterface",
      "outputs": [
        {
          "internalType": "bool",
          "name": "",
          "type": "bool"
        }
      ],
      "stateMutability": "view",
      "type": "function"
    },
    {
      "inputs": [],
      "name": "symbol",
      "outputs": [
        {
          "internalType": "string",
          "name": "",
          "type": "string"
        }
      ],
      "stateMutability": "view",
      "type": "function"
    },
    {
      "inputs": [
        {
          "internalType": "uint256",
          "name": "batchId",
          "type": "uint256"
        },
        {
          "internalType": "uint256",
          "name": "targetChainId",
          "type": "uint256"
        }
      ],
      "name": "syncBatchToChain",
      "outputs": [],
      "stateMutability": "nonpayable",
      "type": "function"
    },
    {
      "inputs": [
        {
          "internalType": "uint256",
          "name": "disputeId",
          "type": "uint256"
        },
        {
          "internalType": "uint256",
          "name": "targetChainId",
          "type": "uint256"
        }
      ],
      "name": "syncDisputeToChain",
      "outputs": [],
      "stateMutability": "nonpayable",
      "type": "function"
    },
    {
      "inputs": [
        {
          "internalType": "uint256",
          "name": "targetChainId",
          "type": "uint256"
        }
      ],
      "name": "syncFLMetricsToChain",
      "outputs": [],
      "stateMutability": "nonpayable",
      "type": "function"
    },
    {
      "inputs": [
        {
          "internalType": "address",
          "name": "node",
          "type": "address"
        },
        {
          "internalType": "uint256",
          "name": "targetChainId",
          "type": "uint256"
        }
      ],
      "name": "syncReputationToChain",
      "outputs": [],
      "stateMutability": "nonpayable",
      "type": "function"
    },
    {
      "inputs": [
        {
          "internalType": "uint256",
          "name": "tokenId",
          "type": "uint256"
        }
      ],
      "name": "tokenURI",
      "outputs": [
        {
          "internalType": "string",
          "name": "",
          "type": "string"
        }
      ],
      "stateMutability": "view",
      "type": "function"
    },
    {
      "inputs": [
        {
          "internalType": "address",
          "name": "from",
          "type": "address"
        },
        {
          "internalType": "address",
          "name": "to",
          "type": "address"
        },
        {
          "internalType": "uint256",
          "name": "tokenId",
          "type": "uint256"
        }
      ],
      "name": "transferFrom",
      "outputs": [],
      "stateMutability": "nonpayable",
      "type": "function"
    },
    {
      "inputs": [
        {
          "internalType": "address",
          "name": "newOwner",
          "type": "address"
        }
      ],
      "name": "transferOwnership",
      "outputs": [],
      "stateMutability": "nonpayable",
      "type": "function"
    },
    {
      "inputs": [
        {
          "internalType": "uint256",
          "name": "disputeId",
          "type": "uint256"
        },
        {
          "internalType": "string",
          "name": "newEvidenceCID",
          "type": "string"
        }
      ],
      "name": "updateDisputeEvidenceCID",
      "outputs": [],
      "stateMutability": "nonpayable",
      "type": "function"
    },
    {
      "inputs": [
        {
          "internalType": "uint256",
          "name": "disputeId",
          "type": "uint256"
        },
        {
          "internalType": "string",
          "name": "newResolutionCID",
          "type": "string"
        }
      ],
      "name": "updateDisputeResolutionCID",
      "outputs": [],
      "stateMutability": "nonpayable",
      "type": "function"
    },
    {
      "inputs": [
        {
          "internalType": "string",
          "name": "modelHash",
          "type": "string"
        }
      ],
      "name": "updateFLModel",
      "outputs": [],
      "stateMutability": "nonpayable",
      "type": "function"
    },
    {
      "inputs": [
        {
          "internalType": "uint256",
          "name": "batchId",
          "type": "uint256"
        },
        {
          "internalType": "uint256",
          "name": "anomalyScore",
          "type": "uint256"
        },
        {
          "internalType": "bool",
          "name": "validated",
          "type": "bool"
        }
      ],
      "name": "updateFLValidation",
      "outputs": [],
      "stateMutability": "nonpayable",
      "type": "function"
    },
    {
      "inputs": [
        {
          "internalType": "uint256",
          "name": "chainId",
          "type": "uint256"
        },
        {
          "internalType": "uint256",
          "name": "newScore",
          "type": "uint256"
        },
        {
          "internalType": "string",
          "name": "reason",
          "type": "string"
        }
      ],
      "name": "updateMarketAnomalyScore",
      "outputs": [],
      "stateMutability": "nonpayable",
      "type": "function"
    },
    {
      "inputs": [
        {
          "internalType": "uint256",
          "name": "tokenId",
          "type": "uint256"
        },
        {
          "internalType": "string",
          "name": "newCid",
          "type": "string"
        }
      ],
      "name": "updateProductHistoryCID",
      "outputs": [],
      "stateMutability": "nonpayable",
      "type": "function"
    },
    {
      "inputs": [
        {
          "internalType": "uint256",
          "name": "batchId",
          "type": "uint256"
        },
        {
          "internalType": "bool",
          "name": "approve",
          "type": "bool"
        }
      ],
      "name": "validateBatch",
      "outputs": [],
      "stateMutability": "nonpayable",
      "type": "function"
    },
    {
      "inputs": [
        {
          "internalType": "uint256",
          "name": "tokenId",
          "type": "uint256"
        },
        {
          "internalType": "string",
          "name": "expectedCID",
          "type": "string"
        },
        {
          "internalType": "address",
          "name": "currentOwner",
          "type": "address"
        }
      ],
      "name": "verifyProductAuthenticity",
      "outputs": [
        {
          "internalType": "string",
          "name": "",
          "type": "string"
        }
      ],
      "stateMutability": "view",
      "type": "function"
    },
    {
      "inputs": [
        {
          "internalType": "uint256",
          "name": "disputeId",
          "type": "uint256"
        },
        {
          "internalType": "address",
          "name": "candidate",
          "type": "address"
        }
      ],
      "name": "voteForArbitrator",
      "outputs": [],
      "stateMutability": "nonpayable",
      "type": "function"
    },
    {
      "stateMutability": "payable",
      "type": "receive"
    }
  ],
  "bytecode": "0x6080604052346104565761b3196020813803918261001c8161045b565b93849283398101031261045657516001600160a01b03811680820361045657610045604061045b565b91601883527f436861696e464c49505f4d756c7469436861696e5f4e46540000000000000000602084015261007a604061045b565b600481526343464d4360e01b602082015283516001600160401b03811161024e57600054600181811c9116801561044c575b602082101461035757601f81116103e8575b50602094601f821160011461038257948192939495600092610377575b50508160011b916000199060031b1c1916176000555b8051906001600160401b03821161024e57600154600181811c9116801561036d575b602082101461035757601f81116102f2575b50602090601f8311600114610285576101819392916000918361027a575b50508160011b916000199060031b1c1916176001555b600160085561016781610480565b50610171816104fc565b5061017b81610594565b5061062c565b50801561026457601180546001600160a01b0319811683179091556001600160a01b03167f8be0079c531659141344cd1fd0a4f28419497f9722a3daafe3b4186f6b6457e0600080a3600160148190556005601a556042601b556050601c55602755604051608081016001600160401b0381118282101761024e5760405260008152600360208201600081526040830160008152606084019142835246600052602b6020526040600020945185555160018501555160028401555191015560405161abb490816106c58239f35b634e487b7160e01b600052604160045260246000fd5b631e4fbdf760e01b600052600060045260246000fd5b015190503880610143565b90601f198316916001600052816000209260005b8181106102da5750916001939185610181979694106102c1575b505050811b01600155610159565b015160001960f88460031b161c191690553880806102b3565b92936020600181928786015181550195019301610299565b60016000527fb10e2d527612073b26eecdfd717e6a320cf44b4afac2b0732d9fcbe2b7fa0cf6601f840160051c8101916020851061034d575b601f0160051c01905b8181106103415750610125565b60008155600101610334565b909150819061032b565b634e487b7160e01b600052602260045260246000fd5b90607f1690610113565b0151905038806100db565b601f1982169560008052806000209160005b8881106103d0575083600195969798106103b7575b505050811b016000556100f1565b015160001960f88460031b161c191690553880806103a9565b91926020600181928685015181550194019201610394565b600080527f290decd9548b62a8d60345a988386fc84ba6bc95484008f6362f93160ef3e563601f830160051c81019160208410610442575b601f0160051c01905b81811061043657506100be565b60008155600101610429565b9091508190610420565b90607f16906100ac565b600080fd5b6040519190601f01601f191682016001600160401b0381118382101761024e57604052565b6001600160a01b038116600090815260008051602061b2b9833981519152602052604090205460ff166104f6576001600160a01b0316600081815260008051602061b2b983398151915260205260408120805460ff1916600117905533919060008051602061b2798339815191528180a4600190565b50600090565b6001600160a01b038116600090815260008051602061b2f9833981519152602052604090205460ff166104f6576001600160a01b0316600081815260008051602061b2f983398151915260205260408120805460ff191660011790553391907f73e573f9566d61418a34d5de3ff49360f9c51fec37f7486551670290f6285dab9060008051602061b2798339815191529080a4600190565b6001600160a01b038116600090815260008051602061b2d9833981519152602052604090205460ff166104f6576001600160a01b0316600081815260008051602061b2d983398151915260205260408120805460ff191660011790553391907f9f2df0fed2c77648de5860a4cc508cd0818c85b8b8a1ab4ceeef8d981c8956a69060008051602061b2798339815191529080a4600190565b6001600160a01b038116600090815260008051602061b299833981519152602052604090205460ff166104f6576001600160a01b0316600081815260008051602061b29983398151915260205260408120805460ff191660011790553391907f620d362b92b6ef580d4e86c5675d679fe08d31dff47b72f281959a4eecdd036a9060008051602061b2798339815191529080a460019056fe60806040526004361015610010575b005b60003560e01c8063017fc6aa146183ef57806301ffc9a7146182cf57806302466a9814617fb557806304c98fb514617d745780630675267314617bc657806306fdde0314617b21578063081812fc14617ae2578063095ea7b3146179d357806309a2ebbc146179a257806309a7b577146178895780630cdb03331461735e5780630db39934146173405780630e22257b14617292578063115bc9361461726657806312c624fc14617248578063148ea1a41461720e57806314d60d4614616f6957806318b30a4814616da5578063196fac0214616bf45780631e1550f2146168f05780631f88eb3e1461683957806323b872dd14616822578063248a9ca3146167f557806324d53c8c14616778578063286fd7f51461675a5780632bc710e7146167185780632dab20e8146165ea5780632f2ff15d146165aa578063304f9d701461649257806331b59ae4146164745780633300eb7f1461643b57806336568abe146163dc5780633824dc62146163105780633922a5e6146161635780633ab1f543146160b55780633ed0677b14615e1a57806342842e0e14615dea5780634491ef1914615db957806347e6338014615d7e578063482fbf2314615b62578063486d762414615aae5780634b33a3d914615a6e5780635173cffd146125885780635365a0c61461570e578063571c3e601461565757806357a096a1146145115780635b7e53fb146156265780635da47047146155fa5780635dc3db05146153545780636352211e146153255780636763220a146152f4578063680e014b14614fd7578063687a069514614ee5578063689753f114614d9357806369db196814614d375780636dbc6e4214614d0b57806370a0823114614c9c578063715018a614614c4157806379c3310014614b62578063843cba13146149a75780638462a7f81461498957806385c54ff31461478b5780638aa1d142146145475780638bdd780c146145115780638da5cb5b146144ea57806391d148541461449c57806392953a3c1461430457806392995af1146142e657806395c940e51461404e57806395d89b4114613f8157806395ef7bcb14613f3857806398593e1414613cdf57806398ee073914613b6b578063991a2ff114613b3c5780639937464214613afa5780639970edd514613a505780639979cf9e146139ac5780639d47dcc0146137305780639ee410c7146136fc578063a08a9f70146136ad578063a217fddf14613691578063a22cb465146135d2578063a2af2c9f14613586578063a2c9beeb14613538578063a4e18cd714613187578063a67b207e146130f2578063a76aa6fc146130b7578063b32c4d8d1461301d578063b500ef8e14612ff1578063b88d4fde14612f85578063b9209e3314612f40578063bb11d9f014612f14578063bc683f9f14612deb578063bdf7963614612d8a578063c0e2723414612d59578063c15055b114612b2c578063c2d61e1714612acf578063c53934e614612a87578063c7efdcd7146129d1578063c87b56dd1461299e578063c9bacb6614612982578063caaa9fe714612796578063cf74489e146125d0578063cf93f6a614612588578063d53913931461254d578063d547741f14612508578063d6d0be9f14612277578063dbb75b9014611f5b578063e1b0877314611f21578063e870ce6714611382578063e933298b1461132e578063e985e9c5146112d1578063ec163fe514611251578063ec66100d14611119578063eca7459314610f68578063ed7730ea14610e32578063efa781b614610e08578063f004a4ea14610d9a578063f050058314610c41578063f07172cb14610bb9578063f1d36cbc14610a9b578063f2979fe014610a5d578063f2fde38b146109bb578063f798f5401461097b578063fb8f0a7414610801578063fc538bdc146105d05763fe72ae130361000e57346105cb5760203660031901126105cb576004356023548110156105cb576001600160a01b036105bb602092618868565b90549060031b1c16604051908152f35b600080fd5b346105cb5760a03660031901126105cb576105e96185fa565b6044359060243560068310156105cb576064359060038210156105cb576084359182151583036105cb576040519460208601936001600160a01b038616946bffffffffffffffffffffffff198760601b1681528460348901524660548901526000978360f81b60748201528460f81b60758201526056815261066c60768261853b565b51902090818852602560205260ff6040892054166107bd576106cd918852602560205260408820600160ff19825416179055858852602080526040882054156107ab575b858852601d602052604088209060ff801983541691151516179055565b83865260216020526106e28160408820618f15565b83865260226020526106f78260408820618bd2565b859486602354905b818110610772575b50509161074f61075992608095947f131126bf6179fa94b6e7ead547130b76265adc39e92941c5b50f0de87ce772fb979815610763575b50604051948552602085019061884e565b60408301906187d4565b426060820152a280f35b61076c9061899d565b8961073e565b866001600160a01b0361078483618868565b90549060031b1c1614610799576001016106ff565b506001965061074f9050610759610707565b858852602080528460408920556106b0565b606460405162461bcd60e51b815260206004820152601e60248201527f526567697374726174696f6e20616c72656164792070726f63657373656400006044820152fd5b346105cb5761080f36618693565b61081761a1ad565b81600052601260205260ff6002604060002061083581541515618db8565b015460081c16156109375760408051602081018481524692820192909252606081018390524260808201526108778160a081015b03601f19810183528261853b565b5190209081600052601960205260ff604060002054166108f357817f0eac795277ccdaac7e14c8fe1d98bd43226bbf804c906006c907bd69e17fd6679260005260196020526040600020600160ff198254161790556108ee6040519283924291846040919493926060820195825260208201520152565b0390a2005b606460405162461bcd60e51b815260206004820152601c60248201527f42617463682073796e6320616c72656164792070726f636573736564000000006044820152fd5b606460405162461bcd60e51b815260206004820152601360248201527f4261746368206e6f7420636f6d6d6974746564000000000000000000000000006044820152fd5b346105cb5761098936618693565b90600052602a602052604060002080548210156105cb576020916109ac91618899565b90549060031b1c604051908152f35b346105cb5760203660031901126105cb576001600160a01b036109dc6185fa565b6109e461a1ad565b168015610a2e576001600160a01b03601154826001600160a01b0319821617601155167f8be0079c531659141344cd1fd0a4f28419497f9722a3daafe3b4186f6b6457e0600080a3005b7f1e4fbdf700000000000000000000000000000000000000000000000000000000600052600060045260246000fd5b346105cb5760203660031901126105cb57604060043580600052600e602052816000205490600052600d602052816000205482519182526020820152f35b346105cb57610aa936618693565b90610ac6610ab68261a1ef565b6001600160a01b03163314618aac565b80600052600d602052610adf6040600020541515618ea4565b8115610b4f576000818152600d602052604090208054908390557faae25428e68522e376ce93b76c86ee0b2c731e1fb78c075ce98eefd45c5db22090610b4a90610b29854661a65d565b60405191829133964291846040919493926060820195825260208201520152565b0390a3005b608460405162461bcd60e51b815260206004820152602260248201527f4d61726b6574706c6163653a204e6577207072696365206d757374206265203e60448201527f20300000000000000000000000000000000000000000000000000000000000006064820152fd5b346105cb5760203660031901126105cb57600435610bd9610ab68261a1ef565b80600052600d602052610bf26040600020541515618ea4565b80600052600d6020526000604081205580600052600e60205260006040812055604051904282527fd485b98108064295773aff464bfd3863b7f7fa61bc62a13a4aefa400c9635a3760203393a3005b346105cb57610c4f366187e1565b610c5761a0f4565b610c7f610c7a8360005260026020526001600160a01b0360406000205416151590565b619102565b81600052600960205260406000209181519267ffffffffffffffff8411610d8457610cb484610cae83546186a9565b83618e2d565b602093601f8111600114610d20578091929394600091610d15575b508160011b916000199060031b1c19161790555b7fee932b4d2f896056bdde7b0bb9104e51cb68dd61583463a5ceccd4fb2e6f692260405180610b4a3395429083619022565b905084015185610ccf565b601f1981169482600052806000209060005b878110610d6c57508260019495969710610d53575b5050811b019055610ce3565b86015160001960f88460031b161c191690558580610d47565b9091602060018192858a015181550193019101610d32565b634e487b7160e01b600052604160045260246000fd5b346105cb576108ee7fdb9c4b403edaf98e643baec2047ad3de24425ca0c893d4116cf9b47321628ffa610dcc366187e1565b610dd793919361a0f4565b610dfa610c7a8560005260026020526001600160a01b0360406000205416151590565b604051918291429083619022565b346105cb576020610e1836618693565b90600052600a825260086040600020015414604051908152f35b346105cb57610e4036618693565b610e4861a082565b816000526026602052600f6040600020610e67600b82015415156188b1565b0154604051602081019184835246604083015283606083015260808201524260a082015260a08152610e9a60c08261853b565b5190209081600052602960205260ff60406000205416610f2457817f4e23ffe6bbca3e91130142e1444dc012e42c63d392c36a32a79699d52c68afd59260005260296020526040600020600160ff1982541617905583600052602a602052610f06826040600020619082565b604080519283526020830191909152429082015280606081016108ee565b606460405162461bcd60e51b815260206004820152601e60248201527f446973707574652073796e6320616c72656164792070726f63657373656400006044820152fd5b346105cb57610f76366187e1565b81600052600d60205260406000205490610f91821515618ea4565b610fc4610fa8610fa08561a1ef565b80938661914d565b80516020820120610fb7618b67565b6020815191012014618ba2565b82600052600b602052604060002090600482019160ff835416600a81101561110357600181149081156110fa575b5015611090576001600160a01b03928333166001600160a01b0319835416178255600182018484166001600160a01b0319825416179055846002830155600260ff1982541617905560054691015583600052600d6020526000604081205561105a834661a65d565b60405192835242602084015216917fe8d0cd58f172a02b6a1f6744b3f6807cb903d155546d2489608791fc8197dd6260403393a4005b608460405162461bcd60e51b815260206004820152603760248201527f4d61726b6574706c6163653a20507572636861736520616c726561647920696e60448201527f2070726f6772657373206f72206e6f74206c69737465640000000000000000006064820152fd5b90501586610ff2565b634e487b7160e01b600052602160045260246000fd5b346105cb57611127366187e1565b61112f61a0f4565b611152610c7a8360005260026020526001600160a01b0360406000205416151590565b81600052600960205260406000209181519267ffffffffffffffff8411610d845761118184610cae83546186a9565b602093601f81116001146111ed5780919293946000916111e2575b508160011b916000199060031b1c19161790555b7fa65e2234b88a4a941336a3efd64582e143db55a0f711b6c92e64173721a9103860405180610b4a3395429083619022565b90508401518561119c565b601f1981169482600052806000209060005b87811061123957508260019495969710611220575b5050811b0190556111b0565b86015160001960f88460031b161c191690558580611214565b9091602060018192858a0151815501930191016111ff565b346105cb5760203660031901126105cb57600435600052600b60205260c060406000206001600160a01b03815416906112ca6001600160a01b03600183015416916002810154600382015490600560ff60048501541693015494604051968752602087015260408601526060850152608084019061885b565b60a0820152f35b346105cb5760403660031901126105cb576112ea6185fa565b6001600160a01b036112fa6185ce565b911660005260056020526001600160a01b0360406000209116600052602052602060ff604060002054166040519015158152f35b346105cb5760203660031901126105cb576004356000908152602b602090815260409182902080546001820154600283015460039093015485519283529382015292830152606082015280608081015b0390f35b346105cb5760203660031901126105cb5760043567ffffffffffffffff81116105cb5761012060031982360301126105cb57604051610120810181811067ffffffffffffffff821117610d84576040526113de82600401618610565b8152602482013567ffffffffffffffff81116105cb5761140490600436918501016185b0565b6020820152604482013567ffffffffffffffff81116105cb5761142d90600436918501016185b0565b6040820152606482013567ffffffffffffffff81116105cb5761145690600436918501016185b0565b6060820152608482013567ffffffffffffffff81116105cb5761147f90600436918501016185b0565b906080810191825260a483013567ffffffffffffffff81116105cb576114ab90600436918601016185b0565b9060a0810191825260c484013567ffffffffffffffff81116105cb576114d790600436918701016185b0565b9260c0820193845260e485013567ffffffffffffffff81116105cb5761150390600436918801016185b0565b9460e083019586526101048101359067ffffffffffffffff82116105cb57600461153092369201016185b0565b61010083019081523360009081527fa4bfd7afe708e2e87e7f0e2ad9b4d545417e0f795f57b5c5ab5d799c565a04f4602052604090205490919060ff1615611ee8576008549361157f85618a28565b60085560208401516040516115c46020606083828101954687528b60408301526115b181518092868686019101618624565b810142838201520301808452018261853b565b519020926001600160a01b03855116976020976040516115e48a8261853b565b600081528a15611ed2576001600160a01b036116008a8d61a7c9565b16611ea3578a3b611d9b575b50909192939495969798506020870151936040880151956060890151905191519251935194516040519661163f8861851e565b87528b870197885260408701918252606087019283526080870193845260a0870194855260c0870195865260e0870152466101008701528761012087015289600052600a8b52604060002096865180519067ffffffffffffffff8211610d84578d82916116b7838d6116b181546186a9565b90618e2d565b81601f8411600114611d355750600092611d2a575b50508160011b916000199060031b1c19161788555b518051600189019167ffffffffffffffff8211610d84578d829161170f8361170987546186a9565b87618e2d565b81601f8411600114611cc45750600092611cb9575b50508160011b916000199060031b1c19161790555b518051600288019167ffffffffffffffff8211610d84578c82916117618361170987546186a9565b81601f8411600114611c535750600092611c48575b50508160011b916000199060031b1c19161790555b5180519067ffffffffffffffff8211610d845781906117ba826117b160038b01546186a9565b60038b01618e2d565b8b90601f8311600114611bda57600092611bcf575b50508160011b916000199060031b1c19161760038601555b518051600486019167ffffffffffffffff8211610d845781906118148261180e86546186a9565b86618e2d565b8b90601f8311600114611b6857600092611b5d575b50508160011b916000199060031b1c19161790555b518051600585019167ffffffffffffffff8211610d845781906118658261180e86546186a9565b8a90601f8311600114611af857600092611aed575b50508160011b916000199060031b1c19161790555b518051600684019167ffffffffffffffff8211610d845781906118b68261180e86546186a9565b8990601f8311600114611a8857600092611a7d575b50508160011b916000199060031b1c19161790555b60e081015180519067ffffffffffffffff8211610d84576119118261190860078701546186a9565b60078701618e2d565b8790601f8311600114611a0857918060099492610120946000926119fd575b50508160011b916000199060031b1c19161760078501555b61010081015160088501550151910155600052600c83526040600020600160ff19825416179055817f375e0936a3cb617a7335be9c8c9720c17bb0511320a3f31891a3050d410e47dc6119cb6001600160a01b03845116936119e66020820151916119d8606060408301519201519160405195869560a0875260a0870190618647565b908582038c870152618647565b908382036040850152618647565b4660608301524260808301520390a3604051908152f35b015190508a80611930565b9060078501600052886000209160005b8a601f1986168210611a6757505092600994926001926101209583601f19811610611a4e575b505050811b016007850155611948565b015160001960f88460031b161c191690558a8080611a3e565b6001849582939585015181550194019201611a18565b0151905089806118cb565b60008581528b81209350601f198516905b8c828210611ad7575050908460019594939210611abe575b505050811b0190556118e0565b015160001960f88460031b161c19169055898080611ab1565b6001859682939686015181550195019301611a99565b015190508a8061187a565b60008581528c81209350601f198516905b8d828210611b47575050908460019594939210611b2e575b505050811b01905561188f565b015160001960f88460031b161c191690558a8080611b21565b6001859682939686015181550195019301611b09565b015190508b80611829565b60008581528d81209350601f198516908e5b828210611bb7575050908460019594939210611b9e575b505050811b01905561183e565b015160001960f88460031b161c191690558b8080611b91565b80600186978294978701518155019601940190611b7a565b015190508b806117cf565b6003890160009081528d81209350601f198516908e5b828210611c30575050908460019594939210611c17575b505050811b0160038601556117e7565b015160001960f88460031b161c191690558b8080611c07565b80600186978294978701518155019601940190611bf0565b015190508d80611776565b60008681528181209450601f198616915b828210611ca1575050908460019594939210611c88575b505050811b01905561178b565b015160001960f88460031b161c191690558d8080611c7b565b80600186978294978701518155019601940190611c64565b015190508e80611724565b60008681528181209450601f198616915b828210611d12575050908460019594939210611cf9575b505050811b019055611739565b015160001960f88460031b161c191690558e8080611cec565b80600186978294978701518155019601940190611cd5565b015190508e806116cc565b60008d81528181209450601f198616915b828210611d83575050908460019594939210611d6a575b505050811b0188556116e1565b015160001960f88460031b161c191690558e8080611d5d565b80600186978294978701518155019601940190611d46565b89611dd9918c8b6000604051809681958294630a85bd0160e11b84523360048501528460248501526044840152608060648401526084830190618647565b03925af18091600091611e5e575b5090611e17578a8a611df761896d565b80519182611e145783633250574960e11b60005260045260246000fd5b01fd5b6001600160e01b0319630a85bd0160e11b919b92939495969798999a9b1603611e4a57509088979695949392918a61160c565b633250574960e11b60005260045260246000fd5b8b81813d8311611e9c575b611e73818361853b565b81010312611e985751906001600160e01b031982168203611e9557508c611de7565b80fd5b5080fd5b503d611e69565b7f73c6ac6e00000000000000000000000000000000000000000000000000000000600052600060045260246000fd5b633250574960e11b600052600060045260246000fd5b63e2517d3f60e01b600052336004527f9f2df0fed2c77648de5860a4cc508cd0818c85b8b8a1ab4ceeef8d981c8956a660245260446000fd5b346105cb5760203660031901126105cb576001600160a01b03611f426185fa565b16600052601e6020526020604060002054604051908152f35b346105cb5760403660031901126105cb57600435611f77618684565b5080600052600b60205260406000206001600160a01b03600182015416330361220d576004015460ff16600a8110156111035760058114908115612202575b50156121985780600052600b602052604060002090600482019160ff835416600a81101561110357600503612108576001600282015491016000808080856001600160a01b038654165af161200961896d565b501561209e577f8cdc8dc08e54a4e57f52077ecf1b4c508758513439cae2aa325dcc85b922fca860406001600160a01b0385935416938151908152426020820152a360ff82541691600860ff19825416179055612069604051809361885b565b600860208301524260408301527ff9bcef435bfe74e733c2545ab921bf4523e81934f4a940d6c9cf81a7f76d05e260603393a3005b608460405162461bcd60e51b815260206004820152602a60248201527f4e4654436f72653a205061796d656e74207472616e7366657220746f2073656c60448201527f6c6572206661696c6564000000000000000000000000000000000000000000006064820152fd5b60a460405162461bcd60e51b815260206004820152604160248201527f4e4654436f72653a205061796d656e742063616e206f6e6c792062652072656c60448201527f65617365642061667465722064656c697665727920636f6e6669726d6174696f60648201527f6e000000000000000000000000000000000000000000000000000000000000006084820152fd5b608460405162461bcd60e51b815260206004820152603360248201527f4e4654436f72653a20496e76616c69642073746174757320666f722073656c6c60448201527f657220746f2072656c656173652066756e6473000000000000000000000000006064820152fd5b600791501482611fb6565b608460405162461bcd60e51b815260206004820152602860248201527f4e4654436f72653a204f6e6c792073656c6c65722063616e2072656c6561736560448201527f207061796d656e740000000000000000000000000000000000000000000000006064820152fd5b346105cb5760203660031901126105cb576040516122948161851e565b60608152602081016060905260408101606090526060810160609052608081016060905260a081016060905260c081016060905260e08101606090526101008101600090526101200160009052600435600052600a60205260406000206040516122fd8161851e565b6040518061230b81856186e3565b03612316908261853b565b8152604051918261232a81600184016186e3565b03612335908461853b565b602082019283526040518061234d81600285016186e3565b03612358908261853b565b6040838101918252518061236f81600386016186e3565b0361237a908261853b565b606084019081526040518061239281600487016186e3565b0361239d908261853b565b60808501908152604051806123b581600588016186e3565b036123c0908261853b565b60a0860190815260405191826123d981600689016186e3565b036123e4908461853b565b60c0870192835260405193846123fd8160078a016186e3565b03612408908661853b565b60e08801948552600887015496610100890197885260090154956101208901968752604051998a9960208b525160208b0161014090526101608b0161244c91618647565b90518a8203601f190160408c01526124649190618647565b9051898203601f190160608b015261247c9190618647565b9051888203601f190160808a01526124949190618647565b9051878203601f190160a08901526124ac9190618647565b9051868203601f190160c08801526124c49190618647565b9051858203601f190160e08701526124dc9190618647565b9051848203601f19016101008601526124f59190618647565b9151610120840152516101408301520390f35b346105cb5760403660031901126105cb5761000e6004356125276185ce565b9061254861254382600052600760205260016040600020015490565b61a166565b61a928565b346105cb5760003660031901126105cb5760206040517f9f2df0fed2c77648de5860a4cc508cd0818c85b8b8a1ab4ceeef8d981c8956a68152f35b346105cb5760403660031901126105cb576001600160a01b036125a96185fa565b16600052602460205260406000206024356000526020526020604060002054604051908152f35b346105cb5760403660031901126105cb576004356125ec6185ce565b8160005260266020526040600020612609600b82015415156188b1565b612613828461aa11565b1561272c576006016001600160a01b033316600052806020526040600020546126c2576001600160a01b038216600052806020526040600020805490600182018092116126ac57556001600160a01b03331660005260205260016040600020556001600160a01b036040519142835216917f29d2bb048b516aaa3bf9bf55ca7d3a4205abe15e02a3983968ea19f32eb016b760203393a4005b634e487b7160e01b600052601160045260246000fd5b608460405162461bcd60e51b815260206004820152604060248201527f446973707574653a20566f7465722068617320616c726561647920766f74656460448201527f20666f7220612063616e64696461746520696e207468697320646973707574656064820152fd5b608460405162461bcd60e51b815260206004820152603a60248201527f446973707574653a204e6f7420612076616c69642061726269747261746f722060448201527f63616e64696461746520666f72207468697320646973707574650000000000006064820152fd5b60203660031901126105cb5760043580600052600b60205260406000206004810160ff815416600a8110156111035760020361293e5734156128d4576001600160a01b03825416330361286a57346003830155600360ff19825416179055600546910155604051348152426020820152817fbca01ff75166910485c564565b74e4f55ac8ba3b2320778b213675df66982a3760403393a36040519060028252600360208301524260408301527ff9bcef435bfe74e733c2545ab921bf4523e81934f4a940d6c9cf81a7f76d05e260603393a3005b608460405162461bcd60e51b815260206004820152602a60248201527f4e4654436f72653a204f6e6c792062757965722063616e206465706f7369742060448201527f636f6c6c61746572616c000000000000000000000000000000000000000000006064820152fd5b608460405162461bcd60e51b815260206004820152603160248201527f4e4654436f72653a20436f6c6c61746572616c20616d6f756e74206d7573742060448201527f62652067726561746572207468616e20300000000000000000000000000000006064820152fd5b606460405162461bcd60e51b815260206004820152602060248201527f4e4654436f72653a204e6f74206177616974696e6720636f6c6c61746572616c6044820152fd5b346105cb5760203660031901126105cb5761000e600435619307565b346105cb5760203660031901126105cb5761137e6129bd60043561928e565b604051918291602083526020830190618647565b346105cb5760003660031901126105cb57600080602354905b8181106129fc57602083604051908152f35b6001600160a01b03612a0d82618868565b90549060031b1c16600052601d60205260ff6040600020541680612a4d575b612a39575b6001016129ea565b91612a45600191618a28565b929050612a31565b506001600160a01b03612a5f82618868565b90549060031b1c16600052602260205260ff6040600020541660038110156111035715612a2c565b346105cb5760603660031901126105cb5760243567ffffffffffffffff81116105cb576129bd612abe61137e9236906004016185b0565b612ac66185e4565b9060043561914d565b346105cb5760203660031901126105cb57600435600052601360205260a06040600020805490600181015490600281015460ff60046003840154930154169260405194855260208501526040840152606083015215156080820152f35b346105cb5760603660031901126105cb57600435602435612b4b6185e4565b612b5361a082565b612b76610c7a8460005260026020526001600160a01b0360406000205416151590565b612b7f8361a1ef565b6001600160a01b0333911603612d15577f3f54e69055dc9e91a94aec8231cf0699ad378473cbe9cc67653285b2e6936f2c9160809184600052600a6020526040600020610120600960405192612bd48461851e565b604051612bec81612be581856186e3565b038261853b565b8452604051612c0281612be581600186016186e3565b6020850152604051612c1b81612be581600286016186e3565b6040850152604051612c3481612be581600386016186e3565b6060850152604051612c4d81612be581600486016186e3565b87850152604051612c6581612be581600586016186e3565b60a0850152604051612c7e81612be581600686016186e3565b60c0850152604051612c9781612be581600786016186e3565b60e0850152600881015461010085015201549101526001600160a01b0360405160208101904682528460408201528760608201526bffffffffffffffffffffffff198460601b168682015242609482015260948152612cf760b48261853b565b519020916040519384521660208301526040820152426060820152a2005b606460405162461bcd60e51b815260206004820152601860248201527f4e4654436f72653a204e6f7420746f6b656e206f776e657200000000000000006044820152fd5b346105cb5760203660031901126105cb57600435600052600f602052602060ff604060002054166040519015158152f35b346105cb5760203660031901126105cb57612da3618a37565b50600435600052602b6020526080612dbe6040600020618a5c565b612de96040518092606080918051845260208101516020850152604081015160408501520151910152565bf35b346105cb5760403660031901126105cb57612e046185fa565b6060612e0e618684565b7f68afcf8e39608adc06ec511d08bb9ea20fd2b6541c8cfbf99aff1c1f5db85ca26001600160a01b03841692839283600052601d602052612e5f8160406000209060ff801983541691151516179055565b33600052601f6020524260406000205583600052601f60205242604060002055836000526020805260406000205415612f00575b6040519015158152466020820152426040820152a2602354600091825b828110612ecb575b50505015612ec257005b61000e9061899d565b816001600160a01b03612edd83618868565b90549060031b1c1614612ef257600101612eb0565b505050506001828080612eb8565b836000526020805246604060002055612e93565b346105cb5760203660031901126105cb5760043560005260166020526020604060002054604051908152f35b346105cb5760203660031901126105cb576020612f7b612f5e6185fa565b6001600160a01b0316600052601d60205260ff6040600020541690565b6040519015158152f35b346105cb5760803660031901126105cb57612f9e6185fa565b612fa66185ce565b906044356064359267ffffffffffffffff84116105cb57366023850112156105cb57612fdf61000e943690602481600401359101618579565b92612feb838383618bea565b3361aa7d565b346105cb5760203660031901126105cb5760043560005260286020526020604060002054604051908152f35b346105cb5760203660031901126105cb5760043560005260126020526101206040600020805490600281015490600481015460058201549060ff8060076006860154950154169460405196875281811615156020880152818160081c16151560408801526001600160a01b038160101c16606088015260b01c161515608086015260a085015260c084015260e08301521515610100820152f35b346105cb5760003660031901126105cb5760206040517f620d362b92b6ef580d4e86c5675d679fe08d31dff47b72f281959a4eecdd036a8152f35b346105cb5760603660031901126105cb5760043560243560443567ffffffffffffffff81116105cb576131299036906004016185b0565b9061313261a0f4565b826000526010602052806002604060002001556046811161314f57005b6131827fba81b0d231f4fd2a6a2ef21aab7fdb86a40420cee5d7e21cfadc96de92129e5e936040519384934292856190e0565b0390a1005b346105cb5760603660031901126105cb5760043560243567ffffffffffffffff81116105cb576131bb9036906004016185b0565b9060443567ffffffffffffffff81116105cb576131dc9036906004016185b0565b916131fd8260005260026020526001600160a01b0360406000205416151590565b156134f45781600052602860205260406000205461348a576027549161322283618a28565b6027558260005260266020526040600020818155600181016001600160a01b0333166001600160a01b031982541617905560038101835167ffffffffffffffff8111610d845761327c8161327684546186a9565b84618e2d565b806020601f82116001146134275760009161341c575b508160011b916000199060031b1c19161790555b6000600482016132bf6132b982546186a9565b82618e03565b5542600b82015546600e820155600f60405160208101908682528460408201523360601b60608201524660748201524260948201526094815261330360b48261853b565b5190209101558060005260286020528260406000205582600052602a602052613330466040600020619082565b46600052602b60205260406000206133488154618a28565b808255600182016133598154618a28565b8155816133c9575b505050827f7c5279635e0a0d42a255e561ec75d8b847d610abd6655dbc68742a23ee89ab456133ae6020966133a160405196608088526080880190618647565b9086820389880152618647565b934660408201524260608201528033950390a4604051908152f35b546064810290808204606414901517156126ac57602096869360026134127f7c5279635e0a0d42a255e561ec75d8b847d610abd6655dbc68742a23ee89ab45956133ae956192cb565b9101559650613361565b905085015188613292565b60008481528181209250601f198416905b81811061347257509083600194939210613459575b5050811b0190556132a6565b87015160001960f88460031b161c19169055888061344d565b9192602060018192868c015181550194019201613438565b608460405162461bcd60e51b815260206004820152602c60248201527f446973707574653a20546f6b656e20616c72656164792068617320616e20616360448201527f74697665206469737075746500000000000000000000000000000000000000006064820152fd5b606460405162461bcd60e51b815260206004820152601d60248201527f446973707574653a20546f6b656e20646f6573206e6f742065786973740000006044820152fd5b346105cb5760403660031901126105cb576135516185ce565b60043560005260186020526001600160a01b0360406000209116600052602052602060ff604060002054166040519015158152f35b346105cb5760403660031901126105cb5761359f6185ce565b60043560005260176020526001600160a01b0360406000209116600052602052602060ff60406000205416604051908152f35b346105cb5760403660031901126105cb576135eb6185fa565b6001600160a01b036135fb618684565b9116908115613663573360005260056020526040600020826000526020526136338160406000209060ff801983541691151516179055565b60405190151581527f17307eab39ab6107e8899845ad3d59bd9653f200f220920489ca2b5937696c3160203392a3005b507f5b08ba180000000000000000000000000000000000000000000000000000000060005260045260246000fd5b346105cb5760003660031901126105cb57602060405160008152f35b346105cb5760203660031901126105cb57600435600090815260106020908152604091829020805460018201546002830154600390930154855192835293820152928301526060820152608090f35b346105cb5760203660031901126105cb576004356000526013602052602060ff600460406000200154166040519015158152f35b346105cb5760203660031901126105cb57600435600061014060405161375581618501565b828152606060208201528260408201528260608201528260808201528260a0820152606060c08201528260e0820152826101008201528261012082015201528060005260126020526137ad6040600020541515618db8565b60005260126020526040600020604051906137c782618501565b80548252600181019081546137db8161866c565b926137e9604051948561853b565b818452602084019060005260206000206000915b83831061398e575050505060208301918252600281015490604084019060ff8316151582526060850160ff8460081c161515815260808601936001600160a01b038160101c16855260ff60a088019160b01c161515815261386060038401618f2d565b9060c0880191825260048401549560e089019687526005850154936101008a0194855260ff60076006880154976101208d01988952015416966101408b0197151588526040519960208b526101808b019b5160208c0152519a61016060408c01528b5180915260206101a08c019c019060005b8181106139435750509051151560608b0152505115156080890152516001600160a01b031660a088015251151560c087015251858703601f190160e0870152949586956139209190618811565b935161010086015251610120850152516101408401525115156101608301520390f35b90919c602060808f926060600194516001600160a01b0381511683526001600160a01b038582015116858401526040810151604084015201516060820152019e0191019190916138d3565b6004602060019261399e8561903e565b8152019201920191906137fd565b346105cb5760203660031901126105cb577fcccd7470f2393db72d45a7c5dfe522e17262591370cad68afe786cd7cc3e4a5f6004356139e961a082565b46600052602b602052600260406000200154604051613a2b81610869602082019442908746889290916080949284526020840152604083015260608201520190565b5190206040805146815260208101939093528201524260608201528060808101613182565b60003660031901126105cb573415613a90576040513481527f543ba50a5eec5e6178218e364b1d0f396157b3c8fa278522c2cb7fd99407d47460203392a2005b608460405162461bcd60e51b815260206004820152602860248201527f4465706f73697420616d6f756e74206d7573742062652067726561746572207460448201527f68616e207a65726f0000000000000000000000000000000000000000000000006064820152fd5b346105cb5760203660031901126105cb576001600160a01b03613b1b6185fa565b166000526021602052602060ff60406000205416612de9604051809261884e565b346105cb5760203660031901126105cb57600435600052602a6020526020600160406000205411604051908152f35b346105cb57613b79366187e1565b613b8161a0f4565b816000526009602052613b986040600020546186a9565b15613c755781600052600960205260406000209181519267ffffffffffffffff8411610d8457613bcc84610cae83546186a9565b602093601f8111600114613c2b5780919293946000916111e257508160011b916000199060031b1c19161790557fa65e2234b88a4a941336a3efd64582e143db55a0f711b6c92e64173721a9103860405180610b4a3395429083619022565b601f1981169482600052806000209060005b878110613c5d57508260019495969710611220575050811b0190556111b0565b9091602060018192858a015181550193019101613c3d565b608460405162461bcd60e51b815260206004820152603360248201527f4e4654436f72653a20496e697469616c20434944206e6f74207365742c20636160448201527f6e6e6f742075706461746520686973746f7279000000000000000000000000006064820152fd5b346105cb5760403660031901126105cb57600435613cfb618684565b81600052601860205260406000206001600160a01b03331660005260205260ff6040600020541615613ece5781600052601260205260ff60026040600020613d4581541515618db8565b0154613d56828260081c1615618fd7565b60b01c16613e8a5781600052601760205260406000206001600160a01b03331660005260205260ff60406000205416613e46577fe818defc9a8ca1f6fbdf8531354774bda6ea733a4c31e25f8e515acbeadf237c916060918015613e3f5760015b82600052601760205260406000206001600160a01b03331660005260205260ff6040600020911660ff1982541617905580600014613e20578160005260156020526040600020613e078154618a28565b90555b60405191825233602083015215156040820152a1005b8160005260166020526040600020613e388154618a28565b9055613e0a565b6002613db7565b606460405162461bcd60e51b815260206004820152600d60248201527f416c726561647920766f746564000000000000000000000000000000000000006044820152fd5b606460405162461bcd60e51b815260206004820152601860248201527f426174636820666c616767656420666f722072657669657700000000000000006044820152fd5b608460405162461bcd60e51b815260206004820152602760248201527f4e6f7420612073656c65637465642076616c696461746f7220666f722074686960448201527f73206261746368000000000000000000000000000000000000000000000000006064820152fd5b346105cb57613f4636618693565b81600052600e6020526040600020541480613f69575b6020906040519015158152f35b50600052600d60205260206040600020541515613f5c565b346105cb5760003660031901126105cb576040516000600154613fa3816186a9565b808452906001811690811561402a5750600114613fcb575b61137e836129bd8185038261853b565b600160009081527fb10e2d527612073b26eecdfd717e6a320cf44b4afac2b0732d9fcbe2b7fa0cf6939250905b808210614010575090915081016020016129bd613fbb565b919260018160209254838588010152019101909291613ff8565b60ff191660208086019190915291151560051b840190910191506129bd9050613fbb565b346105cb5760803660031901126105cb5760043560243567ffffffffffffffff81116105cb576140829036906004016185b0565b9060443567ffffffffffffffff81116105cb576140a39036906004016185b0565b6064359160ff83168093036105cb578060005260266020526040600020936140d0600b86015415156188b1565b600785019485546001600160a01b038116330361427c5760ff6140f79160a01c1615618f81565b8151956008820167ffffffffffffffff8811610d845761411b88610cae83546186a9565b602097601f81116001146141ef5790816141d09493927f7d5ca077a7c411d8d9df6f5f8a1dd0e461955e644fb0f9874709ca3eb6b6f06e9798999a6000916141e4575b508160011b916000199060031b1c19161790555b6000600983016141856132b982546186a9565b55600a82018860ff19825416179055600160a01b60ff60a01b1982541617905542600c82015554946141c260405193608085526080850190618647565b908382036020850152618647565b9460408201524260608201528033950390a4005b90508601518b61415e565b601f19811682600052896000209060005b8181106142645750916001917f7d5ca077a7c411d8d9df6f5f8a1dd0e461955e644fb0f9874709ca3eb6b6f06e98999a9b826141d0989796951061424b575b5050811b019055614172565b88015160001960f88460031b161c191690558b8061423f565b878c0151835560209b8c019b60019093019201614200565b608460405162461bcd60e51b815260206004820152603560248201527f446973707574653a204f6e6c792073656c65637465642061726269747261746f60448201527f722063616e207265636f7264206465636973696f6e00000000000000000000006064820152fd5b346105cb5760003660031901126105cb576020601b54604051908152f35b346105cb5760403660031901126105cb5761431d6185fa565b6024356001600160a01b0382169182600052601d60205260ff60406000205416156144585782600052601e6020526040600020546040519060208201926bffffffffffffffffffffffff199060601b16835246603483015283605483015260748201524260948201526094815261439560b48261853b565b51902080600052602560205260ff60406000205416614414576000818152602560209081526040808320805460ff19166001179055858352601e825291829020548251948552908401528201524260608201527f8f883fe599566e8f17c73b1b61b0a3534f51ae5a8105a2024612857c084b2ca79080608081016108ee565b606460405162461bcd60e51b815260206004820152601660248201527f53796e6320616c72656164792070726f636573736564000000000000000000006044820152fd5b606460405162461bcd60e51b815260206004820152601160248201527f4e6f6465206e6f742076657269666965640000000000000000000000000000006044820152fd5b346105cb5760403660031901126105cb576144b56185ce565b60043560005260076020526001600160a01b0360406000209116600052602052602060ff604060002054166040519015158152f35b346105cb5760003660031901126105cb5760206001600160a01b0360115416604051908152f35b346105cb5760203660031901126105cb57600435600052600960205261137e612be56129bd6040600020604051928380926186e3565b346105cb5760603660031901126105cb5760043560243567ffffffffffffffff81116105cb5761457b9036906004016185b0565b906044359060ff82168092036105cb578060005260266020526040600020926145a9600b85015415156188b1565b60078401936145bf60ff865460a01c1615618f81565b6145c9338461aa11565b15614721578151946008820167ffffffffffffffff8711610d84576145f287610cae83546186a9565b602096601f811160011461469a57807f0d54b594e7fc05c55c4294ec2b4c7f7212afb796c4728ce71a31c290d96276cb96979860009161468f575b508160011b916000199060031b1c19161790555b600a82018660ff19825416179055600160a01b60ff60a01b19825416179055600c4291015561467b60405191606083526060830190618647565b9360208201524260408201528033940390a3005b90508501518961462d565b601f1981169782600052806000209860005b81811061470957509882916001937f0d54b594e7fc05c55c4294ec2b4c7f7212afb796c4728ce71a31c290d96276cb999a9b106146f0575b5050811b019055614641565b87015160001960f88460031b161c1916905589806146e4565b878301518b556001909a0199602092830192016146ac565b608460405162461bcd60e51b815260206004820152602d60248201527f446973707574653a2043616c6c6572206973206e6f7420616e20617070726f7660448201527f65642061726269747261746f72000000000000000000000000000000000000006064820152fd5b346105cb5760203660031901126105cb576004358060005260266020526040600020906147bd600b83015415156188b1565b60078201546001600160a01b03811633148015614973575b156149095760a01c60ff161561489f57600a82019182549060ff8260181c1661485b5760ff60409163010000007f5d2f33b14eabfbfdd3511bed79b0814e903ecdc3f72677cf47e39986f4e4edc49463ff000000191617865542600d8201558054600052602860205260008381205554945460181c1681519015158152426020820152a3005b606460405162461bcd60e51b815260206004820152601a60248201527f446973707574653a20416c726561647920636f6e636c756465640000000000006044820152fd5b608460405162461bcd60e51b815260206004820152602e60248201527f446973707574653a204465636973696f6e206d757374206265207265636f726460448201527f656420746f20636f6e636c7564650000000000000000000000000000000000006064820152fd5b608460405162461bcd60e51b815260206004820152602360248201527f446973707574653a204e6f7420617574686f72697a656420746f20636f6e636c60448201527f75646500000000000000000000000000000000000000000000000000000000006064820152fd5b506001600160a01b0360018401541633146147d5565b346105cb5760003660031901126105cb576020601454604051908152f35b346105cb5760203660031901126105cb5760043580600052600b6020526040600020600481019060ff825416600a81101561110357600503614ad257546001600160a01b03163303614a6857600760ff19825416179055604051428152817f07d2fc169653178f35f949fe0a13f4bed8a156a2961aa8bc8190ace002183ea160203393a36040519060058252600760208301524260408301527ff9bcef435bfe74e733c2545ab921bf4523e81934f4a940d6c9cf81a7f76d05e260603393a3005b608460405162461bcd60e51b815260206004820152602760248201527f4e4654436f72653a204f6e6c792062757965722063616e20636f6e6669726d2060448201527f72656365697074000000000000000000000000000000000000000000000000006064820152fd5b60a460405162461bcd60e51b815260206004820152604260248201527f4e4654436f72653a205472616e73706f7274206e6f7420636f6d706c6574656460448201527f206f72207075726368617365206e6f7420696e20636f7272656374207374617460648201527f75730000000000000000000000000000000000000000000000000000000000006084820152fd5b346105cb57614b7036618693565b614b7861a082565b81600052602660205260046040600020614b97600b82015415156188b1565b0190614ba382546186a9565b15614bf3577f41f8dc6b3aa5a564b8f988d68b803ea1cfea8d5eeea906c28487fd48a60bd7d491614be2916040519283926060845260608401906186e3565b9060208301524260408301520390a2005b608460405162461bcd60e51b815260206004820152602160248201527f446973707574653a204e6f2065766964656e63652043494420746f20736861726044820152606560f81b6064820152fd5b346105cb5760003660031901126105cb57614c5a61a1ad565b60006001600160a01b036011546001600160a01b03198116601155167f8be0079c531659141344cd1fd0a4f28419497f9722a3daafe3b4186f6b6457e08280a3005b346105cb5760203660031901126105cb576001600160a01b03614cbd6185fa565b168015614cdc5760005260036020526020604060002054604051908152f35b7f89c62b6400000000000000000000000000000000000000000000000000000000600052600060045260246000fd5b346105cb5760203660031901126105cb57600435600052600e6020526020604060002054604051908152f35b346105cb5760203660031901126105cb57600435806000526012602052614d646040600020541515618db8565b600052601260205261137e614d7f6003604060002001618f2d565b604051918291602083526020830190618811565b346105cb5760803660031901126105cb576004356044356064356001600160a01b03811681036105cb57614dc561a082565b81600052600c60205260ff60406000205416614e7b57816108ee917fa3a991a71d3247ab61fac0a1c51e6e57e9fd7348ef65b4ffb783b29b7bd62fff93600052600c6020526040600020600160ff1982541617905584614e3b8160005260026020526001600160a01b0360406000205416151590565b614e62575b5050604080516024358152602081019290925242908201529081906060820190565b614e7491614e6f8261a1ef565b61a9b7565b8484614e40565b608460405162461bcd60e51b815260206004820152602660248201527f4e4654436f72653a2043726f73732d636861696e206861736820616c7265616460448201527f79207573656400000000000000000000000000000000000000000000000000006064820152fd5b346105cb57614ef3366187e1565b90614efc61a1ad565b600052602660205260096040600020614f1a600b82015415156188b1565b01815167ffffffffffffffff8111610d8457614f3a8161327684546186a9565b602092601f8211600114614f775792819293600092614f6c575b5050600019600383901b1c191660019190911b179055005b015190508380614f54565b601f1982169383600052806000209160005b868110614fbf5750836001959610614fa6575b505050811b019055005b015160001960f88460031b161c19169055838080614f9c565b91926020600181928685015181550194019201614f89565b346105cb5760a03660031901126105cb5760243560043567ffffffffffffffff82116105cb57366023830112156105cb578160040135916150178361866c565b92615025604051948561853b565b8084526024602085019160051b830101913683116105cb57602401905b8282106152dc5750505060443567ffffffffffffffff81116105cb5761506c9036906004016185b0565b9160643567ffffffffffffffff81116105cb5761508d9036906004016185b0565b6150968361a1ef565b6001600160a01b0333911603615272578151156152085782600052600b602052600460406000200160ff81541694600a861015611103576003860361519357849261512e61513c927f5b73404d823e2f3c39e58255c54513683e0bc6664202bfad9b444c0ff7bb16f294600460ff198254161790556151206040519760a0895260a0890190618811565b908782036020890152618647565b908582036040870152618647565b9260843560608201524260808201528033940390a361515e604051809361885b565b600460208301524260408301527ff9bcef435bfe74e733c2545ab921bf4523e81934f4a940d6c9cf81a7f76d05e260603393a3005b60a460405162461bcd60e51b815260206004820152604260248201527f4d61726b6574706c6163653a20436f6c6c61746572616c206e6f74206465706f60448201527f7369746564206f72207472616e73706f727420616c72656164792068616e646c606482015261195960f21b6084820152fd5b608460405162461bcd60e51b815260206004820152603260248201527f4d61726b6574706c6163653a204d7573742073706563696679206174206c656160448201527f7374206f6e65207472616e73706f7274657200000000000000000000000000006064820152fd5b608460405162461bcd60e51b815260206004820152602b60248201527f4d61726b6574706c6163653a204f6e6c79206f776e65722063616e207374617260448201527f74207472616e73706f72740000000000000000000000000000000000000000006064820152fd5b602080916152e984618610565b815201910190615042565b346105cb5760203660031901126105cb576004356000526019602052602060ff604060002054166040519015158152f35b346105cb5760203660031901126105cb57602061534360043561a1ef565b6001600160a01b0360405191168152f35b346105cb5760403660031901126105cb576004356153706185ce565b9080600052602660205260406000209061538f600b83015415156188b1565b60078201546001600160a01b03811633036155905760ff6153b39160a01c166188fc565b600a82019160ff835460081c16615527576001600160a01b0384169081156154d45754926153e08461a1ef565b946001600160a01b03861695838714615444576153fe91869161a783565b61010061ff001982541617905560405193845260208401524260408401527ff8eb5e94c2971ec671c5d8ca286f2cbafdab54c26e0e8e7b492c9f4461be1fc260603394a4005b60a460405162461bcd60e51b815260206004820152604660248201527f446973707574653a204e465420616c7265616479206f776e656420627920746860448201527f652072657475726e546f41646472657373206f7220696e76616c6964206f706560648201527f726174696f6e00000000000000000000000000000000000000000000000000006084820152fd5b608460405162461bcd60e51b815260206004820152602660248201527f446973707574653a2052657475726e20616464726573732063616e6e6f74206260448201526565207a65726f60d01b6064820152fd5b608460405162461bcd60e51b8152602060048201526024808201527f446973707574653a204e46542072657475726e20616c726561647920656e666f60448201527f72636564000000000000000000000000000000000000000000000000000000006064820152fd5b608460405162461bcd60e51b815260206004820152602d60248201527f446973707574653a204f6e6c792073656c65637465642061726269747261746f60448201527f722063616e20656e666f726365000000000000000000000000000000000000006064820152fd5b346105cb5760203660031901126105cb5760043560005260156020526020604060002054604051908152f35b346105cb5760203660031901126105cb576004356000526025602052602060ff604060002054166040519015158152f35b346105cb5760403660031901126105cb576156706185fa565b6024359060068210156105cb576001600160a01b03166000818152602160205260409020805460ff16926156e0916156a9908290618f15565b33600052601f6020524260406000205582600052601f602052426040600020556156d6604051809561884e565b602084019061884e565b4260408301527f815449a590c5ed423cfd77061003e41080bc0e307e652755d1925b3bcc5c030360603393a3005b346105cb5760403660031901126105cb5760043561572a618684565b5080600052600b60205260406000209060ff600483015416600a811015611103576005036159de576001600160a01b0382541680331480156159a6575b1561593c576157758261a1ef565b6001600160a01b0381168281036158ba575b50505080600052600b6020526040600020600481019060ff825416600a81101561110357600503612108576001600282015491016000808080856001600160a01b038654165af16157d661896d565b501561209e577f8cdc8dc08e54a4e57f52077ecf1b4c508758513439cae2aa325dcc85b922fca860406001600160a01b0386935416938151908152426020820152a360ff81541690600860ff19825416179055615836604051809261885b565b60086020820152426040820152817ff9bcef435bfe74e733c2545ab921bf4523e81934f4a940d6c9cf81a7f76d05e260603393a36001600160a01b03825416907f0c2a33a9a3abcc53b1822424c01e07012291c3b18558eaf6e9770f5a0d233a18604060026001600160a01b036001870154169501548151908152426020820152a4005b156158d2576158ca91839161a783565b828080615787565b608460405162461bcd60e51b815260206004820152602b60248201527f4e4654436f72653a20496e76616c69642063757272656e74206f776e6572206660448201527f6f72207472616e736665720000000000000000000000000000000000000000006064820152fd5b608460405162461bcd60e51b815260206004820152603160248201527f4e4654436f72653a204f6e6c79206275796572206f722061646d696e2063616e60448201527f20636f6e6669726d2064656c69766572790000000000000000000000000000006064820152fd5b503360009081527f6d5257204ebe7d88fd91ae87941cb2dd9d8062b64ae5a2bd2d28ec40b9fbf6df602052604090205460ff16615767565b60a460405162461bcd60e51b815260206004820152604560248201527f4e4654436f72653a2050726f64756374206e6f7420796574206d61726b65642060448201527f6173207472616e73706f727420636f6d706c65746564206279207472616e737060648201527f6f727465720000000000000000000000000000000000000000000000000000006084820152fd5b346105cb5760203660031901126105cb576020615aa6615a8c6185fa565b6001600160a01b0316600052601e60205260406000205490565b604051908152f35b346105cb5760203660031901126105cb5760006080604051615acf816184e5565b8281528260208201528260408201528260608201520152600435600052601360205260a06040600020604051615b04816184e5565b81549182825260018101546020830190815260028201549060408401918252608060ff600460038601549560608801968752015416940193151584526040519485525160208501525160408401525160608301525115156080820152f35b346105cb5760203660031901126105cb57600435806000526026602052604060002090615b94600b83015415156188b1565b60078201906001600160a01b03825416615d1557600583019283548015615cd1576000906006830182805b838110615c8257505050506001600160a01b0316928315615c1857836001600160a01b031982541617905554907f91a764c72e37b4e471c61b67bbb44c26fef0c7d249943594c9960af23171f84c6020604051428152a4005b608460405162461bcd60e51b815260206004820152603760248201527f446973707574653a204e6f2076616c69642061726269747261746f722073656c60448201527f65637465642028746965206f72206e6f20766f746573290000000000000000006064820152fd5b6001600160a01b03615c94828b618899565b90549060031b1c16604060006001600160a01b0383168152856020522054838111615cc4575b5050600101615bbf565b909550915060018a615cba565b606460405162461bcd60e51b815260206004820152602060248201527f446973707574653a204e6f2063616e6469646174657320617661696c61626c656044820152fd5b608460405162461bcd60e51b8152602060048201526024808201527f446973707574653a2041726269747261746f7220616c72656164792073656c6560448201527f63746564000000000000000000000000000000000000000000000000000000006064820152fd5b346105cb5760003660031901126105cb5760206040517f73e573f9566d61418a34d5de3ff49360f9c51fec37f7486551670290f6285dab8152f35b346105cb5760203660031901126105cb576004356000526029602052602060ff604060002054166040519015158152f35b346105cb5761000e615dfb36618766565b9060405192615e0b60208561853b565b60008452612feb838383618bea565b60603660031901126105cb5760043560243567ffffffffffffffff81116105cb57615e499036906004016185b0565b906044359080600052600d60205260406000205491615e69831515618ea4565b82341061604b57615e87610fa8615e7f8461a1ef565b80968561914d565b60405160208101908382524660408201528260608201523360601b60808201526001600160a01b038616956bffffffffffffffffffffffff199060601b1660948201528460a88201524260c882015260c88152615ee560e88261853b565b5190209081600052600f60205260ff60406000205416615ffb5760c07fd8fe41f1b26559cae8be1aa40550d390dd1f3fef265bcb9d4a75e038f1fc9b9b918493600052600f6020526040600020600160ff1982541617905583600052600b60205280600560406000206001600160a01b0333166001600160a01b0319825416178155600181018a6001600160a01b031982541617905588600282015560048101600260ff19825416179055015583600052600d602052600060408120556040519046825260208201523360408201528660608201528560808201524260a0820152a26040519182524260208301527fe8d0cd58f172a02b6a1f6744b3f6807cb903d155546d2489608791fc8197dd6260403393a4005b608460405162461bcd60e51b815260206004820152602360248201527f43726f73732d636861696e20747261646520616c72656164792070726f6365736044820152621cd95960ea1b6064820152fd5b608460405162461bcd60e51b815260206004820152603a60248201527f4d61726b6574706c6163653a20496e73756666696369656e74207061796d656e60448201527f7420666f722063726f73732d636861696e2070757263686173650000000000006064820152fd5b346105cb5760003660031901126105cb576023546160d281618e72565b906000805b8281106160f4576040516020808252819061137e90820187618811565b6001600160a01b0361610582618868565b90549060031b1c16600052601d60205260ff6040600020541661612b575b6001016160d7565b9061615b6001916001600160a01b0361614385618868565b90549060031b1c1661615582886189e1565b52618a28565b919050616123565b346105cb5760203660031901126105cb57600435600052600a60205260406000206040518061619281846186e3565b0361619d908261853b565b60405191826161af81600184016186e3565b036161ba908461853b565b604051806161cb81600285016186e3565b036161d6908261853b565b604051806161e781600386016186e3565b036161f2908261853b565b6040518061620381600487016186e3565b0361620e908261853b565b6040518061621f81600588016186e3565b0361622a908261853b565b604051918261623c81600689016186e3565b03616247908461853b565b60405193846162598160078a016186e3565b03616264908661853b565b6008870154966009015495604051998a996101408b526101408b0161628891618647565b8a810360208c015261629991618647565b89810360408b01526162aa91618647565b88810360608a01526162bb91618647565b87810360808901526162cc91618647565b86810360a08801526162dd91618647565b85810360c08701526162ee91618647565b84810360e08601526162ff91618647565b916101008401526101208301520390f35b346105cb5761631e366187e1565b9061632761a1ad565b600052602660205260046040600020616345600b82015415156188b1565b01815167ffffffffffffffff8111610d84576163658161327684546186a9565b602092601f82116001146163965792819293600092614f6c575050600019600383901b1c191660019190911b179055005b601f1982169383600052806000209160005b8681106163c45750836001959610614fa657505050811b019055005b919260206001819286850151815501940192016163a8565b346105cb5760403660031901126105cb576163f56185ce565b336001600160a01b038216036164115761000e9060043561a928565b7f6697b2320000000000000000000000000000000000000000000000000000000060005260046000fd5b346105cb5760203660031901126105cb576001600160a01b0361645c6185fa565b16600052602080526020604060002054604051908152f35b346105cb5760003660031901126105cb576020601a54604051908152f35b346105cb5760603660031901126105cb57600435602435604435801515918282036105cb577f252df827edd91321527f79c58917f884a1c7f063517a39c44a193c4561a5c4719261652f6060936164e761a1ad565b8660005260126020526165006040600020541515618db8565b600087815260136020526040902060038101859055600401805491151560ff1660ff1992909216919091179055565b601c54821161654d575b6040519182526020820152426040820152a2005b8460005260126020526002604060002001600160b01b60ff60b01b19825416179055847fcc6a2606765e2313c9782fab70f9e0d94c139bc9c5b48d62969652ba50f467ca84604051858152336020820152426040820152a2616539565b346105cb5760403660031901126105cb5761000e6004356165c96185ce565b906165e561254382600052600760205260016040600020015490565b61a88e565b346105cb5760403660031901126105cb576166036185fa565b6024359061660f61a1ad565b7ff56fac7273f06bd3ca26040588f3a7fc575310260588fcc0286b75186978828c60406001600160a01b03815193616647838661853b565b600d85527f41646d696e2050656e616c7479000000000000000000000000000000000000006020860152169283600052601e60205283600052601e602052848260002054116000146167045783600052601e602052816000206166ab8682546192fa565b90555b83600052601e60205281600020548460005260246020528260002046600052602052826000205583600052601f60205242826000205583600052601e602052610b4a8260002054925192839233974292856190e0565b83600052601e6020526000828120556166ae565b346105cb5760203660031901126105cb576001600160a01b036167396185fa565b166000526022602052602060ff60406000205416612de960405180926187d4565b346105cb5760003660031901126105cb576020601c54604051908152f35b346105cb5760203660031901126105cb57600435600052602a602052604060002060405190816020825491828152019160005260206000209060005b8181106167df5761137e856167cb8187038261853b565b6040519182916020835260208301906187a0565b82548452602090930192600192830192016167b4565b346105cb5760203660031901126105cb576020615aa6600435600052600760205260016040600020015490565b346105cb5761000e61683336618766565b91618bea565b346105cb5760403660031901126105cb576168526185fa565b6024359060038210156105cb576001600160a01b03166000818152602260205260409020805460ff16926168c29161688b908290618bd2565b33600052601f6020524260406000205582600052601f602052426040600020556168b860405180956187d4565b60208401906187d4565b4260408301527fcab7ce6725ac763bb0a0e517ab3c529f236387e40cd050ef6f853e3ec9f5d67e60603393a3005b346105cb5760803660031901126105cb5760043560243561690f6185e4565b9160643567ffffffffffffffff81116105cb576169309036906004016185b0565b9161693a8261a1ef565b6001600160a01b0333911603616b8a576001600160a01b038416938415616b2057616969610fa833868661914d565b82602061697546618a8e565b0191825180159081159182616ae6575b50506169979350616a4f575b3361a783565b46600052602b6020526040600020906169b08254618a28565b9182815582616a00575b507f568de940323aa361b9675f616fd8eb6614659427ed5a4776949e34c05a7ca7ff915060405190815260406020820152806169fb33956040830190618647565b0390a4005b6001810154926064840293808504606414901517156126ac57616a466002917f568de940323aa361b9675f616fd8eb6614659427ed5a4776949e34c05a7ca7ff956192cb565b910155856169ba565b46600052602b6020526001604060002001616a6a8154618a28565b90557fba81b0d231f4fd2a6a2ef21aab7fdb86a40420cee5d7e21cfadc96de92129e5e60e06040514681526050602082015260806040820152602160808201527f5072696365206f75747369646520464c2076616c69646174696f6e2072616e6760a0820152606560f81b60c0820152426060820152a1616991565b915092506005830292830460051417156126ac576169979285928511908115616b12575b508880616985565b600591505104841088616b0a565b608460405162461bcd60e51b815260206004820152602c60248201527f537570706c79436861696e4e46543a2042757965722063616e6e6f742062652060448201527f7a65726f206164647265737300000000000000000000000000000000000000006064820152fd5b608460405162461bcd60e51b815260206004820152602760248201527f537570706c79436861696e4e46543a2043616c6c6572206973206e6f7420746860448201527f65206f776e6572000000000000000000000000000000000000000000000000006064820152fd5b346105cb5760203660031901126105cb5760043560005260266020526040600020805460018201546001600160a01b03169160028101546001600160a01b03166040519182806003830190616c48916186e3565b03616c53908461853b565b6040519283616c6581600485016186e3565b03616c70908561853b565b6007820154604051949085616c8881600887016186e3565b03616c93908761853b565b60405180616ca481600988016186e3565b03616caf908261853b565b600a85015496600b86015492600c87015494600d88015496600e89015498600f0154996040519d8e809e81526020015260408d015260608c0161024090526102408c01616cfb91618647565b8b810360808d0152616d0c91618647565b906001600160a01b03811660a08c015260a01c60ff16151560c08b015289810360e08b0152616d3a91618647565b8881036101008a0152616d4c91618647565b9560ff81166101208901528060081c60ff1615156101408901528060101c60ff16151561016089015260181c60ff1615156101808801526101a08701526101c08601526101e08501526102008401526102208301520390f35b346105cb57616db336618693565b906020616dbf46618a8e565b0180519081159182159283616f34575b505050616e9d575b616de3610ab68261a1ef565b616dee821515618b1c565b80600052600d6020528160406000205580600052600e60205246604060002055616e18824661a65d565b60408051928352466020840152429083015233917fccb1621dcc30e09848c54defbaf40575191e12eadea586920359ae72fd5c1e8b90606090a346600052602b6020526040600020616e6a8154618a28565b80825580616e7457005b60018201546064810290808204606414901517156126ac57600291616e98916192cb565b910155005b46600052602b6020526001604060002001616eb88154618a28565b90557fba81b0d231f4fd2a6a2ef21aab7fdb86a40420cee5d7e21cfadc96de92129e5e60e06040514681526050602082015260806040820152602160808201527f5072696365206f75747369646520464c2076616c69646174696f6e2072616e6760a0820152606560f81b60c0820152426060820152a1616dd7565b909192506005820291820460051417156126ac578311908115616f5b575b50838080616dcf565b600591505104821083616f52565b346105cb5760603660031901126105cb5760243560443560043567ffffffffffffffff82116105cb57366023830112156105cb57816004013591616fac8361866c565b92616fba604051948561853b565b8084526024602085019160051b830101913683116105cb57602401905b8282106171fe57505050616fed610ab68261a1ef565b616ff8831515618b1c565b8151156171945780600052600d6020528260406000205580600052600e60205246604060002055617029834661a65d565b60005b82518110156170c85780827f210e938ffbe9c14fa812cbc59c988e4ac9e075b494edf4b0cea1e9f3a87adb0a617064600194876189e1565b51604051602081019184835246604083015260608201528860808201524260a082015260a0815261709660c08261853b565b5190206170a384886189e1565b5160408051918252602082018a9052810191909152426060820152608090a20161702c565b5090604051827fccb1621dcc30e09848c54defbaf40575191e12eadea586920359ae72fd5c1e8b33928061710f42468a846040919493926060820195825260208201520152565b0390a3805161711d81618e72565b9360005b82811061717f57847f558eb8879566f0ce30667d563ade335ce59ca27e081eb1024047fa3f44455ca2617166866171748a6040519384936060855260608501906187a0565b9083820360208501526187a0565b4260408301520390a2005b808261718d600193896189e1565b5201617121565b608460405162461bcd60e51b815260206004820152602760248201527f4d61726b6574706c6163653a204d75737420737065636966792074617267657460448201527f20636861696e73000000000000000000000000000000000000000000000000006064820152fd5b8135815260209182019101616fd7565b346105cb5760203660031901126105cb576001600160a01b0361722f6185fa565b16600052601f6020526020604060002054604051908152f35b346105cb5760203660031901126105cb576080612dbe600435618a8e565b346105cb5760203660031901126105cb57600435600052600d6020526020604060002054604051908152f35b346105cb5760003660031901126105cb576172ab61a1ad565b600060015b601454811015617315578060005260126020526002604060002001805460ff8160b01c1680617307575b6172e9575b50506001016172b0565b60ff60b01b19169055906001906172ff90618a28565b9190836172df565b5060ff8160081c16156172da565b7d54ef8760fbedf24d8e00b6023408a37849f9a1ee0252df69dff968c08225602083604051908152a1005b346105cb5760003660031901126105cb576020602754604051908152f35b346105cb5760403660031901126105cb5760043567ffffffffffffffff81116105cb57366023820112156105cb57806004013561739a8161866c565b916173a8604051938461853b565b8183526024602084019260071b820101903682116105cb57602401915b81831061783557836173d5618684565b33600052601d60205260ff6040600020541680617811575b156177a757601454918260005260126020526040600020918383556002830180547fffffffffffffffffffff0000000000000000000000000000000000000000ffff75ffffffffffffffffffffffffffffffffffffffff00003360101b1691161790554660058401558061747081600786019060ff801983541691151516179055565b61776b575b60018301939260005b83518110156175325761749181856189e1565b5190865468010000000000000000811015610d84578060016174b692018955886189f5565b61751c5760036060846001600160a01b03806001975116166001600160a01b03198554161784556001600160a01b036020820151166001600160a01b0387860191166001600160a01b03198254161790556040810151600285015501519101550161747e565b634e487b7160e01b600052600060045260246000fd5b5083617540601a548261a226565b916003810183519067ffffffffffffffff8211610d8457680100000000000000008211610d8457805482825580831061774d575b506020850190600052602060002060005b83811061773057505050506004835191015560005b82518110156175ec576001908260005260186020526040806000206001600160a01b036175c784886189e1565b5116906001600160a01b03600092168252602052208260ff198254161790550161759a565b507fe9bc03b920bb4ad78d60a16ed96b9bd3a62511e54e824bb89d0693fd57a436cc9261767e60405161761e816184e5565b838152600460208201428152604083016000815260608401906000825260808501926000845288600052601360205260406000209551865551600186015551600285015551600384015551151591019060ff801983541691151516179055565b8160005260126020526176b96001600160a01b0360026040600020015460101c166001600160a01b0316600052601e60205260406000205490565b50817f252df827edd91321527f79c58917f884a1c7f063517a39c44a193c4561a5c47160606040516000815260016020820152426040820152a26177156040519384938452336020850152608060408501526080840190618811565b90151560608301520390a161772b601454618a28565b601455005b60019060206001600160a01b038551169401938184015501617585565b61776590826000528360206000209182019101618a11565b86617574565b60405160208101908582524660408201523360601b60608201524260748201526074815261779a60948261853b565b5190206006840155617475565b608460405162461bcd60e51b815260206004820152602560248201527f4f6e6c79205365636f6e64617279204e6f64652063616e2070726f706f73652060448201527f62617463680000000000000000000000000000000000000000000000000000006064820152fd5b5033600052602260205260ff604060002054166003811015611103576001146173ed565b6080833603126105cb576020608091604051617850816184c9565b61785986618610565b8152617866838701618610565b8382015260408601356040820152606086013560608201528152019201916173c5565b346105cb5760203660031901126105cb5760043580600052600b602052600460406000200160ff815416600a8110156111035760040361793857600560ff19825416179055604051428152817fe17188fa11516c03541fed55d00a92c6e1cf75c5cec92277305926b55f37f07d60203393a36040519060048252600560208301524260408301527ff9bcef435bfe74e733c2545ab921bf4523e81934f4a940d6c9cf81a7f76d05e260603393a3005b608460405162461bcd60e51b815260206004820152603760248201527f4d61726b6574706c6163653a205472616e73706f7274206e6f7420737461727460448201527f6564206f7220616c726561647920636f6d706c657465640000000000000000006064820152fd5b346105cb5760203660031901126105cb57600435600052600c602052602060ff604060002054166040519015158152f35b346105cb5760403660031901126105cb576179ec6185fa565b6024356179f88161a1ef565b33151580617acf575b80617a98575b617a6a5781906001600160a01b0380851691167f8c5be1e5ebec7d5bd14f71427d1e84f3dd0314c0f7b2291e5b200ac8c7c3b925600080a460005260046020526001600160a01b03604060002091166001600160a01b0319825416179055600080f35b7fa9fbf51f000000000000000000000000000000000000000000000000000000006000523360045260246000fd5b506001600160a01b038116600052600560205260406000206001600160a01b03331660005260205260ff6040600020541615617a07565b50336001600160a01b0382161415617a01565b346105cb5760203660031901126105cb57600435617aff8161a1ef565b50600052600460205260206001600160a01b0360406000205416604051908152f35b346105cb5760003660031901126105cb5760405160008054617b42816186a9565b808452906001811690811561402a5750600114617b695761137e836129bd8185038261853b565b60008080527f290decd9548b62a8d60345a988386fc84ba6bc95484008f6362f93160ef3e563939250905b808210617bac575090915081016020016129bd613fbb565b919260018160209254838588010152019101909291617b94565b346105cb5760403660031901126105cb57617bdf6185fa565b60243590617beb61a1ad565b6040906001600160a01b03825191617c03848461853b565b601783527f41646d696e2052657075746174696f6e205570646174650000000000000000006020840152169182600052601e6020526000841215600014617cf2577f2798be63346814f6860e33ec74943746d90e550bda623ab4d6cc33da0d9aa848916080617ce39285600052601e60205280600020617c8488825461a075565b90555b85600052601e60205280600020548660005260246020528160002046600052602052816000205585600052601f60205242816000205585600052601e602052806000205496815197885260208801528601526080850190618647565b924260608201528033940390a3005b600160ff1b84146126ac577f2798be63346814f6860e33ec74943746d90e550bda623ab4d6cc33da0d9aa848916080617ce3928660000386600052601e60205280826000205411600014617d5f5786600052601e602052617d58826000209182546192fa565b9055617c87565b5085600052601e602052600081812055617c87565b346105cb5760403660031901126105cb57600435617d906185ce565b8160005260266020526040600020617dad600b82015415156188b1565b60ff600782015460a01c16617f4b57617ddd826001600160a01b0316600052601d60205260ff6040600020541690565b15617ee15760050180546001600160a01b039092169160005b818110617e69575050805468010000000000000000811015610d8457617e2191600182018155618899565b81549060031b906001600160a01b0384831b921b1916179055604051914283527f79b8343e4b76ffc272d1b1b6d31a9400b046fffd13fa7718b97ba1c008a755f460203394a4005b836001600160a01b03617e7c8386618899565b90549060031b1c1614617e9157600101617df6565b608460405162461bcd60e51b815260206004820152602360248201527f446973707574653a2043616e64696461746520616c72656164792070726f706f6044820152621cd95960ea1b6064820152fd5b608460405162461bcd60e51b815260206004820152602a60248201527f446973707574653a2043616e646964617465206d75737420626520612076657260448201527f6966696564206e6f6465000000000000000000000000000000000000000000006064820152fd5b608460405162461bcd60e51b815260206004820152603960248201527f446973707574653a204465636973696f6e20616c7265616479207265636f726460448201527f65642c2063616e6e6f74206164642063616e64696461746573000000000000006064820152fd5b346105cb5760803660031901126105cb57600435617fd16185ce565b90617fda6185e4565b90606435918160005260266020526040600020617ffc600b82015415156188b1565b6007810154906001600160a01b03821633036182655761802360ff600a9360a01c166188fc565b0180549460ff8660101c16618221576001600160a01b03169485156181ce578415618164578447106180fa5762ff0000191662010000179055600080808086885af161806d61896d565b50156180b65760606001600160a01b037faa8449ab289c3017d3accf11883a48aba29e00fa8c0a036277bd1e4de736056c926040519533875260208701524260408701521693a4005b606460405162461bcd60e51b815260206004820152601f60248201527f446973707574653a20526566756e64207472616e73666572206661696c6564006044820152fd5b608460405162461bcd60e51b815260206004820152603860248201527f446973707574653a20436f6e74726163742068617320696e737566666963696560448201527f6e742066756e647320666f72207468697320726566756e6400000000000000006064820152fd5b608460405162461bcd60e51b815260206004820152602760248201527f446973707574653a20526566756e6420616d6f756e74206d757374206265207060448201527f6f736974697665000000000000000000000000000000000000000000000000006064820152fd5b608460405162461bcd60e51b815260206004820152602660248201527f446973707574653a20526566756e6420616464726573732063616e6e6f74206260448201526565207a65726f60d01b6064820152fd5b606460405162461bcd60e51b815260206004820152602060248201527f446973707574653a20526566756e6420616c726561647920656e666f726365646044820152fd5b608460405162461bcd60e51b815260206004820152603460248201527f446973707574653a204f6e6c792073656c65637465642061726269747261746f60448201527f722063616e20656e666f72636520726566756e640000000000000000000000006064820152fd5b346105cb5760203660031901126105cb576004356001600160e01b031981168091036105cb57807f7965db0b000000000000000000000000000000000000000000000000000000006020921490811561832e575b506040519015158152f35b7f4906490600000000000000000000000000000000000000000000000000000000811491508115618361575b5082618323565b7f80ac58cd000000000000000000000000000000000000000000000000000000008114915081156183c5575b811561839b575b508261835a565b7f01ffc9a70000000000000000000000000000000000000000000000000000000091501482618394565b7f5b5e139f000000000000000000000000000000000000000000000000000000008114915061838d565b346105cb5760203660031901126105cb5760043567ffffffffffffffff81116105cb576184209036906004016185b0565b3360009081527f6d5257204ebe7d88fd91ae87941cb2dd9d8062b64ae5a2bd2d28ec40b9fbf6df602052604090205460ff16156184af576131827ff287981221e255f6e3761bc1df25a5ba6eea5ca31ef594ec90a9584a9ebaecf99146600052602b60205242600360406000200155604051918291468352426020840152606060408401526060830190618647565b63e2517d3f60e01b60005233600452600060245260446000fd5b6080810190811067ffffffffffffffff821117610d8457604052565b60a0810190811067ffffffffffffffff821117610d8457604052565b610160810190811067ffffffffffffffff821117610d8457604052565b610140810190811067ffffffffffffffff821117610d8457604052565b90601f8019910116810190811067ffffffffffffffff821117610d8457604052565b67ffffffffffffffff8111610d8457601f01601f191660200190565b9291926185858261855d565b91618593604051938461853b565b8294818452818301116105cb578281602093846000960137010152565b9080601f830112156105cb578160206185cb93359101618579565b90565b602435906001600160a01b03821682036105cb57565b604435906001600160a01b03821682036105cb57565b600435906001600160a01b03821682036105cb57565b35906001600160a01b03821682036105cb57565b60005b8381106186375750506000910152565b8181015183820152602001618627565b9060209161866081518092818552858086019101618624565b601f01601f1916010190565b67ffffffffffffffff8111610d845760051b60200190565b6024359081151582036105cb57565b60409060031901126105cb576004359060243590565b90600182811c921680156186d9575b60208310146186c357565b634e487b7160e01b600052602260045260246000fd5b91607f16916186b8565b600092918154916186f3836186a9565b8083529260018116908115618749575060011461870f57505050565b60009081526020812093945091925b83831061872f575060209250010190565b60018160209294939454838587010152019101919061871e565b915050602093945060ff929192191683830152151560051b010190565b60609060031901126105cb576004356001600160a01b03811681036105cb57906024356001600160a01b03811681036105cb579060443590565b906020808351928381520192019060005b8181106187be5750505090565b82518452602093840193909201916001016187b1565b9060038210156111035752565b9060406003198301126105cb57600435916024359067ffffffffffffffff82116105cb576185cb916004016185b0565b906020808351928381520192019060005b81811061882f5750505090565b82516001600160a01b0316845260209384019390920191600101618822565b9060068210156111035752565b90600a8210156111035752565b60235481101561888357602360005260206000200190600090565b634e487b7160e01b600052603260045260246000fd5b80548210156188835760005260206000200190600090565b156188b857565b606460405162461bcd60e51b815260206004820152601f60248201527f446973707574653a204469737075746520646f6573206e6f74206578697374006044820152fd5b1561890357565b608460405162461bcd60e51b815260206004820152602860248201527f446973707574653a204465636973696f6e206d757374206265207265636f726460448201527f65642066697273740000000000000000000000000000000000000000000000006064820152fd5b3d15618998573d9061897e8261855d565b9161898c604051938461853b565b82523d6000602084013e565b606090565b60235468010000000000000000811015610d84578060016189c392016023556023618899565b6001600160a01b0380839493549260031b9316831b921b1916179055565b80518210156188835760209160051b010190565b80548210156188835760005260206000209060021b0190600090565b818110618a1c575050565b60008155600101618a11565b60001981146126ac5760010190565b60405190618a44826184c9565b60006060838281528260208201528260408201520152565b90604051618a69816184c9565b6060600382948054845260018101546020850152600281015460408501520154910152565b618a96618a37565b5060005260106020526185cb6040600020618a5c565b15618ab357565b608460405162461bcd60e51b8152602060048201526024808201527f4d61726b6574706c6163653a20596f7520646f206e6f74206f776e207468697360448201527f204e4654000000000000000000000000000000000000000000000000000000006064820152fd5b15618b2357565b606460405162461bcd60e51b815260206004820152601e60248201527f4d61726b6574706c6163653a205072696365206d757374206265203e203000006044820152fd5b60405190618b7660408361853b565b601482527f50726f647563742069732041757468656e7469630000000000000000000000006020830152565b15618baa5750565b618bce9060405191829162461bcd60e51b8352602060048401526024830190618647565b0390fd5b9060038110156111035760ff80198354169116179055565b91906001600160a01b0316918215611ed2576000908282526002602052826001600160a01b03604084205416948533151580618cfd575b507fddf252ad1be2c89b69c2b068fc378daa952ba7f163c4a11628f55a4df523b3ef6001600160a01b039582618cc3575b83815260036020526040812060018154019055848152600260205260408120846001600160a01b031982541617905580a416808303618c9057505050565b7f64283d7b0000000000000000000000000000000000000000000000000000000060005260045260245260445260646000fd5b618ce485600052600460205260406000206001600160a01b03198154169055565b8281526003602052604081208054600019019055618c52565b91939492505080618d61575b15618d1957919083908538618c21565b839085618d3257602491637e27328960e01b8252600452fd5b6044917f177e802f00000000000000000000000000000000000000000000000000000000825233600452602452fd5b503385148015618d8f575b80618d0957508381526004602052336001600160a01b0360408320541614618d09565b508481526005602052604081206001600160a01b033316825260205260ff604082205416618d6c565b15618dbf57565b606460405162461bcd60e51b815260206004820152601460248201527f426174636820646f6573206e6f742065786973740000000000000000000000006044820152fd5b90601f8111618e10575050565b618e2b91600052601f6020600020910160051c810190618a11565b565b9190601f8111618e3c57505050565b618e2b926000526020600020906020601f840160051c83019310618e68575b601f0160051c0190618a11565b9091508190618e5b565b90618e7c8261866c565b618e89604051918261853b565b8281528092618e9a601f199161866c565b0190602036910137565b15618eab57565b608460405162461bcd60e51b815260206004820152602860248201527f4d61726b6574706c6163653a2050726f64756374206e6f74206c69737465642060448201527f666f722073616c650000000000000000000000000000000000000000000000006064820152fd5b9060068110156111035760ff80198354169116179055565b906040519182815491828252602082019060005260206000209260005b818110618f5f575050618e2b9250038361853b565b84546001600160a01b0316835260019485019487945060209093019201618f4a565b15618f8857565b608460405162461bcd60e51b815260206004820152602260248201527f446973707574653a204465636973696f6e20616c7265616479207265636f7264604482015261195960f21b6064820152fd5b15618fde57565b606460405162461bcd60e51b815260206004820152601760248201527f426174636820616c726561647920636f6d6d69747465640000000000000000006044820152fd5b929190619039602091604086526040860190618647565b930152565b9060405161904b816184c9565b6060600382946001600160a01b0381541684526001600160a01b036001820154166020850152600281015460408501520154910152565b805468010000000000000000811015610d84576190a491600182018155618899565b819291549060031b91821b91600019901b1916179055565b93929161903990606092865260016020870152608060408701526080860190618647565b9493926060926190399287526020870152608060408701526080860190618647565b1561910957565b606460405162461bcd60e51b815260206004820152601d60248201527f4e4654436f72653a20546f6b656e20646f6573206e6f742065786973740000006044820152fd5b916001600160a01b03806191608561a1ef565b9216911603619251576191899160005260096020526191906040600020604051938480926186e3565b038361853b565b8151156191ee57602081519101209060208151910120036191b3576185cb618b67565b6040516191c160408261853b565b600c81527f434944204d69736d617463680000000000000000000000000000000000000000602082015290565b50506040516191fe60608261853b565b602381527f53746f72656420434944206e6f7420666f756e6420666f72207468697320746f60208201527f6b656e0000000000000000000000000000000000000000000000000000000000604082015290565b505060405161926160408261853b565b601281527f4f776e657273686970204d69736d617463680000000000000000000000000000602082015290565b6192978161a1ef565b506000526006602052612be56192b76040600020604051928380926186e3565b60006040516192c760208261853b565b5290565b81156192d5570490565b634e487b7160e01b600052601260045260246000fd5b6000198101919082116126ac57565b919082039182116126ac57565b80600052601260205260406000209161932283541515618db8565b6002830192835461933960ff8260081c1615618fd7565b60ff8160b01c1661a031576004820190815415619fed57846000526013602052600360406000200154601c5410619e595750836000526015602052604060002054906064820291808304606414901517156126ac5761939a905480926192cb565b601b549190821161993f575050835461ffff191661010117845560018101939260005b855481101561942957806193dc6193d6600193896189f5565b5061903e565b6001600160a01b03604082016193f2815161a1ef565b8351831692168214619408575b505050016193bd565b6001600160a01b0360206194219401511690519161a783565b3880806193ff565b50919350916001600160a01b0390826000526013602052619452600160406000200154426192fa565b8360005260136020526001604060002001555460101c169060409182519061947a848361853b565b601982527f5375636365737366756c2062617463682070726f706f73616c00000000000000602083015280600052601e60205280600052601e60205283600020805490600582018092116126ac575580600052601e60205283600020548160005260246020528460002046600052602052846000205580600052601f60205242846000205580600052601e6020527f2798be63346814f6860e33ec74943746d90e550bda623ab4d6cc33da0d9aa84861954e8560002054938651948552600560208601526080878601526080850190618647565b924260608201528033940390a3806000526012602052816000209281600052601360205282600020946000916003600487019601925b86548110156198b6576001600160a01b0361959f8286618899565b90549060031b1c169085600052601760205260ff87806000206000906001600160a01b038616825260205220541680156198ac576001908114036197a65760029160ff60048b01541680619798575b61978f575b6060908851619602838261853b565b602d81527f436f72726563742076616c69646174696f6e20766f7465207769746820464c2060208201526c31b7b739b4b232b930ba34b7b760991b8a82015281600052601e602052600085121560001461970b576001946196f87f2798be63346814f6860e33ec74943746d90e550bda623ab4d6cc33da0d9aa8489284600052601e6020528c60002061969684825461a075565b90555b84600052601e6020528c600020548560005260246020528d600020466000526020528d6000205584600052601f602052428d6000205584600052601e6020528c60002054928d51938452602084015260808d8401526080830190618647565b9342908201528033940390a35b01619584565b600160ff1b85146126ac57846196f87f2798be63346814f6860e33ec74943746d90e550bda623ab4d6cc33da0d9aa8489260019760000385600052601e6020528d81816000205411600014619779576197729087600052601e6020526000209182546192fa565b9055619699565b505084600052601e60205260008d812055619699565b600392506195f3565b50601460038b0154106195ee565b86516001926197b5898361853b565b601982527f496e636f72726563742076616c69646174696f6e20766f746500000000000000602083015280600052601e60205280600052601e602052838960002054116000146198985780600052601e6020528860002061981681546192eb565b90555b80600052601e60205288600020548160005260246020528960002046600052602052896000205580600052601f60205242896000205580600052601e6020527ff56fac7273f06bd3ca26040588f3a7fc575310260588fcc0286b75186978828c6198908a600020548b5191829133964291846190bc565b0390a3619705565b80600052601e602052600089812055619819565b5060019150619705565b509095507f5467f900d79d50bb50493e994d00fa31b9e02bdb759207421068380d76efa055945082915060ff6007820154166198fe575b5050815190815260016020820152a1565b606060067f0eac795277ccdaac7e14c8fe1d98bd43226bbf804c906006c907bd69e17fd6679201548551906000825260208201524286820152a280386198ed565b90915083600095939495526016602052604060002054906064820291808304606414901517156126ac57619972916192cb565b9060640390606482116126ac571161998957509050565b80600160b01b60ff60b01b196001600160a01b039354161780915560101c166040908151906199b8838361853b565b601882527f426174636820666c616767656420666f72207265766965770000000000000000602083015280600052601e60205280600052601e6020526002836000205411600014619e425780600052601e6020528260002080549060011982019182116126ac57559392935b80600052601e60205282600020548160005260246020528360002046600052602052836000205580600052601f60205242836000205580600052601e6020527ff56fac7273f06bd3ca26040588f3a7fc575310260588fcc0286b75186978828c619aa98460002054938551948552600260208601526080868601526080850190618647565b924260608201528033940390a3816000526012602052806000209180600052601360205281600020936000906003600486019501915b8554811015619e0c576001600160a01b03619afa8285618899565b90549060031b1c169084600052601760205260ff86806000206000906001600160a01b03861682526020522054168015619e0257600114619cfc5760029160ff60048a01541680619cee575b619ce5575b6060908751619b5a838261853b565b602d81527f436f72726563742076616c69646174696f6e20766f7465207769746820464c2060208201526c31b7b739b4b232b930ba34b7b760991b8982015281600052601e6020526000851215600014619c6357600194619c507f2798be63346814f6860e33ec74943746d90e550bda623ab4d6cc33da0d9aa8489284600052601e6020528b600020619bee84825461a075565b90555b84600052601e6020528b600020548560005260246020528c600020466000526020528c6000205584600052601f602052428c6000205584600052601e6020528b60002054928c51938452602084015260808c8401526080830190618647565b9342908201528033940390a35b01619adf565b600160ff1b85146126ac5784619c507f2798be63346814f6860e33ec74943746d90e550bda623ab4d6cc33da0d9aa8489260019760000385600052601e602052808d6000205411600014619cd05785600052601e602052619cc98d6000209182546192fa565b9055619bf1565b5084600052601e60205260008c812055619bf1565b60039250619b4b565b50601460038a015410619b46565b8551600192619d0b888361853b565b601982527f496e636f72726563742076616c69646174696f6e20766f746500000000000000602083015280600052601e60205280600052601e60205283886000205411600014619dee5780600052601e60205287600020619d6c81546192eb565b90555b80600052601e60205287600020548160005260246020528860002046600052602052886000205580600052601f60205242886000205580600052601e6020527ff56fac7273f06bd3ca26040588f3a7fc575310260588fcc0286b75186978828c619de689600020548a5191829133964291846190bc565b0390a3619c5d565b80600052601e602052600088812055619d6f565b5060019150619c5d565b509450507f5467f900d79d50bb50493e994d00fa31b9e02bdb759207421068380d76efa0559250815190815260006020820152a1565b80600052601e602052600083812055939293619a24565b6001600160a01b0393959250600160b01b915060ff60b01b19161780915560101c16906040908151619e8b838261853b565b601e81527f4869676820464c20616e6f6d616c792073636f72652064657465637465640000602082015283600052601e60205283600052601e6020526005836000205411600014619fb75783600052601e6020528260002093845460041981019081116126ac577f5467f900d79d50bb50493e994d00fa31b9e02bdb759207421068380d76efa05595555b80600052601e60205283600020548160005260246020528460002046600052602052846000205580600052601f60205242846000205580600052601e6020527ff56fac7273f06bd3ca26040588f3a7fc575310260588fcc0286b75186978828c619f9b8560002054938651948552600560208601526080878601526080850190618647565b924260608201528033940390a3815190815260006020820152a1565b837f5467f900d79d50bb50493e994d00fa31b9e02bdb759207421068380d76efa05594600052601e602052600084812055619f16565b606460405162461bcd60e51b815260206004820152601660248201527f4e6f2076616c696461746f72732073656c6563746564000000000000000000006044820152fd5b606460405162461bcd60e51b815260206004820152601f60248201527f426174636820697320666c61676765642c2063616e6e6f7420636f6d6d6974006044820152fd5b919082018092116126ac57565b3360009081527fa87c2a6dde4942beb8d7c8b6ed44b77d97632f63780d51aab47619e6435312c9602052604090205460ff161561a0bb57565b63e2517d3f60e01b600052336004527f620d362b92b6ef580d4e86c5675d679fe08d31dff47b72f281959a4eecdd036a60245260446000fd5b3360009081527feac5c60f35588055bbb86ef7f5a30bb5677c3d590e5c178a26cb24e83190b2b9602052604090205460ff161561a12d57565b63e2517d3f60e01b600052336004527f73e573f9566d61418a34d5de3ff49360f9c51fec37f7486551670290f6285dab60245260446000fd5b80600052600760205260406000206001600160a01b03331660005260205260ff604060002054161561a1955750565b63e2517d3f60e01b6000523360045260245260446000fd5b6001600160a01b0360115416330361a1c157565b7f118cdaa7000000000000000000000000000000000000000000000000000000006000523360045260246000fd5b8060005260026020526001600160a01b036040600020541690811561a212575090565b637e27328960e01b60005260045260246000fd5b90600080602354915b82811061a5e6575061a24090618e72565b9060009060005b81811061a563575050508051908215801561a55b575b61a53d5781831161a534575b61a27282618e72565b91600090815b81811061a4c8575061a28985618e72565b956000194301904382116126ac5760409392935190602082019240835242604083015260608201526060815261a2c060808261853b565b5190206000904160601b905b87831061a2de57505050505050505090565b831561a48457604051602081019182528360408201524460608201528260808201526074815261a30f60948261853b565b51902092600090819084908b838a838a0682808f8e5b831061a429575b50505050936001600160a01b0361a34961a3519361a363976189e1565b5116926189e1565b5261a35c848b6189e1565b51906192fa565b9560001981019281841161a415576001600160a01b0361a383858b6189e1565b511661a38f828b6189e1565b5261a3a561a39d858c6189e1565b51918b6189e1565b521561a40157506001909361a3ba848b6189e1565b5160405190602082019283528560408301526bffffffffffffffffffffffff199060601b1660608201526054815261a3f360748261853b565b51902092019193929361a2cc565b80634e487b7160e01b602492526011600452fd5b602483634e487b7160e01b81526011600452fd5b61a445939798508295509161a43e91926189e1565b519061a075565b928984861061a464575050506001018a8894938f939288938f8e61a325565b9297509194935090915085906001600160a01b0361a34961a3638f61a32c565b606460405162461bcd60e51b815260206004820152601460248201527f52657075746174696f6e2073756d206572726f720000000000000000000000006044820152fd5b9161a4fa6001600160a01b0361a4de85876189e1565b51166001600160a01b0316600052601e60205260406000205490565b908160010190816001116126ac5761a51b61a52d92600a600195049061a075565b908161a527878a6189e1565b5261a075565b920161a278565b9150809161a269565b5050505060405161a54f60208261853b565b60008152600036813790565b50811561a25d565b6001600160a01b0361a57482618868565b90549060031b1c1680600052601d60205260ff60406000205416908161a5c3575b5061a5a3575b60010161a247565b9161a5bb6001916001600160a01b0361614386618868565b92905061a59b565b9050600052602260205260ff60406000205416600381101561110357153861a595565b6001600160a01b0361a5f782618868565b90549060031b1c1680600052601d60205260ff60406000205416908161a63a575b5061a626575b60010161a22f565b9061a632600191618a28565b91905061a61e565b9050600052602260205260ff60406000205416600381101561110357153861a618565b908160005260106020526040600020906003820180541560001461a75d578183558160018401555b4290556001820154906003820291808304600314901517156126ac57111561a73e57600201805490600a82018092116126ac578190556032811161a6c7575050565b7fba81b0d231f4fd2a6a2ef21aab7fdb86a40420cee5d7e21cfadc96de92129e5e9160e091604051918252602082015260806040820152602160808201527f5072696365207369676e69666963616e746c792061626f76652061766572616760a0820152606560f81b60c0820152426060820152a1565b600201805491508161a74e575050565b60001982019182116126ac5755565b61a76882845461a075565b83556001830161a77983825461a075565b60011c905561a685565b9161a78f81838561a9b7565b7f516c8b339c132041f2a10d0e873c5eaf4944299c02b458d7491b7f7ac1574d2f60206001600160a01b03806040519542875216951693a4565b908060005260026020526001600160a01b038060406000205416928361a852575b168061a838575b8160005260026020526040600020816001600160a01b0319825416179055827fddf252ad1be2c89b69c2b068fc378daa952ba7f163c4a11628f55a4df523b3ef600080a490565b80600052600360205260406000206001815401905561a7f1565b61a87383600052600460205260406000206001600160a01b03198154169055565b8360005260036020526040600020600019815401905561a7ea565b80600052600760205260406000206001600160a01b03831660005260205260ff604060002054161560001461a9215780600052600760205260406000206001600160a01b0383166000526020526040600020600160ff198254161790556001600160a01b03339216907f2f8788117e7eff1d82e926ec794901d17c78024a50270940304540a733656f0d600080a4600190565b5050600090565b80600052600760205260406000206001600160a01b03831660005260205260ff6040600020541660001461a9215780600052600760205260406000206001600160a01b038316600052602052604060002060ff1981541690556001600160a01b03339216907ff6391f5c32d9c69d2a47ea670b442974b53935d1edc7fd64eb21e047a839171b600080a4600190565b909291926001600160a01b03811615611ed25761a9dc846001600160a01b039261a7c9565b16908161a9f85783637e27328960e01b60005260045260246000fd5b919290916001600160a01b0316808303618c9057505050565b6000526026602052604060002090600b8201541561a921576005600092018054925b83811061aa435750505050600090565b6001600160a01b0361aa558284618899565b90549060031b1c166001600160a01b0384161461aa745760010161aa33565b50505050600190565b93909293823b61aa8f575b5050505050565b61aad66001600160a01b0392836020951696846040519788968796630a85bd0160e11b88521660048701521660248501526044840152608060648401526084830190618647565b03816000865af1809160009161ab3b575b509061ab18575061aaf661896d565b8051908161ab135782633250574960e11b60005260045260246000fd5b602001fd5b6001600160e01b0319630a85bd0160e11b911603611e4a5750388080808061aa88565b6020813d60201161ab76575b8161ab546020938361853b565b81010312611e985751906001600160e01b031982168203611e9557503861aae7565b3d915061ab4756fea2646970667358221220200a15a6e537727bf101bab92a6210b08653a7b46a7bb697ff23eff19322b2f164736f6c634300081c00332f8788117e7eff1d82e926ec794901d17c78024a50270940304540a733656f0da87c2a6dde4942beb8d7c8b6ed44b77d97632f63780d51aab47619e6435312c96d5257204ebe7d88fd91ae87941cb2dd9d8062b64ae5a2bd2d28ec40b9fbf6dfa4bfd7afe708e2e87e7f0e2ad9b4d545417e0f795f57b5c5ab5d799c565a04f4eac5c60f35588055bbb86ef7f5a30bb5677c3d590e5c178a26cb24e83190b2b9",
  "linkReferences": {},
  "deployedLinkReferences": {}
}