{
  "_format": "hh-sol-artifact-1",
  "contractName": "L2Participant",
  "sourceName": "contracts/L2Participant.sol",
  "abi": [
    {
      "inputs": [
        {
          "internalType": "address",
          "name": "_participantAddress",
          "type": "address"
        },
        {
          "internalType": "string",
          "name": "_participantType",
          "type": "string"
        },
        {
          "internalType": "address",
          "name": "_posHubContract",
          "type": "address"
        },
        {
          "internalType": "uint256",
          "name": "_chainId",
          "type": "uint256"
        },
        {
          "internalType": "address",
          "name": "initialOwner",
          "type": "address"
        }
      ],
      "stateMutability": "nonpayable",
      "type": "constructor"
    },
    {
      "inputs": [],
      "name": "EnforcedPause",
      "type": "error"
    },
    {
      "inputs": [],
      "name": "ExpectedPause",
      "type": "error"
    },
    {
      "inputs": [
        {
          "internalType": "address",
          "name": "owner",
          "type": "address"
        }
      ],
      "name": "OwnableInvalidOwner",
      "type": "error"
    },
    {
      "inputs": [
        {
          "internalType": "address",
          "name": "account",
          "type": "address"
        }
      ],
      "name": "OwnableUnauthorizedAccount",
      "type": "error"
    },
    {
      "inputs": [],
      "name": "ReentrancyGuardReentrantCall",
      "type": "error"
    },
    {
      "anonymous": false,
      "inputs": [
        {
          "indexed": true,
          "internalType": "uint256",
          "name": "detectionId",
          "type": "uint256"
        },
        {
          "indexed": true,
          "internalType": "uint256",
          "name": "productId",
          "type": "uint256"
        },
        {
          "indexed": false,
          "internalType": "string",
          "name": "anomalyType",
          "type": "string"
        },
        {
          "indexed": false,
          "internalType": "uint256",
          "name": "severity",
          "type": "uint256"
        }
      ],
      "name": "AnomalyDetected",
      "type": "event"
    },
    {
      "anonymous": false,
      "inputs": [
        {
          "indexed": true,
          "internalType": "address",
          "name": "posHub",
          "type": "address"
        },
        {
          "indexed": false,
          "internalType": "bytes32",
          "name": "dataHash",
          "type": "bytes32"
        },
        {
          "indexed": false,
          "internalType": "string",
          "name": "dataType",
          "type": "string"
        }
      ],
      "name": "CrossChainDataSent",
      "type": "event"
    },
    {
      "anonymous": false,
      "inputs": [
        {
          "indexed": true,
          "internalType": "string",
          "name": "modelType",
          "type": "string"
        },
        {
          "indexed": false,
          "internalType": "bytes32",
          "name": "modelHash",
          "type": "bytes32"
        },
        {
          "indexed": false,
          "internalType": "uint256",
          "name": "trainingSamples",
          "type": "uint256"
        },
        {
          "indexed": false,
          "internalType": "string",
          "name": "modelCID",
          "type": "string"
        }
      ],
      "name": "LocalFLModelTrained",
      "type": "event"
    },
    {
      "anonymous": false,
      "inputs": [
        {
          "indexed": true,
          "internalType": "address",
          "name": "previousOwner",
          "type": "address"
        },
        {
          "indexed": true,
          "internalType": "address",
          "name": "newOwner",
          "type": "address"
        }
      ],
      "name": "OwnershipTransferred",
      "type": "event"
    },
    {
      "anonymous": false,
      "inputs": [
        {
          "indexed": false,
          "internalType": "address",
          "name": "account",
          "type": "address"
        }
      ],
      "name": "Paused",
      "type": "event"
    },
    {
      "anonymous": false,
      "inputs": [
        {
          "indexed": true,
          "internalType": "uint256",
          "name": "qrId",
          "type": "uint256"
        },
        {
          "indexed": true,
          "internalType": "uint256",
          "name": "productId",
          "type": "uint256"
        },
        {
          "indexed": false,
          "internalType": "bytes32",
          "name": "qrHash",
          "type": "bytes32"
        },
        {
          "indexed": false,
          "internalType": "address",
          "name": "authorizedScanner",
          "type": "address"
        }
      ],
      "name": "QRCodeGenerated",
      "type": "event"
    },
    {
      "anonymous": false,
      "inputs": [
        {
          "indexed": true,
          "internalType": "uint256",
          "name": "qrId",
          "type": "uint256"
        },
        {
          "indexed": true,
          "internalType": "address",
          "name": "scanner",
          "type": "address"
        },
        {
          "indexed": false,
          "internalType": "uint256",
          "name": "timestamp",
          "type": "uint256"
        }
      ],
      "name": "QRCodeScanned",
      "type": "event"
    },
    {
      "anonymous": false,
      "inputs": [
        {
          "indexed": true,
          "internalType": "uint256",
          "name": "logId",
          "type": "uint256"
        },
        {
          "indexed": true,
          "internalType": "uint256",
          "name": "productId",
          "type": "uint256"
        },
        {
          "indexed": true,
          "internalType": "address",
          "name": "fromParticipant",
          "type": "address"
        },
        {
          "indexed": false,
          "internalType": "address",
          "name": "toParticipant",
          "type": "address"
        },
        {
          "indexed": false,
          "internalType": "string",
          "name": "ipfsCID",
          "type": "string"
        }
      ],
      "name": "TransportLogCreated",
      "type": "event"
    },
    {
      "anonymous": false,
      "inputs": [
        {
          "indexed": false,
          "internalType": "address",
          "name": "account",
          "type": "address"
        }
      ],
      "name": "Unpaused",
      "type": "event"
    },
    {
      "inputs": [
        {
          "internalType": "uint256",
          "name": "",
          "type": "uint256"
        }
      ],
      "name": "anomalyDetections",
      "outputs": [
        {
          "internalType": "uint256",
          "name": "detectionId",
          "type": "uint256"
        },
        {
          "internalType": "uint256",
          "name": "productId",
          "type": "uint256"
        },
        {
          "internalType": "string",
          "name": "anomalyType",
          "type": "string"
        },
        {
          "internalType": "uint256",
          "name": "severity",
          "type": "uint256"
        },
        {
          "internalType": "string",
          "name": "evidenceCID",
          "type": "string"
        },
        {
          "internalType": "uint256",
          "name": "detectedAt",
          "type": "uint256"
        },
        {
          "internalType": "bool",
          "name": "reported",
          "type": "bool"
        }
      ],
      "stateMutability": "view",
      "type": "function"
    },
    {
      "inputs": [],
      "name": "chainId",
      "outputs": [
        {
          "internalType": "uint256",
          "name": "",
          "type": "uint256"
        }
      ],
      "stateMutability": "view",
      "type": "function"
    },
    {
      "inputs": [
        {
          "internalType": "uint256",
          "name": "productId",
          "type": "uint256"
        },
        {
          "internalType": "address",
          "name": "fromParticipant",
          "type": "address"
        },
        {
          "internalType": "address",
          "name": "toParticipant",
          "type": "address"
        },
        {
          "internalType": "string",
          "name": "ipfsCID",
          "type": "string"
        }
      ],
      "name": "createTransportLog",
      "outputs": [
        {
          "internalType": "uint256",
          "name": "",
          "type": "uint256"
        }
      ],
      "stateMutability": "nonpayable",
      "type": "function"
    },
    {
      "inputs": [
        {
          "internalType": "uint256",
          "name": "qrId",
          "type": "uint256"
        }
      ],
      "name": "deactivateQRCode",
      "outputs": [],
      "stateMutability": "nonpayable",
      "type": "function"
    },
    {
      "inputs": [],
      "name": "emergencyWithdraw",
      "outputs": [],
      "stateMutability": "nonpayable",
      "type": "function"
    },
    {
      "inputs": [
        {
          "internalType": "uint256",
          "name": "productId",
          "type": "uint256"
        },
        {
          "internalType": "string",
          "name": "encryptedDataCID",
          "type": "string"
        },
        {
          "internalType": "bytes32",
          "name": "qrHash",
          "type": "bytes32"
        },
        {
          "internalType": "uint256",
          "name": "validityDuration",
          "type": "uint256"
        },
        {
          "internalType": "address",
          "name": "authorizedScanner",
          "type": "address"
        }
      ],
      "name": "generateQRCode",
      "outputs": [
        {
          "internalType": "uint256",
          "name": "",
          "type": "uint256"
        }
      ],
      "stateMutability": "nonpayable",
      "type": "function"
    },
    {
      "inputs": [
        {
          "internalType": "uint256",
          "name": "detectionId",
          "type": "uint256"
        }
      ],
      "name": "getAnomalyDetection",
      "outputs": [
        {
          "components": [
            {
              "internalType": "uint256",
              "name": "detectionId",
              "type": "uint256"
            },
            {
              "internalType": "uint256",
              "name": "productId",
              "type": "uint256"
            },
            {
              "internalType": "string",
              "name": "anomalyType",
              "type": "string"
            },
            {
              "internalType": "uint256",
              "name": "severity",
              "type": "uint256"
            },
            {
              "internalType": "string",
              "name": "evidenceCID",
              "type": "string"
            },
            {
              "internalType": "uint256",
              "name": "detectedAt",
              "type": "uint256"
            },
            {
              "internalType": "bool",
              "name": "reported",
              "type": "bool"
            }
          ],
          "internalType": "struct L2Participant.AnomalyDetection",
          "name": "",
          "type": "tuple"
        }
      ],
      "stateMutability": "view",
      "type": "function"
    },
    {
      "inputs": [
        {
          "internalType": "string",
          "name": "modelType",
          "type": "string"
        }
      ],
      "name": "getLocalFLModel",
      "outputs": [
        {
          "components": [
            {
              "internalType": "string",
              "name": "modelType",
              "type": "string"
            },
            {
              "internalType": "bytes32",
              "name": "modelHash",
              "type": "bytes32"
            },
            {
              "internalType": "string",
              "name": "modelCID",
              "type": "string"
            },
            {
              "internalType": "uint256",
              "name": "trainingSamples",
              "type": "uint256"
            },
            {
              "internalType": "uint256",
              "name": "trainingTimestamp",
              "type": "uint256"
            },
            {
              "internalType": "bool",
              "name": "readyForAggregation",
              "type": "bool"
            }
          ],
          "internalType": "struct L2Participant.LocalFLModel",
          "name": "",
          "type": "tuple"
        }
      ],
      "stateMutability": "view",
      "type": "function"
    },
    {
      "inputs": [
        {
          "internalType": "address",
          "name": "participant",
          "type": "address"
        }
      ],
      "name": "getParticipantInteractions",
      "outputs": [
        {
          "internalType": "uint256[]",
          "name": "",
          "type": "uint256[]"
        }
      ],
      "stateMutability": "view",
      "type": "function"
    },
    {
      "inputs": [
        {
          "internalType": "uint256",
          "name": "productId",
          "type": "uint256"
        }
      ],
      "name": "getProductQRCodes",
      "outputs": [
        {
          "internalType": "uint256[]",
          "name": "",
          "type": "uint256[]"
        }
      ],
      "stateMutability": "view",
      "type": "function"
    },
    {
      "inputs": [
        {
          "internalType": "uint256",
          "name": "productId",
          "type": "uint256"
        }
      ],
      "name": "getProductTransportLogs",
      "outputs": [
        {
          "internalType": "uint256[]",
          "name": "",
          "type": "uint256[]"
        }
      ],
      "stateMutability": "view",
      "type": "function"
    },
    {
      "inputs": [
        {
          "internalType": "string",
          "name": "",
          "type": "string"
        }
      ],
      "name": "localFLModels",
      "outputs": [
        {
          "internalType": "string",
          "name": "modelType",
          "type": "string"
        },
        {
          "internalType": "bytes32",
          "name": "modelHash",
          "type": "bytes32"
        },
        {
          "internalType": "string",
          "name": "modelCID",
          "type": "string"
        },
        {
          "internalType": "uint256",
          "name": "trainingSamples",
          "type": "uint256"
        },
        {
          "internalType": "uint256",
          "name": "trainingTimestamp",
          "type": "uint256"
        },
        {
          "internalType": "bool",
          "name": "readyForAggregation",
          "type": "bool"
        }
      ],
      "stateMutability": "view",
      "type": "function"
    },
    {
      "inputs": [],
      "name": "owner",
      "outputs": [
        {
          "internalType": "address",
          "name": "",
          "type": "address"
        }
      ],
      "stateMutability": "view",
      "type": "function"
    },
    {
      "inputs": [],
      "name": "participantAddress",
      "outputs": [
        {
          "internalType": "address",
          "name": "",
          "type": "address"
        }
      ],
      "stateMutability": "view",
      "type": "function"
    },
    {
      "inputs": [
        {
          "internalType": "address",
          "name": "",
          "type": "address"
        },
        {
          "internalType": "uint256",
          "name": "",
          "type": "uint256"
        }
      ],
      "name": "participantInteractions",
      "outputs": [
        {
          "internalType": "uint256",
          "name": "",
          "type": "uint256"
        }
      ],
      "stateMutability": "view",
      "type": "function"
    },
    {
      "inputs": [],
      "name": "participantType",
      "outputs": [
        {
          "internalType": "string",
          "name": "",
          "type": "string"
        }
      ],
      "stateMutability": "view",
      "type": "function"
    },
    {
      "inputs": [],
      "name": "pause",
      "outputs": [],
      "stateMutability": "nonpayable",
      "type": "function"
    },
    {
      "inputs": [],
      "name": "paused",
      "outputs": [
        {
          "internalType": "bool",
          "name": "",
          "type": "bool"
        }
      ],
      "stateMutability": "view",
      "type": "function"
    },
    {
      "inputs": [],
      "name": "posHubContract",
      "outputs": [
        {
          "internalType": "address",
          "name": "",
          "type": "address"
        }
      ],
      "stateMutability": "view",
      "type": "function"
    },
    {
      "inputs": [
        {
          "internalType": "uint256",
          "name": "",
          "type": "uint256"
        },
        {
          "internalType": "uint256",
          "name": "",
          "type": "uint256"
        }
      ],
      "name": "productQRCodes",
      "outputs": [
        {
          "internalType": "uint256",
          "name": "",
          "type": "uint256"
        }
      ],
      "stateMutability": "view",
      "type": "function"
    },
    {
      "inputs": [
        {
          "internalType": "uint256",
          "name": "",
          "type": "uint256"
        },
        {
          "internalType": "uint256",
          "name": "",
          "type": "uint256"
        }
      ],
      "name": "productTransportLogs",
      "outputs": [
        {
          "internalType": "uint256",
          "name": "",
          "type": "uint256"
        }
      ],
      "stateMutability": "view",
      "type": "function"
    },
    {
      "inputs": [
        {
          "internalType": "uint256",
          "name": "",
          "type": "uint256"
        }
      ],
      "name": "qrCodes",
      "outputs": [
        {
          "internalType": "uint256",
          "name": "qrId",
          "type": "uint256"
        },
        {
          "internalType": "uint256",
          "name": "productId",
          "type": "uint256"
        },
        {
          "internalType": "string",
          "name": "encryptedDataCID",
          "type": "string"
        },
        {
          "internalType": "bytes32",
          "name": "qrHash",
          "type": "bytes32"
        },
        {
          "internalType": "uint256",
          "name": "createdAt",
          "type": "uint256"
        },
        {
          "internalType": "uint256",
          "name": "expiresAt",
          "type": "uint256"
        },
        {
          "internalType": "bool",
          "name": "isActive",
          "type": "bool"
        },
        {
          "internalType": "address",
          "name": "authorizedScanner",
          "type": "address"
        }
      ],
      "stateMutability": "view",
      "type": "function"
    },
    {
      "inputs": [
        {
          "internalType": "uint256",
          "name": "productId",
          "type": "uint256"
        },
        {
          "internalType": "string",
          "name": "anomalyType",
          "type": "string"
        },
        {
          "internalType": "uint256",
          "name": "severity",
          "type": "uint256"
        },
        {
          "internalType": "string",
          "name": "evidenceCID",
          "type": "string"
        }
      ],
      "name": "recordAnomalyDetectionExternal",
      "outputs": [
        {
          "internalType": "uint256",
          "name": "",
          "type": "uint256"
        }
      ],
      "stateMutability": "nonpayable",
      "type": "function"
    },
    {
      "inputs": [],
      "name": "renounceOwnership",
      "outputs": [],
      "stateMutability": "nonpayable",
      "type": "function"
    },
    {
      "inputs": [
        {
          "internalType": "string",
          "name": "modelType",
          "type": "string"
        }
      ],
      "name": "reportFLModelToHub",
      "outputs": [],
      "stateMutability": "nonpayable",
      "type": "function"
    },
    {
      "inputs": [
        {
          "internalType": "uint256",
          "name": "qrId",
          "type": "uint256"
        }
      ],
      "name": "scanQRCode",
      "outputs": [
        {
          "internalType": "string",
          "name": "",
          "type": "string"
        }
      ],
      "stateMutability": "nonpayable",
      "type": "function"
    },
    {
      "inputs": [
        {
          "internalType": "string",
          "name": "modelType",
          "type": "string"
        },
        {
          "internalType": "bytes32",
          "name": "modelHash",
          "type": "bytes32"
        },
        {
          "internalType": "string",
          "name": "modelCID",
          "type": "string"
        },
        {
          "internalType": "uint256",
          "name": "trainingSamples",
          "type": "uint256"
        }
      ],
      "name": "trainLocalFLModel",
      "outputs": [],
      "stateMutability": "nonpayable",
      "type": "function"
    },
    {
      "inputs": [
        {
          "internalType": "address",
          "name": "newOwner",
          "type": "address"
        }
      ],
      "name": "transferOwnership",
      "outputs": [],
      "stateMutability": "nonpayable",
      "type": "function"
    },
    {
      "inputs": [
        {
          "internalType": "uint256",
          "name": "",
          "type": "uint256"
        }
      ],
      "name": "transportLogs",
      "outputs": [
        {
          "internalType": "uint256",
          "name": "logId",
          "type": "uint256"
        },
        {
          "internalType": "uint256",
          "name": "productId",
          "type": "uint256"
        },
        {
          "internalType": "address",
          "name": "fromParticipant",
          "type": "address"
        },
        {
          "internalType": "address",
          "name": "toParticipant",
          "type": "address"
        },
        {
          "internalType": "string",
          "name": "ipfsCID",
          "type": "string"
        },
        {
          "internalType": "uint256",
          "name": "timestamp",
          "type": "uint256"
        },
        {
          "internalType": "string",
          "name": "status",
          "type": "string"
        },
        {
          "internalType": "bool",
          "name": "verified",
          "type": "bool"
        }
      ],
      "stateMutability": "view",
      "type": "function"
    },
    {
      "inputs": [],
      "name": "unpause",
      "outputs": [],
      "stateMutability": "nonpayable",
      "type": "function"
    },
    {
      "inputs": [
        {
          "internalType": "address",
          "name": "newPosHub",
          "type": "address"
        }
      ],
      "name": "updatePosHubContract",
      "outputs": [],
      "stateMutability": "nonpayable",
      "type": "function"
    },
    {
      "inputs": [
        {
          "internalType": "uint256",
          "name": "logId",
          "type": "uint256"
        },
        {
          "internalType": "string",
          "name": "newStatus",
          "type": "string"
        },
        {
          "internalType": "bool",
          "name": "verified",
          "type": "bool"
        }
      ],
      "name": "updateTransportLogStatus",
      "outputs": [],
      "stateMutability": "nonpayable",
      "type": "function"
    }
  ],
  "bytecode": "0x60806040523461031057612e508038038061001981610315565b92833981019060a081830312610310576100328161033a565b60208201516001600160401b03811161031057820183601f82011215610310578051906001600160401b0382116102cf57610076601f8301601f1916602001610315565b94828652602083830101116103105760005b8281106102fb5750506020600091850101526100a66040830161033a565b6060830151929091906001600160a01b03906100c49060800161033a565b1680156102e557600080546001600160a01b03198116831782556001600160a01b0316907f8be0079c531659141344cd1fd0a4f28419497f9722a3daafe3b4186f6b6457e09080a3600180805560068190556007819055600890815560028054610100600160a81b0319169290911b610100600160a81b031691909117905582516001600160401b0381116102cf57600354600181811c911680156102c5575b60208210146102af57601f811161024a575b506020601f82116001146101e357819293946000926101d8575b50508160011b916000199060031b1c1916176003555b600480546001600160a01b0319166001600160a01b0392909216919091179055600555604051612b01908161034f8239f35b015190503880610190565b601f198216906003600052806000209160005b81811061023257509583600195969710610219575b505050811b016003556101a6565b015160001960f88460031b161c1916905538808061020b565b9192602060018192868b0151815501940192016101f6565b60036000527fc2575a0e9e593c00f959f8c92f12db2869c3395a3b0502d05e2516446f71f85b601f830160051c810191602084106102a5575b601f0160051c01905b8181106102995750610176565b6000815560010161028c565b9091508190610283565b634e487b7160e01b600052602260045260246000fd5b90607f1690610164565b634e487b7160e01b600052604160045260246000fd5b631e4fbdf760e01b600052600060045260246000fd5b80602080928401015182828901015201610088565b600080fd5b6040519190601f01601f191682016001600160401b038111838210176102cf57604052565b51906001600160a01b03821682036103105756fe6080604052600436101561001257600080fd5b60003560e01c806323293d1c1461231b5780632e7653db146122ea5780632e805d341461204c5780633b93a6d514611f865780633e204b7514611f0f5780633f4ba83a14611ea65780634ba729b0146119e957806356df2592146119b857806359ff6ba81461198b5780635c975abb14611968578063636b5409146117be57806364cdca63146112f35780636a6f69a11461128a5780636ca80026146111ea578063715018a6146111915780637f30d0b5146111685780638456cb591461110e57806384d3a39114610c735780638da5cb5b14610c4a57806397e46a791461091c5780639a8a0592146108fe5780639e417eae146108c7578063a4c56e8e14610745578063b4e16cb614610627578063c283dae31461058b578063d39b911514610532578063db2e21bc146104df578063e3b73d3e146103fe578063e81f57e5146102c6578063ec4d4e6014610283578063f2fde38b146101fa5763fc613d5a1461017c57600080fd5b346101f55760203660031901126101f557600435600052600e602052604060002060405190816020825491828152019160005260206000209060005b8181106101df576101db856101cf81870382612462565b6040519182918261261f565b0390f35b82548452602090930192600192830192016101b8565b600080fd5b346101f55760203660031901126101f557610213612609565b61021b612781565b6001600160a01b0316801561026d57600080546001600160a01b03198116831782556001600160a01b0316907f8be0079c531659141344cd1fd0a4f28419497f9722a3daafe3b4186f6b6457e09080a3005b631e4fbdf760e01b600052600060045260246000fd5b346101f55760203660031901126101f55761029c612609565b6102a4612781565b600480546001600160a01b0319166001600160a01b0392909216919091179055005b346101f55760203660031901126101f5576004356001600160401b0381116101f55761033f60206102fe6103cc9336906004016125b3565b600060a060405161030e8161242c565b6060815282858201526060604082015282606082015282608082015201528160405193828580945193849201612527565b8101600b815203019020604051906103568261242c565b61035f81612483565b82526001810154906020830191825261037a60028201612483565b90604084019182526103e56003820154936060860194855260ff6005600485015494608089019586520154169360a087019415158552604051978897602089525160c060208a015260e089019061254a565b9151604088015251868203601f1901606088015261254a565b925160808501525160a084015251151560c08301520390f35b346101f55760003660031901126101f5576040516000600354610420816123d6565b80845290600181169081156104bb575060011461045c575b6101db8361044881850382612462565b60405191829160208352602083019061254a565b600360009081527fc2575a0e9e593c00f959f8c92f12db2869c3395a3b0502d05e2516446f71f85b939250905b8082106104a157509091508101602001610448610438565b919260018160209254838588010152019101909291610489565b60ff191660208086019190915291151560051b840190910191506104489050610438565b346101f55760003660031901126101f5576104f8612781565b6000805481908190819047906001600160a01b0316828215610529575bf11561051d57005b6040513d6000823e3d90fd5b506108fc610515565b346101f55760403660031901126101f55761054b612609565b6001600160a01b03166000908152600f60205260409020805460243591908210156101f55760209161057c91612585565b90549060031b1c604051908152f35b346101f55760203660031901126101f557600435600052600c602052604060002080546001820154916105c060028201612483565b61061660038301546105d460048501612483565b61060360ff6006600588015497015416946040519889988952602089015260e0604089015260e088019061254a565b916060870152858203608087015261254a565b9160a0840152151560c08301520390f35b346101f55760203660031901126101f557600060c060405161064881612447565b82815282602082015260606040820152826060820152606060808201528260a08201520152600435600052600c602052604060002060405161068981612447565b81548152600182015491602082019283526106a660028201612483565b604083019081526107326003830154606085019081526106c860048501612483565b6080860190815261071960ff600660058801549760a08a019889520154169460c08801951515865260405198899860208a525160208a01525160408901525160e0606089015261010088019061254a565b9151608087015251858203601f190160a087015261254a565b915160c084015251151560e08301520390f35b346101f55760203660031901126101f5576004356001600160401b0381116101f5576107759036906004016125b3565b60025460081c6001600160a01b031690610790338314612659565b60405160208183516107a58183858801612527565b8101600b815203019020600581019182549160ff83161561088257610822918160016107f093015496610809600383015492600260405196879660a0602089015260c088019061254a565b918b6040880152601f19878403016060880152016126fe565b91608084015260a08301520390601f1982018152612462565b60ff19169055600454604080519283526020830181905260089083015267199b17db5bd9195b60c21b60608301526001600160a01b0316907ff0dc62bebb3fdae3d100782276121ceb9a016ee15b725e09c410a5d1a698c9e390608090a2005b60405162461bcd60e51b815260206004820152601f60248201527f4d6f64656c206e6f7420726561647920666f72206167677265676174696f6e006044820152606490fd5b346101f55760203660031901126101f5576108e0612781565b6004356000908152600a60205260409020600601805460ff19169055005b346101f55760003660031901126101f5576020600554604051908152f35b346101f55760a03660031901126101f5576004356024356001600160401b0381116101f55761094f9036906004016125b3565b6084356001600160a01b03811692908390036101f55761097d60018060a01b0360025460081c163314612659565b6109856127aa565b60075491610992836126b5565b6007556064354201804211610c34576040516109ad81612410565b848152602081019184835260408201938452606082016044358152608083019042825260a0840192835260c08401956001875260e08501958a875289600052600a6020526040600020955186555160018601556002850190518051906001600160401b038211610c1e57610a2183546123d6565b601f8111610bd6575b509160209b979593918b999795938d90601f8311600114610b1757936040999793837f572f5c9b58b8fb8ba600373f967c5679c3a0462c08c33602e5fd681812c27ccb9c9a9894610abf9894600698600092610b0c575b50508160011b916000199060031b1c19161790555b5160038401555160048301555160058201550192511515839060ff801983541691151516179055565b518154610100600160a81b03191660089190911b610100600160a81b03161790556000858152600e8852829020610af79085906126c4565b815190604435825287820152a3604051908152f35b015190503880610a81565b601f9b9a9998979695949392919b19821690836000528c6000209160005b818110610ba257508360409c9b9a9996937f572f5c9b58b8fb8ba600373f967c5679c3a0462c08c33602e5fd681812c27ccb9e9f610abf9a979460069a9760019510610b89575b505050811b019055610a96565b015160001960f88460031b161c19169055388080610b7c565b939597999b9d9496989a9c5090916020600181928786015181550195019301908f9c9a98969492919d9b999795939d610b35565b836000526020600020601f840160051c81019160208510610c14575b601f0160051c01905b818110610c085750610a2a565b60008155600101610bfb565b9091508190610bf2565b634e487b7160e01b600052604160045260246000fd5b634e487b7160e01b600052601160045260246000fd5b346101f55760003660031901126101f5576000546040516001600160a01b039091168152602090f35b346101f55760803660031901126101f5576004356024356001600160401b0381116101f557610ca69036906004016125b3565b604435916064356001600160401b0381116101f557610cc99036906004016125b3565b92610ce260018060a01b0360025460081c163314612659565b60009060085492610cf2846126b5565b600855604051610d0181612447565b84815260208101828152604082018781526060830185815260808401998a5260a084019142835260c0850193888552898952600c60205260408920955186555160018601556002850190518051906001600160401b0382116110fa578190610d6984546123d6565b601f81116110aa575b50602090601f8311600114611047578b9261103c575b50508160011b916000199060031b1c19161790555b5160038401556004830198519889516001600160401b03811161102857610dc482546123d6565b601f8111610fe3575b5060209a8b90601f8311600114610f6057600080516020612aac83398151915295610e50958c9d9585610e3c968e9f9b9660079f9660069792610f55575b50508160011b916000199060031b1c19161790555b51600584015551151591019060ff801983541691151516179055565b60405191829160408352604083019061254a565b868b8301520390a31015610e68575b50604051908152f35b7ff0dc62bebb3fdae3d100782276121ceb9a016ee15b725e09c410a5d1a698c9e360806040838560049552600c87522060068101600160ff19825416179055610f156001820154916003810154610f0160018060a01b0360025460081c16916040519889948c860197885260a06040870152610eea60c08701600283016126fe565b926060870152601f198684030189870152016126fe565b9060a083015203601f198101865285612462565b60018060a01b036004541693519020604051908152604086820152600e60408201526d185b9bdb585b1e57dc995c1bdc9d60921b6060820152a282610e5f565b015190503880610e0b565b838a52818a209190601f1984168b5b818110610fcc5750958c9d9560018660079e9f9b96600696600080516020612aac8339815191529c96610e3c9a610e509d10610fb3575b505050811b019055610e20565b015160001960f88460031b161c19169055388080610fa6565b92938f600181928786015181550195019301610f6f565b82895260208920601f830160051c8101916020841061101e575b601f0160051c01905b8181106110135750610dcd565b898155600101611006565b9091508190610ffd565b634e487b7160e01b88526041600452602488fd5b015190508d80610d88565b848c52818c209250601f1984168c5b8181106110925750908460019594939210611079575b505050811b019055610d9d565b015160001960f88460031b161c191690558d808061106c565b92936020600181928786015181550195019301611056565b909150838b5260208b20601f840160051c810191602085106110f0575b90601f859493920160051c01905b8181106110e25750610d72565b8c81558493506001016110d5565b90915081906110c7565b634e487b7160e01b8a52604160045260248afd5b346101f55760003660031901126101f557611127612781565b61112f6127aa565b600160ff1960025416176002557f62e78cea01bee320cd4e420270b5ea74000d11b0c9f74754ebdbfc544b05a2586020604051338152a1005b346101f55760003660031901126101f5576004546040516001600160a01b039091168152602090f35b346101f55760003660031901126101f5576111aa612781565b600080546001600160a01b0319811682556001600160a01b03167f8be0079c531659141344cd1fd0a4f28419497f9722a3daafe3b4186f6b6457e08280a3005b346101f55760203660031901126101f557600435600052600a6020526040600020805460018201549161121f60028201612483565b6003820154916004810154611258600660058401549301549360405197889788526020880152610100604088015261010087019061254a565b6060860194909452608085015260a084015260ff8116151560c084015260081c6001600160a01b031660e08301520390f35b346101f55760203660031901126101f557600435600052600d602052604060002060405190816020825491828152019160005260206000209060005b8181106112dd576101db856101cf81870382612462565b82548452602090930192600192830192016112c6565b346101f55760803660031901126101f5576004356001600160401b0381116101f5576113239036906004016125b3565b6024356044356001600160401b0381116101f5576113459036906004016125b3565b906064359061136260018060a01b0360025460081c163314612659565b61136a6127aa565b6040516020810185519161139a602082818a0195611389818789612527565b81010301601f198101835282612462565b51902060405160208101907030b737b6b0b63cafb232ba32b1ba34b7b760791b8252601181526113cb603182612462565b519020148015611764575b1561172a57604051946113e88661242c565b8086526020860195838752604081019686885260608201868152608083019042825260a084019260018452604051602081885161142681838d612527565b8101600b81520301902094518051906001600160401b038211610c1e57819061144f88546123d6565b601f81116116d7575b50602090601f831160011461167257600092611667575b50508160011b916000199060031b1c19161785555b516001850155600284019951998a519a6001600160401b038c11610c1e578b6114ad83546123d6565b601f811161161d575b5050602090601f8d1160011461158257936115729896936005938e7f1051f7cccf53f56664b34cda887cba36b9ab0761b56e77bca253f7a8121dfe5d9e9f61154e9b999561153d99600092611577575b50508160011b916000199060031b1c19161790555b51600385015551600484015551151591019060ff801983541691151516179055565b604051928392839251928391612527565b8101039020946040519384938452602084015260606040840152606083019061254a565b0390a2005b015190503880611506565b90601f198d169183600052816000209260005b81811061160557509360017f1051f7cccf53f56664b34cda887cba36b9ab0761b56e77bca253f7a8121dfe5d9e9f61154e9b999561153d99956115729e9c99958360059a106115ec575b505050811b01905561151b565b015160001960f88460031b161c191690553880806115df565b92936020600181928786015181550195019301611595565b836000526020600020906020601f840160051c8301931061165d575b601f0160051c01905b818110611651578d91506114b6565b60008155600101611642565b9091508190611639565b015190508d8061146f565b60008981528281209350601f198516905b8181106116bf57509084600195949392106116a6575b505050811b018555611484565b015160001960f88460031b161c191690558d8080611699565b92936020600181928786015181550195019301611683565b909150876000526020600020601f840160051c81019160208510611720575b90601f859493920160051c01905b8181106117115750611458565b60008155849350600101611704565b90915081906116f6565b60405162461bcd60e51b8152602060048201526012602482015271496e76616c6964206d6f64656c207479706560701b6044820152606490fd5b5060405160208101906117806020828951611389818789612527565b51902060405160208101907431b7bab73a32b93332b4ba2fb232ba32b1ba34b7b760591b8252601581526117b5603582612462565b519020146113d6565b346101f55760203660031901126101f55760043580600052600a60205260018060a01b0360066040600020015460081c1633148015611943575b156118f25780600052600a60205260ff60066040600020015416156118b55780600052600a602052600560406000200154421161187a576104486002826101db93600052600a602052604060002090604051904282527ff524e27b08637aa17aa1970cc1a26bdca73b45d22d89bdbf0c9db2f03bc8bd8760203393a301612483565b60405162461bcd60e51b815260206004820152601360248201527214548818dbd919481a185cc8195e1c1a5c9959606a1b6044820152606490fd5b60405162461bcd60e51b8152602060048201526015602482015274515220636f6465206973206e6f742061637469766560581b6044820152606490fd5b60405162461bcd60e51b815260206004820152602360248201527f4e6f7420617574686f72697a656420746f207363616e207468697320515220636044820152626f646560e81b6064820152608490fd5b506000818152600a602052604090206006015460081c6001600160a01b0316156117f8565b346101f55760003660031901126101f557602060ff600254166040519015158152f35b346101f55760003660031901126101f55760025460405160089190911c6001600160a01b03168152602090f35b346101f5576119c63661256f565b90600052600d602052604060002080548210156101f55760209161057c91612585565b346101f55760803660031901126101f5576024356001600160a01b03811690600435908290036101f5576044356001600160a01b038116908190036101f5576064356001600160401b0381116101f557611a479036906004016125b3565b92611a6060018060a01b0360025460081c163314612659565b611a686127aa565b818114611e555760065492611a7c846126b5565b60065560405192611a8c84612410565b8484526020840190828252604085019484865260608101958287526080820189815260a0830190428252604098895193611ac68b86612462565b6009808652681a5b9a5d1a585d195960ba1b60208088019190915260c08801968752600060e089018181528f8252929091528c90209651875597516001870155516002860180546001600160a01b03199081166001600160a01b03938416179091559151600387018054909316911617905551805160048501916001600160401b038211610c1e578190611b5a84546123d6565b601f8111611e02575b50602090601f8311600114611d9d57600092611d92575b50508160011b916000199060031b1c19161790555b51600583015551805160068301916001600160401b038211610c1e57611bb583546123d6565b601f8111611d4a575b509160209a93918a95938c90601f8311600114611ca15792826007937f9f958d1f018f2ba5b27c917bf2bd801eb1ba0d26fc92f183b00e35510c066a85999a93611c369796600092611c96575b50508160011b916000199060031b1c19161790555b51151591019060ff801983541691151516179055565b84600052600d8952611c4b84886000206126c4565b85600052600f8952611c6084886000206126c4565b80600052600f8952611c7584886000206126c4565b611c8d87519283928352888b8401528883019061254a565b0390a451908152f35b015190503880611c0b565b97929190601f1982169883600052816000209960005b818110611d1d5750927f9f958d1f018f2ba5b27c917bf2bd801eb1ba0d26fc92f183b00e35510c066a85999a6007959360019383611c369a999710611d04575b505050811b019055611c20565b015160001960f88460031b161c19169055388080611cf7565b93959799509091939597998f600181928786015181550195019301908e9997959392919a9896949a611cb7565b836000526020600020601f840160051c81019160208510611d88575b601f0160051c01905b818110611d7c5750611bbe565b60008155600101611d6f565b9091508190611d66565b015190508d80611b7a565b60008581528281209350601f198516905b818110611dea5750908460019594939210611dd1575b505050811b019055611b8f565b015160001960f88460031b161c191690558d8080611dc4565b92936020600181928786015181550195019301611dae565b909150836000526020600020601f840160051c81019160208510611e4b575b90601f859493920160051c01905b818110611e3c5750611b63565b60008155849350600101611e2f565b9091508190611e21565b60405162461bcd60e51b815260206004820152602360248201527f43616e6e6f74207472616e7366657220746f2073616d65207061727469636970604482015262185b9d60ea1b6064820152608490fd5b346101f55760003660031901126101f557611ebf612781565b60025460ff811615611efe5760ff19166002557f5db9ee0a495bf2e6ff9c91a7834c1ba4fdd244a5e8aa4e537bd38aeae4b073aa6020604051338152a1005b638dfc202b60e01b60005260046000fd5b346101f55760203660031901126101f5576001600160a01b03611f30612609565b16600052600f602052604060002060405190816020825491828152019160005260206000209060005b818110611f70576101db856101cf81870382612462565b8254845260209093019260019283019201611f59565b346101f55760203660031901126101f5576004356001600160401b0381116101f557611fd16020611fbe6120239336906004016125b3565b8160405193828580945193849201612527565b8101600b815203019020611fe481612483565b90600181015490611ff760028201612483565b9061203660038201549360ff60056004850154940154169360405197889760c0895260c089019061254a565b916020880152868203604088015261254a565b9260608501526080840152151560a08301520390f35b346101f55760603660031901126101f5576004356024356001600160401b0381116101f55761207f9036906004016125b3565b6044359081151582036101f5576120a460018060a01b0360025460081c163314612659565b6006548310156122a5578260005260096020526040600020916006830182516001600160401b038111610c1e576120db82546123d6565b601f811161225d575b506020601f82116001146121f457908061212b9493926000916121e9575b508160011b916000199060031b1c19161790555b600784019060ff801983541691151516179055565b604051612148602082816113898183019687815193849201612527565b51902060405160208101906818dbdb5c1b195d195960ba1b825260098152612171602982612462565b5190201461217b57005b6001015490600052600960205260406000209060058201544203428111610c345762093a80106121a757005b6121e7916121e16004604051926121bf604085612462565b600f84526e7472616e73706f72745f64656c617960881b602085015201612483565b916127c7565b005b905085015188612102565b601f1982169083600052806000209160005b818110612245575091839161212b9695946001941061222c575b5050811b019055612116565b87015160001960f88460031b161c191690558880612220565b9192602060018192868b015181550194019201612206565b826000526020600020601f830160051c8101916020841061229b575b601f0160051c01905b81811061228f57506120e4565b60008155600101612282565b9091508190612279565b60405162461bcd60e51b815260206004820152601c60248201527f5472616e73706f7274206c6f6720646f6573206e6f74206578697374000000006044820152606490fd5b346101f5576122f83661256f565b90600052600e602052604060002080548210156101f55760209161057c91612585565b346101f55760203660031901126101f5576004356000526009602052604060002080546001820154916123ca60018060a01b036002830154169160018060a01b03600382015416906123b761237260048301612483565b60058301549360ff600761238860068701612483565b9501541696604051998a998a5260208a015260408901526060880152610100608088015261010087019061254a565b9160a086015284820360c086015261254a565b90151560e08301520390f35b90600182811c92168015612406575b60208310146123f057565b634e487b7160e01b600052602260045260246000fd5b91607f16916123e5565b61010081019081106001600160401b03821117610c1e57604052565b60c081019081106001600160401b03821117610c1e57604052565b60e081019081106001600160401b03821117610c1e57604052565b90601f801991011681019081106001600160401b03821117610c1e57604052565b9060405191826000825492612497846123d6565b808452936001811690811561250557506001146124be575b506124bc92500383612462565b565b90506000929192526020600020906000915b8183106124e95750509060206124bc92820101386124af565b60209193508060019154838589010152019101909184926124d0565b9050602092506124bc94915060ff191682840152151560051b820101386124af565b60005b83811061253a5750506000910152565b818101518382015260200161252a565b9060209161256381518092818552858086019101612527565b601f01601f1916010190565b60409060031901126101f5576004359060243590565b805482101561259d5760005260206000200190600090565b634e487b7160e01b600052603260045260246000fd5b81601f820112156101f5578035906001600160401b038211610c1e57604051926125e7601f8401601f191660200185612462565b828452602083830101116101f557816000926020809301838601378301015290565b600435906001600160a01b03821682036101f557565b602060408183019282815284518094520192019060005b8181106126435750505090565b8251845260209384019390920191600101612636565b1561266057565b60405162461bcd60e51b815260206004820152602760248201527f4f6e6c79207061727469636970616e742063616e2063616c6c207468697320666044820152663ab731ba34b7b760c91b6064820152608490fd5b6000198114610c345760010190565b805468010000000000000000811015610c1e576126e691600182018155612585565b819291549060031b91821b91600019901b1916179055565b6000929181549161270e836123d6565b8083529260018116908115612764575060011461272a57505050565b60009081526020812093945091925b83831061274a575060209250010190565b600181602092949394548385870101520191019190612739565b915050602093945060ff929192191683830152151560051b010190565b6000546001600160a01b0316330361279557565b63118cdaa760e01b6000523360045260246000fd5b60ff600254166127b657565b63d93c066560e01b60005260046000fd5b929192600854916127d7836126b5565b6008556040516127e681612447565b838152602081018381526040820183815260608301600581526080840198895260a084019142835260c08501936000855288600052600c6020526040600020955186555160018601556002850190518051906001600160401b038211610c1e57819061285284546123d6565b601f8111612a58575b50602090601f83116001146129f3576000926129e8575b50508160011b916000199060031b1c19161790555b5160038401556004830197519788516001600160401b038111610c1e576128ae82546123d6565b99601f8b116129a0575b88999a50600098979850602090601f83116001146129345793612927969383600694600080516020612aac8339815191529a9894610e3c98600092610f555750508160011b916000199060031b1c191617905551600584015551151591019060ff801983541691151516179055565b600560208301520390a390565b90601f1983169184600052816000209260005b818110612985575084600080516020612aac8339815191529a9894610e3c98946129279b989460069860019510610fb357505050811b019055610e20565b8284015185558d9b5060019094019360209384019301612947565b826000526020600020601f830160051c81019b602084106129de575b601f0160051c019a5b8b81106129d257506128b8565b600081556001016129c5565b909b508b906129bc565b015190503880612872565b60008581528281209350601f198516905b818110612a405750908460019594939210612a27575b505050811b019055612887565b015160001960f88460031b161c19169055388080612a1a565b92936020600181928786015181550195019301612a04565b909150836000526020600020601f840160051c81019160208510612aa1575b90601f859493920160051c01905b818110612a92575061285b565b60008155849350600101612a85565b9091508190612a7756fef27d08f8785c2e9def4170e74d379f88f5527897f5bbc90169fbfaed5cd0b9f0a2646970667358221220e07bbcc487b03e897c61f35bde273c14955aa98e660e20c7d01b45f00387e4e864736f6c634300081c0033",
  "linkReferences": {},
  "deployedLinkReferences": {}
}